{
  "contractName": "Central_Authority",
  "abi": [
    {
      "inputs": [],
      "payable": false,
      "stateMutability": "nonpayable",
      "type": "constructor"
    },
    {
      "payable": true,
      "stateMutability": "payable",
      "type": "fallback"
    },
    {
      "constant": false,
      "inputs": [
        {
          "internalType": "address",
          "name": "_add",
          "type": "address"
        }
      ],
      "name": "addOfficial",
      "outputs": [],
      "payable": false,
      "stateMutability": "nonpayable",
      "type": "function"
    },
    {
      "constant": true,
      "inputs": [
        {
          "internalType": "uint256",
          "name": "",
          "type": "uint256"
        }
      ],
      "name": "deployedProjectsAddresses",
      "outputs": [
        {
          "internalType": "address payable",
          "name": "",
          "type": "address"
        }
      ],
      "payable": false,
      "stateMutability": "view",
      "type": "function"
    },
    {
      "constant": true,
      "inputs": [],
      "name": "getBalance",
      "outputs": [
        {
          "internalType": "uint256",
          "name": "",
          "type": "uint256"
        }
      ],
      "payable": false,
      "stateMutability": "view",
      "type": "function"
    },
    {
      "constant": true,
      "inputs": [],
      "name": "getContractAddress",
      "outputs": [
        {
          "internalType": "address",
          "name": "",
          "type": "address"
        }
      ],
      "payable": false,
      "stateMutability": "view",
      "type": "function"
    },
    {
      "constant": true,
      "inputs": [],
      "name": "owner",
      "outputs": [
        {
          "internalType": "address",
          "name": "",
          "type": "address"
        }
      ],
      "payable": false,
      "stateMutability": "view",
      "type": "function"
    },
    {
      "constant": false,
      "inputs": [
        {
          "internalType": "address",
          "name": "_add",
          "type": "address"
        }
      ],
      "name": "removeOfficial",
      "outputs": [],
      "payable": false,
      "stateMutability": "nonpayable",
      "type": "function"
    },
    {
      "constant": true,
      "inputs": [],
      "name": "total_officals",
      "outputs": [
        {
          "internalType": "uint256",
          "name": "",
          "type": "uint256"
        }
      ],
      "payable": false,
      "stateMutability": "view",
      "type": "function"
    },
    {
      "constant": false,
      "inputs": [
        {
          "internalType": "string",
          "name": "_Project_name",
          "type": "string"
        },
        {
          "internalType": "string",
          "name": "_document_url",
          "type": "string"
        },
        {
          "internalType": "string",
          "name": "_purpose",
          "type": "string"
        },
        {
          "internalType": "address",
          "name": "_official_incharge",
          "type": "address"
        }
      ],
      "name": "addNewProjectRequest",
      "outputs": [
        {
          "internalType": "uint256",
          "name": "",
          "type": "uint256"
        }
      ],
      "payable": false,
      "stateMutability": "nonpayable",
      "type": "function"
    },
    {
      "constant": false,
      "inputs": [
        {
          "internalType": "uint256",
          "name": "_index",
          "type": "uint256"
        },
        {
          "internalType": "bool",
          "name": "_decision",
          "type": "bool"
        }
      ],
      "name": "voteForProject",
      "outputs": [],
      "payable": false,
      "stateMutability": "nonpayable",
      "type": "function"
    },
    {
      "constant": false,
      "inputs": [
        {
          "internalType": "uint256",
          "name": "_token",
          "type": "uint256"
        }
      ],
      "name": "verifyPending_Projects",
      "outputs": [
        {
          "internalType": "bool",
          "name": "",
          "type": "bool"
        },
        {
          "internalType": "address payable",
          "name": "",
          "type": "address"
        }
      ],
      "payable": false,
      "stateMutability": "nonpayable",
      "type": "function"
    },
    {
      "constant": false,
      "inputs": [
        {
          "internalType": "uint256",
          "name": "_amount",
          "type": "uint256"
        }
      ],
      "name": "grantFundsToCentralProject",
      "outputs": [],
      "payable": false,
      "stateMutability": "nonpayable",
      "type": "function"
    }
  ],
  "bytecode": "0x60806040523480156200001157600080fd5b50336000806101000a81548173ffffffffffffffffffffffffffffffffffffffff021916908373ffffffffffffffffffffffffffffffffffffffff16021790555060018060008060009054906101000a900473ffffffffffffffffffffffffffffffffffffffff1673ffffffffffffffffffffffffffffffffffffffff1673ffffffffffffffffffffffffffffffffffffffff16815260200190815260200160002060006101000a81548160ff0219169083151502179055506001600281905550620000dc62000493565b6040518060e001604052806040518060400160405280601181526020017f43656e7472616c5f417574686f7269747900000000000000000000000000000081525081526020016040518060200160405280600081525081526020016040518060200160405280600081525081526020016000809054906101000a900473ffffffffffffffffffffffffffffffffffffffff1673ffffffffffffffffffffffffffffffffffffffff1681526020013073ffffffffffffffffffffffffffffffffffffffff16815260200160011515815260200160008152509050620001c8816000620001d060201b60201c565b50506200050c565b6000808360000151846020015185604001518660600151308860800151604051620001fb90620004fe565b808060200180602001806020018773ffffffffffffffffffffffffffffffffffffffff1673ffffffffffffffffffffffffffffffffffffffff1681526020018673ffffffffffffffffffffffffffffffffffffffff1673ffffffffffffffffffffffffffffffffffffffff1681526020018573ffffffffffffffffffffffffffffffffffffffff1673ffffffffffffffffffffffffffffffffffffffff16815260200184810384528a818151815260200191508051906020019080838360005b83811015620002d8578082015181840152602081019050620002bb565b50505050905090810190601f168015620003065780820380516001836020036101000a031916815260200191505b50848103835289818151815260200191508051906020019080838360005b838110156200034157808201518184015260208101905062000324565b50505050905090810190601f1680156200036f5780820380516001836020036101000a031916815260200191505b50848103825288818151815260200191508051906020019080838360005b83811015620003aa5780820151818401526020810190506200038d565b50505050905090810190601f168015620003d85780820380516001836020036101000a031916815260200191505b509950505050505050505050604051809103906000f08015801562000401573d6000803e3d6000fd5b509050806004600085815260200190815260200160002060006101000a81548173ffffffffffffffffffffffffffffffffffffffff021916908373ffffffffffffffffffffffffffffffffffffffff1602179055506004600084815260200190815260200160002060009054906101000a900473ffffffffffffffffffffffffffffffffffffffff1691505092915050565b6040518060e00160405280606081526020016060815260200160608152602001600073ffffffffffffffffffffffffffffffffffffffff168152602001600073ffffffffffffffffffffffffffffffffffffffff168152602001600015158152602001600081525090565b612796806200417f83390190565b613c63806200051c6000396000f3fe608060405260043610620000aa5760003560e01c80633f0d66b4116200006d5780633f0d66b414620004185780634fea49541462000463578063511482f114620004b85780638da5cb5b1462000542578063ac840db0146200059c578063c322c2f614620005f157620000aa565b80630278d41d14620000ac5780630301b1d6146200012b578063091df85f146200036257806312065fe0146200039057806332a2c5d014620003be575b005b348015620000b957600080fd5b50620000e960048036036020811015620000d257600080fd5b810190808035906020019092919050505062000630565b604051808273ffffffffffffffffffffffffffffffffffffffff1673ffffffffffffffffffffffffffffffffffffffff16815260200191505060405180910390f35b3480156200013857600080fd5b506200034c600480360360808110156200015157600080fd5b81019080803590602001906401000000008111156200016f57600080fd5b8201836020820111156200018257600080fd5b80359060200191846001830284011164010000000083111715620001a557600080fd5b91908080601f016020809104026020016040519081016040528093929190818152602001838380828437600081840152601f19601f820116905080830192505050505050509192919290803590602001906401000000008111156200020957600080fd5b8201836020820111156200021c57600080fd5b803590602001918460018302840111640100000000831117156200023f57600080fd5b91908080601f016020809104026020016040519081016040528093929190818152602001838380828437600081840152601f19601f82011690508083019250505050505050919291929080359060200190640100000000811115620002a357600080fd5b820183602082011115620002b657600080fd5b80359060200191846001830284011164010000000083111715620002d957600080fd5b91908080601f016020809104026020016040519081016040528093929190818152602001838380828437600081840152601f19601f820116905080830192505050505050509192919290803573ffffffffffffffffffffffffffffffffffffffff16906020019092919050505062000663565b6040518082815260200191505060405180910390f35b3480156200036f57600080fd5b506200037a62000825565b6040518082815260200191505060405180910390f35b3480156200039d57600080fd5b50620003a86200082b565b6040518082815260200191505060405180910390f35b348015620003cb57600080fd5b50620003d662000833565b604051808273ffffffffffffffffffffffffffffffffffffffff1673ffffffffffffffffffffffffffffffffffffffff16815260200191505060405180910390f35b3480156200042557600080fd5b5062000461600480360360408110156200043e57600080fd5b81019080803590602001909291908035151590602001909291905050506200083b565b005b3480156200047057600080fd5b50620004b6600480360360208110156200048957600080fd5b81019080803573ffffffffffffffffffffffffffffffffffffffff16906020019092919050505062000985565b005b348015620004c557600080fd5b50620004f560048036036020811015620004de57600080fd5b810190808035906020019092919050505062000aac565b60405180831515151581526020018273ffffffffffffffffffffffffffffffffffffffff1673ffffffffffffffffffffffffffffffffffffffff1681526020019250505060405180910390f35b3480156200054f57600080fd5b506200055a62000e85565b604051808273ffffffffffffffffffffffffffffffffffffffff1673ffffffffffffffffffffffffffffffffffffffff16815260200191505060405180910390f35b348015620005a957600080fd5b50620005ef60048036036020811015620005c257600080fd5b81019080803573ffffffffffffffffffffffffffffffffffffffff16906020019092919050505062000eaa565b005b348015620005fe57600080fd5b506200062e600480360360208110156200061757600080fd5b810190808035906020019092919050505062000fd5565b005b60046020528060005260406000206000915054906101000a900473ffffffffffffffffffffffffffffffffffffffff1681565b60006200066f62001370565b6040518060e001604052808781526020018681526020018581526020018473ffffffffffffffffffffffffffffffffffffffff1681526020013373ffffffffffffffffffffffffffffffffffffffff1681526020016000151581526020016000815250905080600360006005548152602001908152602001600020600082015181600001908051906020019062000708929190620013db565b50602082015181600101908051906020019062000727929190620013db565b50604082015181600201908051906020019062000746929190620013db565b5060608201518160030160006101000a81548173ffffffffffffffffffffffffffffffffffffffff021916908373ffffffffffffffffffffffffffffffffffffffff16021790555060808201518160040160006101000a81548173ffffffffffffffffffffffffffffffffffffffff021916908373ffffffffffffffffffffffffffffffffffffffff16021790555060a08201518160040160146101000a81548160ff02191690831515021790555060c08201518160050155905050600560008154809291906001019190505550600160055403915050949350505050565b60025481565b600047905090565b600030905090565b60011515600160003373ffffffffffffffffffffffffffffffffffffffff1673ffffffffffffffffffffffffffffffffffffffff16815260200190815260200160002060009054906101000a900460ff161515146200089957600080fd5b60006003600084815260200190815260200160002090508060060160003373ffffffffffffffffffffffffffffffffffffffff1673ffffffffffffffffffffffffffffffffffffffff16815260200190815260200160002060009054906101000a900460ff16156200090a57600080fd5b60018160060160003373ffffffffffffffffffffffffffffffffffffffff1673ffffffffffffffffffffffffffffffffffffffff16815260200190815260200160002060006101000a81548160ff0219169083151502179055508115620009805780600501600081548092919060010191905055505b505050565b60011515600160003373ffffffffffffffffffffffffffffffffffffffff1673ffffffffffffffffffffffffffffffffffffffff16815260200190815260200160002060009054906101000a900460ff16151514620009e357600080fd5b60011515600160008373ffffffffffffffffffffffffffffffffffffffff1673ffffffffffffffffffffffffffffffffffffffff16815260200190815260200160002060009054906101000a900460ff161515141562000aa9576000600160008373ffffffffffffffffffffffffffffffffffffffff1673ffffffffffffffffffffffffffffffffffffffff16815260200190815260200160002060006101000a81548160ff021916908315150217905550600260008154809291906001900391905055505b50565b6000806001831015801562000ac2575060055483105b62000acc57600080fd5b60006003600085815260200190815260200160002090503373ffffffffffffffffffffffffffffffffffffffff168160040160009054906101000a900473ffffffffffffffffffffffffffffffffffffffff1673ffffffffffffffffffffffffffffffffffffffff161462000b4057600080fd5b600060025482600501541015801562000b6857508160040160149054906101000a900460ff16155b1562000e765762000e48826040518060e0016040529081600082018054600181600116156101000203166002900480601f01602080910402602001604051908101604052809291908181526020018280546001816001161561010002031660029004801562000c1b5780601f1062000bef5761010080835404028352916020019162000c1b565b820191906000526020600020905b81548152906001019060200180831162000bfd57829003601f168201915b50505050508152602001600182018054600181600116156101000203166002900480601f01602080910402602001604051908101604052809291908181526020018280546001816001161561010002031660029004801562000cc15780601f1062000c955761010080835404028352916020019162000cc1565b820191906000526020600020905b81548152906001019060200180831162000ca357829003601f168201915b50505050508152602001600282018054600181600116156101000203166002900480601f01602080910402602001604051908101604052809291908181526020018280546001816001161561010002031660029004801562000d675780601f1062000d3b5761010080835404028352916020019162000d67565b820191906000526020600020905b81548152906001019060200180831162000d4957829003601f168201915b505050505081526020016003820160009054906101000a900473ffffffffffffffffffffffffffffffffffffffff1673ffffffffffffffffffffffffffffffffffffffff1673ffffffffffffffffffffffffffffffffffffffff1681526020016004820160009054906101000a900473ffffffffffffffffffffffffffffffffffffffff1673ffffffffffffffffffffffffffffffffffffffff1673ffffffffffffffffffffffffffffffffffffffff1681526020016004820160149054906101000a900460ff1615151515815260200160058201548152505086620010ad565b905060018260040160146101000a81548160ff02191690831515021790555060018193509350505062000e80565b6000819350935050505b915091565b6000809054906101000a900473ffffffffffffffffffffffffffffffffffffffff1681565b60011515600160003373ffffffffffffffffffffffffffffffffffffffff1673ffffffffffffffffffffffffffffffffffffffff16815260200190815260200160002060009054906101000a900460ff1615151462000f0857600080fd5b60011515600160008373ffffffffffffffffffffffffffffffffffffffff1673ffffffffffffffffffffffffffffffffffffffff16815260200190815260200160002060009054906101000a900460ff161515141562000f685762000fd2565b60018060008373ffffffffffffffffffffffffffffffffffffffff1673ffffffffffffffffffffffffffffffffffffffff16815260200190815260200160002060006101000a81548160ff0219169083151502179055506002600081548092919060010191905055505b50565b6000809054906101000a900473ffffffffffffffffffffffffffffffffffffffff1673ffffffffffffffffffffffffffffffffffffffff163373ffffffffffffffffffffffffffffffffffffffff16146200102f57600080fd5b6004600080815260200190815260200160002060009054906101000a900473ffffffffffffffffffffffffffffffffffffffff1673ffffffffffffffffffffffffffffffffffffffff166108fc829081150290604051600060405180830381858888f19350505050158015620010a9573d6000803e3d6000fd5b5050565b6000808360000151846020015185604001518660600151308860800151604051620010d89062001462565b808060200180602001806020018773ffffffffffffffffffffffffffffffffffffffff1673ffffffffffffffffffffffffffffffffffffffff1681526020018673ffffffffffffffffffffffffffffffffffffffff1673ffffffffffffffffffffffffffffffffffffffff1681526020018573ffffffffffffffffffffffffffffffffffffffff1673ffffffffffffffffffffffffffffffffffffffff16815260200184810384528a818151815260200191508051906020019080838360005b83811015620011b557808201518184015260208101905062001198565b50505050905090810190601f168015620011e35780820380516001836020036101000a031916815260200191505b50848103835289818151815260200191508051906020019080838360005b838110156200121e57808201518184015260208101905062001201565b50505050905090810190601f1680156200124c5780820380516001836020036101000a031916815260200191505b50848103825288818151815260200191508051906020019080838360005b83811015620012875780820151818401526020810190506200126a565b50505050905090810190601f168015620012b55780820380516001836020036101000a031916815260200191505b509950505050505050505050604051809103906000f080158015620012de573d6000803e3d6000fd5b509050806004600085815260200190815260200160002060006101000a81548173ffffffffffffffffffffffffffffffffffffffff021916908373ffffffffffffffffffffffffffffffffffffffff1602179055506004600084815260200190815260200160002060009054906101000a900473ffffffffffffffffffffffffffffffffffffffff1691505092915050565b6040518060e00160405280606081526020016060815260200160608152602001600073ffffffffffffffffffffffffffffffffffffffff168152602001600073ffffffffffffffffffffffffffffffffffffffff168152602001600015158152602001600081525090565b828054600181600116156101000203166002900490600052602060002090601f016020900481019282601f106200141e57805160ff19168380011785556200144f565b828001600101855582156200144f579182015b828111156200144e57825182559160200191906001019062001431565b5b5090506200145e919062001470565b5090565b612796806200149983390190565b6200149591905b808211156200149157600081600090555060010162001477565b5090565b9056fe60806040523480156200001157600080fd5b506040516200279638038062002796833981810160405260c08110156200003757600080fd5b81019080805160405193929190846401000000008211156200005857600080fd5b838201915060208201858111156200006f57600080fd5b82518660018202830111640100000000821117156200008d57600080fd5b8083526020830192505050908051906020019080838360005b83811015620000c3578082015181840152602081019050620000a6565b50505050905090810190601f168015620000f15780820380516001836020036101000a031916815260200191505b50604052602001805160405193929190846401000000008211156200011557600080fd5b838201915060208201858111156200012c57600080fd5b82518660018202830111640100000000821117156200014a57600080fd5b8083526020830192505050908051906020019080838360005b838110156200018057808201518184015260208101905062000163565b50505050905090810190601f168015620001ae5780820380516001836020036101000a031916815260200191505b5060405260200180516040519392919084640100000000821115620001d257600080fd5b83820191506020820185811115620001e957600080fd5b82518660018202830111640100000000821117156200020757600080fd5b8083526020830192505050908051906020019080838360005b838110156200023d57808201518184015260208101905062000220565b50505050905090810190601f1680156200026b5780820380516001836020036101000a031916815260200191505b50604052602001805190602001909291908051906020019092919080519060200190929190505050336000806101000a81548173ffffffffffffffffffffffffffffffffffffffff021916908373ffffffffffffffffffffffffffffffffffffffff16021790555060018060008060009054906101000a900473ffffffffffffffffffffffffffffffffffffffff1673ffffffffffffffffffffffffffffffffffffffff1673ffffffffffffffffffffffffffffffffffffffff16815260200190815260200160002060006101000a81548160ff0219169083151502179055506001600281905550826000806101000a81548173ffffffffffffffffffffffffffffffffffffffff021916908373ffffffffffffffffffffffffffffffffffffffff16021790555080600660006101000a81548173ffffffffffffffffffffffffffffffffffffffff021916908373ffffffffffffffffffffffffffffffffffffffff1602179055508560039080519060200190620003ec9291906200046c565b508460049080519060200190620004059291906200046c565b5083600590805190602001906200041e9291906200046c565b5081600960006101000a81548173ffffffffffffffffffffffffffffffffffffffff021916908373ffffffffffffffffffffffffffffffffffffffff1602179055505050505050506200051b565b828054600181600116156101000203166002900490600052602060002090601f016020900481019282601f10620004af57805160ff1916838001178555620004e0565b82800160010185558215620004e0579182015b82811115620004df578251825591602001919060010190620004c2565b5b509050620004ef9190620004f3565b5090565b6200051891905b8082111562000514576000816000905550600101620004fa565b5090565b90565b61226b806200052b6000396000f3fe6080604052600436106100f35760003560e01c80635b5287f91161008a578063a2b7a8c311610059578063a2b7a8c31461098e578063ac840db0146109d5578063de8f51d514610a26578063e2a50f7714610c30576100f3565b80635b5287f91461039757806367c897fe1461058057806380d038e31461074e5780638da5cb5b14610937576100f3565b806332a2c5d0116100c657806332a2c5d0146102245780634132327b1461027b5780634fea495414610292578063511482f1146102e3576100f3565b806303b2a739146100f5578063091df85f1461017057806312065fe01461019b57806321e19b49146101c6575b005b34801561010157600080fd5b5061012e6004803603602081101561011857600080fd5b8101908080359060200190929190505050610c8e565b604051808273ffffffffffffffffffffffffffffffffffffffff1673ffffffffffffffffffffffffffffffffffffffff16815260200191505060405180910390f35b34801561017c57600080fd5b50610185610cc1565b6040518082815260200191505060405180910390f35b3480156101a757600080fd5b506101b0610cc7565b6040518082815260200191505060405180910390f35b3480156101d257600080fd5b506101ff600480360360208110156101e957600080fd5b8101908080359060200190929190505050610ccf565b6040518083151515158152602001821515151581526020019250505060405180910390f35b34801561023057600080fd5b50610239610d92565b604051808273ffffffffffffffffffffffffffffffffffffffff1673ffffffffffffffffffffffffffffffffffffffff16815260200191505060405180910390f35b34801561028757600080fd5b50610290610d9a565b005b34801561029e57600080fd5b506102e1600480360360208110156102b557600080fd5b81019080803573ffffffffffffffffffffffffffffffffffffffff169060200190929190505050610f16565b005b3480156102ef57600080fd5b5061031c6004803603602081101561030657600080fd5b810190808035906020019092919050505061103b565b6040518080602001828103825283818151815260200191508051906020019080838360005b8381101561035c578082015181840152602081019050610341565b50505050905090810190601f1680156103895780820380516001836020036101000a031916815260200191505b509250505060405180910390f35b3480156103a357600080fd5b506104fe600480360360608110156103ba57600080fd5b81019080803590602001906401000000008111156103d757600080fd5b8201836020820111156103e957600080fd5b8035906020019184600183028401116401000000008311171561040b57600080fd5b91908080601f016020809104026020016040519081016040528093929190818152602001838380828437600081840152601f19601f8201169050808301925050505050505091929192908035906020019064010000000081111561046e57600080fd5b82018360208201111561048057600080fd5b803590602001918460018302840111640100000000831117156104a257600080fd5b91908080601f016020809104026020016040519081016040528093929190818152602001838380828437600081840152601f19601f82011690508083019250505050505050919291929080359060200190929190505050611204565b6040518080602001838152602001828103825284818151815260200191508051906020019080838360005b83811015610544578082015181840152602081019050610529565b50505050905090810190601f1680156105715780820380516001836020036101000a031916815260200191505b50935050505060405180910390f35b34801561058c57600080fd5b506105956114c2565b604051808060200180602001806020018673ffffffffffffffffffffffffffffffffffffffff1673ffffffffffffffffffffffffffffffffffffffff1681526020018573ffffffffffffffffffffffffffffffffffffffff1673ffffffffffffffffffffffffffffffffffffffff168152602001848103845289818151815260200191508051906020019080838360005b83811015610641578082015181840152602081019050610626565b50505050905090810190601f16801561066e5780820380516001836020036101000a031916815260200191505b50848103835288818151815260200191508051906020019080838360005b838110156106a757808201518184015260208101905061068c565b50505050905090810190601f1680156106d45780820380516001836020036101000a031916815260200191505b50848103825287818151815260200191508051906020019080838360005b8381101561070d5780820151818401526020810190506106f2565b50505050905090810190601f16801561073a5780820380516001836020036101000a031916815260200191505b509850505050505050505060405180910390f35b34801561075a57600080fd5b506108b56004803603606081101561077157600080fd5b810190808035906020019064010000000081111561078e57600080fd5b8201836020820111156107a057600080fd5b803590602001918460018302840111640100000000831117156107c257600080fd5b91908080601f016020809104026020016040519081016040528093929190818152602001838380828437600081840152601f19601f8201169050808301925050505050505091929192908035906020019064010000000081111561082557600080fd5b82018360208201111561083757600080fd5b8035906020019184600183028401116401000000008311171561085957600080fd5b91908080601f016020809104026020016040519081016040528093929190818152602001838380828437600081840152601f19601f82011690508083019250505050505050919291929080359060200190929190505050611701565b6040518080602001838152602001828103825284818151815260200191508051906020019080838360005b838110156108fb5780820151818401526020810190506108e0565b50505050905090810190601f1680156109285780820380516001836020036101000a031916815260200191505b50935050505060405180910390f35b34801561094357600080fd5b5061094c611a15565b604051808273ffffffffffffffffffffffffffffffffffffffff1673ffffffffffffffffffffffffffffffffffffffff16815260200191505060405180910390f35b34801561099a57600080fd5b506109d3600480360360408110156109b157600080fd5b8101908080359060200190929190803515159060200190929190505050611a3a565b005b3480156109e157600080fd5b50610a24600480360360208110156109f857600080fd5b81019080803573ffffffffffffffffffffffffffffffffffffffff169060200190929190505050611ce7565b005b348015610a3257600080fd5b50610c1a60048036036060811015610a4957600080fd5b8101908080359060200190640100000000811115610a6657600080fd5b820183602082011115610a7857600080fd5b80359060200191846001830284011164010000000083111715610a9a57600080fd5b91908080601f016020809104026020016040519081016040528093929190818152602001838380828437600081840152601f19601f82011690508083019250505050505050919291929080359060200190640100000000811115610afd57600080fd5b820183602082011115610b0f57600080fd5b80359060200191846001830284011164010000000083111715610b3157600080fd5b91908080601f016020809104026020016040519081016040528093929190818152602001838380828437600081840152601f19601f82011690508083019250505050505050919291929080359060200190640100000000811115610b9457600080fd5b820183602082011115610ba657600080fd5b80359060200191846001830284011164010000000083111715610bc857600080fd5b91908080601f016020809104026020016040519081016040528093929190818152602001838380828437600081840152601f19601f820116905080830192505050505050509192919290505050611e0f565b6040518082815260200191505060405180910390f35b348015610c3c57600080fd5b50610c6960048036036020811015610c5357600080fd5b81019080803590602001909291905050506120cf565b6040518083151515158152602001821515151581526020019250505060405180910390f35b60076020528060005260406000206000915054906101000a900473ffffffffffffffffffffffffffffffffffffffff1681565b60025481565b600047905090565b600080600660009054906101000a900473ffffffffffffffffffffffffffffffffffffffff1673ffffffffffffffffffffffffffffffffffffffff1663e2a50f77846040518263ffffffff1660e01b815260040180828152602001915050604080518083038186803b158015610d4457600080fd5b505afa158015610d58573d6000803e3d6000fd5b505050506040513d6040811015610d6e57600080fd5b81019080805190602001909291908051906020019092919050505091509150915091565b600030905090565b6000809054906101000a900473ffffffffffffffffffffffffffffffffffffffff1673ffffffffffffffffffffffffffffffffffffffff163373ffffffffffffffffffffffffffffffffffffffff1614610df357600080fd5b6000671bc16d674ec800009050600080600a80549050905060008090505b81811015610f10576000600a8281548110610e2857fe5b906000526020600020906008020190508060030160169054906101000a900460ff168015610e6457508060030160149054906101000a900460ff165b15610f045784816002015410610e7a5784610e80565b80600201545b9350610e8b8461211f565b15610efd57610ebe8160030160009054906101000a900473ffffffffffffffffffffffffffffffffffffffff1685612146565b838160020154038160020181905550600081600201541415610ef85760008160030160166101000a81548160ff0219169083151502179055505b610f03565b50610f10565b5b50806001019050610e11565b50505050565b60011515600160003373ffffffffffffffffffffffffffffffffffffffff1673ffffffffffffffffffffffffffffffffffffffff16815260200190815260200160002060009054906101000a900460ff16151514610f7357600080fd5b60011515600160008373ffffffffffffffffffffffffffffffffffffffff1673ffffffffffffffffffffffffffffffffffffffff16815260200190815260200160002060009054906101000a900460ff1615151415611038576000600160008373ffffffffffffffffffffffffffffffffffffffff1673ffffffffffffffffffffffffffffffffffffffff16815260200190815260200160002060006101000a81548160ff021916908315150217905550600260008154809291906001900391905055505b50565b6060600080600960009054906101000a900473ffffffffffffffffffffffffffffffffffffffff1673ffffffffffffffffffffffffffffffffffffffff1663511482f1856040518263ffffffff1660e01b8152600401808281526020019150506040805180830381600087803b1580156110b457600080fd5b505af11580156110c8573d6000803e3d6000fd5b505050506040513d60408110156110de57600080fd5b810190808051906020019092919080519060200190929190505050809250819350505081156111c457806007600086815260200190815260200160002060006101000a81548173ffffffffffffffffffffffffffffffffffffffff021916908373ffffffffffffffffffffffffffffffffffffffff16021790555060088490806001815401808255809150509060018203906000526020600020016000909192909190915055506040518060400160405280601181526020017f4e65772050726f6a656374204164646564000000000000000000000000000000815250925050506111ff565b6040518060400160405280601481526020017f4e6f204e65772050726f6a656374206164646564000000000000000000000000815250925050505b919050565b606060008060009054906101000a900473ffffffffffffffffffffffffffffffffffffffff1673ffffffffffffffffffffffffffffffffffffffff163373ffffffffffffffffffffffffffffffffffffffff161461126157600080fd5b600660009054906101000a900473ffffffffffffffffffffffffffffffffffffffff1673ffffffffffffffffffffffffffffffffffffffff166380d038e38686866040518463ffffffff1660e01b8152600401808060200180602001848152602001838103835286818151815260200191508051906020019080838360005b838110156112fb5780820151818401526020810190506112e0565b50505050905090810190601f1680156113285780820380516001836020036101000a031916815260200191505b50838103825285818151815260200191508051906020019080838360005b83811015611361578082015181840152602081019050611346565b50505050905090810190601f16801561138e5780820380516001836020036101000a031916815260200191505b5095505050505050600060405180830381600087803b1580156113b057600080fd5b505af11580156113c4573d6000803e3d6000fd5b505050506040513d6000823e3d601f19601f8201168201806040525060408110156113ee57600080fd5b810190808051604051939291908464010000000082111561140e57600080fd5b8382019150602082018581111561142457600080fd5b825186600182028301116401000000008211171561144157600080fd5b8083526020830192505050908051906020019080838360005b8381101561147557808201518184015260208101905061145a565b50505050905090810190601f1680156114a25780820380516001836020036101000a031916815260200191505b506040526020018051906020019092919050505091509150935093915050565b6060806060600080600360046005600660009054906101000a900473ffffffffffffffffffffffffffffffffffffffff16600960009054906101000a900473ffffffffffffffffffffffffffffffffffffffff16848054600181600116156101000203166002900480601f0160208091040260200160405190810160405280929190818152602001828054600181600116156101000203166002900480156115ab5780601f10611580576101008083540402835291602001916115ab565b820191906000526020600020905b81548152906001019060200180831161158e57829003601f168201915b50505050509450838054600181600116156101000203166002900480601f0160208091040260200160405190810160405280929190818152602001828054600181600116156101000203166002900480156116475780601f1061161c57610100808354040283529160200191611647565b820191906000526020600020905b81548152906001019060200180831161162a57829003601f168201915b50505050509350828054600181600116156101000203166002900480601f0160208091040260200160405190810160405280929190818152602001828054600181600116156101000203166002900480156116e35780601f106116b8576101008083540402835291602001916116e3565b820191906000526020600020905b8154815290600101906020018083116116c657829003601f168201915b50505050509250819150809050945094509450945094509091929394565b6060600080600880549050905060008090505b818110156119ab573373ffffffffffffffffffffffffffffffffffffffff16600760006008848154811061174457fe5b9060005260206000200154815260200190815260200160002060009054906101000a900473ffffffffffffffffffffffffffffffffffffffff1673ffffffffffffffffffffffffffffffffffffffff1614156119a057600a6040518061014001604052808981526020018881526020018781526020013373ffffffffffffffffffffffffffffffffffffffff16815260200160001515815260200160011515815260200160011515815260200160008152602001600081526020016000151581525090806001815401808255809150509060018203906000526020600020906008020160009091929091909150600082015181600001908051906020019061184d929190612191565b50602082015181600101908051906020019061186a929190612191565b506040820151816002015560608201518160030160006101000a81548173ffffffffffffffffffffffffffffffffffffffff021916908373ffffffffffffffffffffffffffffffffffffffff16021790555060808201518160030160146101000a81548160ff02191690831515021790555060a08201518160030160156101000a81548160ff02191690831515021790555060c08201518160030160166101000a81548160ff02191690831515021790555060e0820151816004015561010082015181600501556101208201518160070160006101000a81548160ff0219169083151502179055505050506001600a80549050036040518060400160405280600d81526020017f526571756573742041646465640000000000000000000000000000000000000081525090935093505050611a0d565b806001019050611714565b507fffffffffffffffffffffffffffffffffffffffffffffffffffffffffffffffff6040518060400160405280601481526020017f5265717565737420496e6170706c696361626c650000000000000000000000008152509080905092509250505b935093915050565b6000809054906101000a900473ffffffffffffffffffffffffffffffffffffffff1681565b60011515600160003373ffffffffffffffffffffffffffffffffffffffff1673ffffffffffffffffffffffffffffffffffffffff16815260200190815260200160002060009054906101000a900460ff16151514611a9757600080fd5b6000600a8381548110611aa657fe5b906000526020600020906008020190508060060160003373ffffffffffffffffffffffffffffffffffffffff1673ffffffffffffffffffffffffffffffffffffffff16815260200190815260200160002060009054906101000a900460ff1615611b0f57600080fd5b60018160060160003373ffffffffffffffffffffffffffffffffffffffff1673ffffffffffffffffffffffffffffffffffffffff16815260200190815260200160002060006101000a81548160ff02191690831515021790555080600401600081548092919060010191905055508115611b985780600501600081548092919060010191905055505b6000809054906101000a900473ffffffffffffffffffffffffffffffffffffffff1673ffffffffffffffffffffffffffffffffffffffff163373ffffffffffffffffffffffffffffffffffffffff161415611c0b5760018160070160006101000a81548160ff0219169083151502179055505b600115158160070160009054906101000a900460ff161515148015611c425750600a60025460070281611c3a57fe5b048160050154115b15611c865760008160030160156101000a81548160ff02191690831515021790555060018160030160146101000a81548160ff021916908315150217905550611ce2565b600a60025460030281611c9557fe5b04816005015482600401540310611ce15760008160030160156101000a81548160ff02191690831515021790555060008160030160146101000a81548160ff0219169083151502179055505b5b505050565b60011515600160003373ffffffffffffffffffffffffffffffffffffffff1673ffffffffffffffffffffffffffffffffffffffff16815260200190815260200160002060009054906101000a900460ff16151514611d4457600080fd5b60011515600160008373ffffffffffffffffffffffffffffffffffffffff1673ffffffffffffffffffffffffffffffffffffffff16815260200190815260200160002060009054906101000a900460ff1615151415611da257611e0c565b60018060008373ffffffffffffffffffffffffffffffffffffffff1673ffffffffffffffffffffffffffffffffffffffff16815260200190815260200160002060006101000a81548160ff0219169083151502179055506002600081548092919060010191905055505b50565b60008060009054906101000a900473ffffffffffffffffffffffffffffffffffffffff1673ffffffffffffffffffffffffffffffffffffffff163373ffffffffffffffffffffffffffffffffffffffff1614611e6a57600080fd5b6060849050600081511415611e7e57600080fd5b839050600081511415611e9057600080fd5b829050600081511415611ea257600080fd5b600960009054906101000a900473ffffffffffffffffffffffffffffffffffffffff1673ffffffffffffffffffffffffffffffffffffffff16630301b1d6868587336040518563ffffffff1660e01b8152600401808060200180602001806020018573ffffffffffffffffffffffffffffffffffffffff1673ffffffffffffffffffffffffffffffffffffffff168152602001848103845288818151815260200191508051906020019080838360005b83811015611f6d578082015181840152602081019050611f52565b50505050905090810190601f168015611f9a5780820380516001836020036101000a031916815260200191505b50848103835287818151815260200191508051906020019080838360005b83811015611fd3578082015181840152602081019050611fb8565b50505050905090810190601f1680156120005780820380516001836020036101000a031916815260200191505b50848103825286818151815260200191508051906020019080838360005b8381101561203957808201518184015260208101905061201e565b50505050905090810190601f1680156120665780820380516001836020036101000a031916815260200191505b50975050505050505050602060405180830381600087803b15801561208a57600080fd5b505af115801561209e573d6000803e3d6000fd5b505050506040513d60208110156120b457600080fd5b81019080805190602001909291905050509150509392505050565b6000806000600a84815481106120e157fe5b906000526020600020906008020190508060030160159054906101000a900460ff168160030160149054906101000a900460ff169250925050915091565b600081671bc16d674ec800000147111561213c5760019050612141565b600090505b919050565b8173ffffffffffffffffffffffffffffffffffffffff166108fc829081150290604051600060405180830381858888f1935050505015801561218c573d6000803e3d6000fd5b505050565b828054600181600116156101000203166002900490600052602060002090601f016020900481019282601f106121d257805160ff1916838001178555612200565b82800160010185558215612200579182015b828111156121ff5782518255916020019190600101906121e4565b5b50905061220d9190612211565b5090565b61223391905b8082111561222f576000816000905550600101612217565b5090565b9056fea265627a7a7231582057ef5b503442d5412c840aafa381b3b1290edeb905de2dc55b5729dcaf03865364736f6c63430005100032a265627a7a7231582037aaafda1280868fb42fa5f7792c2cd5d425ee499cce126b67edb5a47cc3c3ac64736f6c6343000510003260806040523480156200001157600080fd5b506040516200279638038062002796833981810160405260c08110156200003757600080fd5b81019080805160405193929190846401000000008211156200005857600080fd5b838201915060208201858111156200006f57600080fd5b82518660018202830111640100000000821117156200008d57600080fd5b8083526020830192505050908051906020019080838360005b83811015620000c3578082015181840152602081019050620000a6565b50505050905090810190601f168015620000f15780820380516001836020036101000a031916815260200191505b50604052602001805160405193929190846401000000008211156200011557600080fd5b838201915060208201858111156200012c57600080fd5b82518660018202830111640100000000821117156200014a57600080fd5b8083526020830192505050908051906020019080838360005b838110156200018057808201518184015260208101905062000163565b50505050905090810190601f168015620001ae5780820380516001836020036101000a031916815260200191505b5060405260200180516040519392919084640100000000821115620001d257600080fd5b83820191506020820185811115620001e957600080fd5b82518660018202830111640100000000821117156200020757600080fd5b8083526020830192505050908051906020019080838360005b838110156200023d57808201518184015260208101905062000220565b50505050905090810190601f1680156200026b5780820380516001836020036101000a031916815260200191505b50604052602001805190602001909291908051906020019092919080519060200190929190505050336000806101000a81548173ffffffffffffffffffffffffffffffffffffffff021916908373ffffffffffffffffffffffffffffffffffffffff16021790555060018060008060009054906101000a900473ffffffffffffffffffffffffffffffffffffffff1673ffffffffffffffffffffffffffffffffffffffff1673ffffffffffffffffffffffffffffffffffffffff16815260200190815260200160002060006101000a81548160ff0219169083151502179055506001600281905550826000806101000a81548173ffffffffffffffffffffffffffffffffffffffff021916908373ffffffffffffffffffffffffffffffffffffffff16021790555080600660006101000a81548173ffffffffffffffffffffffffffffffffffffffff021916908373ffffffffffffffffffffffffffffffffffffffff1602179055508560039080519060200190620003ec9291906200046c565b508460049080519060200190620004059291906200046c565b5083600590805190602001906200041e9291906200046c565b5081600960006101000a81548173ffffffffffffffffffffffffffffffffffffffff021916908373ffffffffffffffffffffffffffffffffffffffff1602179055505050505050506200051b565b828054600181600116156101000203166002900490600052602060002090601f016020900481019282601f10620004af57805160ff1916838001178555620004e0565b82800160010185558215620004e0579182015b82811115620004df578251825591602001919060010190620004c2565b5b509050620004ef9190620004f3565b5090565b6200051891905b8082111562000514576000816000905550600101620004fa565b5090565b90565b61226b806200052b6000396000f3fe6080604052600436106100f35760003560e01c80635b5287f91161008a578063a2b7a8c311610059578063a2b7a8c31461098e578063ac840db0146109d5578063de8f51d514610a26578063e2a50f7714610c30576100f3565b80635b5287f91461039757806367c897fe1461058057806380d038e31461074e5780638da5cb5b14610937576100f3565b806332a2c5d0116100c657806332a2c5d0146102245780634132327b1461027b5780634fea495414610292578063511482f1146102e3576100f3565b806303b2a739146100f5578063091df85f1461017057806312065fe01461019b57806321e19b49146101c6575b005b34801561010157600080fd5b5061012e6004803603602081101561011857600080fd5b8101908080359060200190929190505050610c8e565b604051808273ffffffffffffffffffffffffffffffffffffffff1673ffffffffffffffffffffffffffffffffffffffff16815260200191505060405180910390f35b34801561017c57600080fd5b50610185610cc1565b6040518082815260200191505060405180910390f35b3480156101a757600080fd5b506101b0610cc7565b6040518082815260200191505060405180910390f35b3480156101d257600080fd5b506101ff600480360360208110156101e957600080fd5b8101908080359060200190929190505050610ccf565b6040518083151515158152602001821515151581526020019250505060405180910390f35b34801561023057600080fd5b50610239610d92565b604051808273ffffffffffffffffffffffffffffffffffffffff1673ffffffffffffffffffffffffffffffffffffffff16815260200191505060405180910390f35b34801561028757600080fd5b50610290610d9a565b005b34801561029e57600080fd5b506102e1600480360360208110156102b557600080fd5b81019080803573ffffffffffffffffffffffffffffffffffffffff169060200190929190505050610f16565b005b3480156102ef57600080fd5b5061031c6004803603602081101561030657600080fd5b810190808035906020019092919050505061103b565b6040518080602001828103825283818151815260200191508051906020019080838360005b8381101561035c578082015181840152602081019050610341565b50505050905090810190601f1680156103895780820380516001836020036101000a031916815260200191505b509250505060405180910390f35b3480156103a357600080fd5b506104fe600480360360608110156103ba57600080fd5b81019080803590602001906401000000008111156103d757600080fd5b8201836020820111156103e957600080fd5b8035906020019184600183028401116401000000008311171561040b57600080fd5b91908080601f016020809104026020016040519081016040528093929190818152602001838380828437600081840152601f19601f8201169050808301925050505050505091929192908035906020019064010000000081111561046e57600080fd5b82018360208201111561048057600080fd5b803590602001918460018302840111640100000000831117156104a257600080fd5b91908080601f016020809104026020016040519081016040528093929190818152602001838380828437600081840152601f19601f82011690508083019250505050505050919291929080359060200190929190505050611204565b6040518080602001838152602001828103825284818151815260200191508051906020019080838360005b83811015610544578082015181840152602081019050610529565b50505050905090810190601f1680156105715780820380516001836020036101000a031916815260200191505b50935050505060405180910390f35b34801561058c57600080fd5b506105956114c2565b604051808060200180602001806020018673ffffffffffffffffffffffffffffffffffffffff1673ffffffffffffffffffffffffffffffffffffffff1681526020018573ffffffffffffffffffffffffffffffffffffffff1673ffffffffffffffffffffffffffffffffffffffff168152602001848103845289818151815260200191508051906020019080838360005b83811015610641578082015181840152602081019050610626565b50505050905090810190601f16801561066e5780820380516001836020036101000a031916815260200191505b50848103835288818151815260200191508051906020019080838360005b838110156106a757808201518184015260208101905061068c565b50505050905090810190601f1680156106d45780820380516001836020036101000a031916815260200191505b50848103825287818151815260200191508051906020019080838360005b8381101561070d5780820151818401526020810190506106f2565b50505050905090810190601f16801561073a5780820380516001836020036101000a031916815260200191505b509850505050505050505060405180910390f35b34801561075a57600080fd5b506108b56004803603606081101561077157600080fd5b810190808035906020019064010000000081111561078e57600080fd5b8201836020820111156107a057600080fd5b803590602001918460018302840111640100000000831117156107c257600080fd5b91908080601f016020809104026020016040519081016040528093929190818152602001838380828437600081840152601f19601f8201169050808301925050505050505091929192908035906020019064010000000081111561082557600080fd5b82018360208201111561083757600080fd5b8035906020019184600183028401116401000000008311171561085957600080fd5b91908080601f016020809104026020016040519081016040528093929190818152602001838380828437600081840152601f19601f82011690508083019250505050505050919291929080359060200190929190505050611701565b6040518080602001838152602001828103825284818151815260200191508051906020019080838360005b838110156108fb5780820151818401526020810190506108e0565b50505050905090810190601f1680156109285780820380516001836020036101000a031916815260200191505b50935050505060405180910390f35b34801561094357600080fd5b5061094c611a15565b604051808273ffffffffffffffffffffffffffffffffffffffff1673ffffffffffffffffffffffffffffffffffffffff16815260200191505060405180910390f35b34801561099a57600080fd5b506109d3600480360360408110156109b157600080fd5b8101908080359060200190929190803515159060200190929190505050611a3a565b005b3480156109e157600080fd5b50610a24600480360360208110156109f857600080fd5b81019080803573ffffffffffffffffffffffffffffffffffffffff169060200190929190505050611ce7565b005b348015610a3257600080fd5b50610c1a60048036036060811015610a4957600080fd5b8101908080359060200190640100000000811115610a6657600080fd5b820183602082011115610a7857600080fd5b80359060200191846001830284011164010000000083111715610a9a57600080fd5b91908080601f016020809104026020016040519081016040528093929190818152602001838380828437600081840152601f19601f82011690508083019250505050505050919291929080359060200190640100000000811115610afd57600080fd5b820183602082011115610b0f57600080fd5b80359060200191846001830284011164010000000083111715610b3157600080fd5b91908080601f016020809104026020016040519081016040528093929190818152602001838380828437600081840152601f19601f82011690508083019250505050505050919291929080359060200190640100000000811115610b9457600080fd5b820183602082011115610ba657600080fd5b80359060200191846001830284011164010000000083111715610bc857600080fd5b91908080601f016020809104026020016040519081016040528093929190818152602001838380828437600081840152601f19601f820116905080830192505050505050509192919290505050611e0f565b6040518082815260200191505060405180910390f35b348015610c3c57600080fd5b50610c6960048036036020811015610c5357600080fd5b81019080803590602001909291905050506120cf565b6040518083151515158152602001821515151581526020019250505060405180910390f35b60076020528060005260406000206000915054906101000a900473ffffffffffffffffffffffffffffffffffffffff1681565b60025481565b600047905090565b600080600660009054906101000a900473ffffffffffffffffffffffffffffffffffffffff1673ffffffffffffffffffffffffffffffffffffffff1663e2a50f77846040518263ffffffff1660e01b815260040180828152602001915050604080518083038186803b158015610d4457600080fd5b505afa158015610d58573d6000803e3d6000fd5b505050506040513d6040811015610d6e57600080fd5b81019080805190602001909291908051906020019092919050505091509150915091565b600030905090565b6000809054906101000a900473ffffffffffffffffffffffffffffffffffffffff1673ffffffffffffffffffffffffffffffffffffffff163373ffffffffffffffffffffffffffffffffffffffff1614610df357600080fd5b6000671bc16d674ec800009050600080600a80549050905060008090505b81811015610f10576000600a8281548110610e2857fe5b906000526020600020906008020190508060030160169054906101000a900460ff168015610e6457508060030160149054906101000a900460ff165b15610f045784816002015410610e7a5784610e80565b80600201545b9350610e8b8461211f565b15610efd57610ebe8160030160009054906101000a900473ffffffffffffffffffffffffffffffffffffffff1685612146565b838160020154038160020181905550600081600201541415610ef85760008160030160166101000a81548160ff0219169083151502179055505b610f03565b50610f10565b5b50806001019050610e11565b50505050565b60011515600160003373ffffffffffffffffffffffffffffffffffffffff1673ffffffffffffffffffffffffffffffffffffffff16815260200190815260200160002060009054906101000a900460ff16151514610f7357600080fd5b60011515600160008373ffffffffffffffffffffffffffffffffffffffff1673ffffffffffffffffffffffffffffffffffffffff16815260200190815260200160002060009054906101000a900460ff1615151415611038576000600160008373ffffffffffffffffffffffffffffffffffffffff1673ffffffffffffffffffffffffffffffffffffffff16815260200190815260200160002060006101000a81548160ff021916908315150217905550600260008154809291906001900391905055505b50565b6060600080600960009054906101000a900473ffffffffffffffffffffffffffffffffffffffff1673ffffffffffffffffffffffffffffffffffffffff1663511482f1856040518263ffffffff1660e01b8152600401808281526020019150506040805180830381600087803b1580156110b457600080fd5b505af11580156110c8573d6000803e3d6000fd5b505050506040513d60408110156110de57600080fd5b810190808051906020019092919080519060200190929190505050809250819350505081156111c457806007600086815260200190815260200160002060006101000a81548173ffffffffffffffffffffffffffffffffffffffff021916908373ffffffffffffffffffffffffffffffffffffffff16021790555060088490806001815401808255809150509060018203906000526020600020016000909192909190915055506040518060400160405280601181526020017f4e65772050726f6a656374204164646564000000000000000000000000000000815250925050506111ff565b6040518060400160405280601481526020017f4e6f204e65772050726f6a656374206164646564000000000000000000000000815250925050505b919050565b606060008060009054906101000a900473ffffffffffffffffffffffffffffffffffffffff1673ffffffffffffffffffffffffffffffffffffffff163373ffffffffffffffffffffffffffffffffffffffff161461126157600080fd5b600660009054906101000a900473ffffffffffffffffffffffffffffffffffffffff1673ffffffffffffffffffffffffffffffffffffffff166380d038e38686866040518463ffffffff1660e01b8152600401808060200180602001848152602001838103835286818151815260200191508051906020019080838360005b838110156112fb5780820151818401526020810190506112e0565b50505050905090810190601f1680156113285780820380516001836020036101000a031916815260200191505b50838103825285818151815260200191508051906020019080838360005b83811015611361578082015181840152602081019050611346565b50505050905090810190601f16801561138e5780820380516001836020036101000a031916815260200191505b5095505050505050600060405180830381600087803b1580156113b057600080fd5b505af11580156113c4573d6000803e3d6000fd5b505050506040513d6000823e3d601f19601f8201168201806040525060408110156113ee57600080fd5b810190808051604051939291908464010000000082111561140e57600080fd5b8382019150602082018581111561142457600080fd5b825186600182028301116401000000008211171561144157600080fd5b8083526020830192505050908051906020019080838360005b8381101561147557808201518184015260208101905061145a565b50505050905090810190601f1680156114a25780820380516001836020036101000a031916815260200191505b506040526020018051906020019092919050505091509150935093915050565b6060806060600080600360046005600660009054906101000a900473ffffffffffffffffffffffffffffffffffffffff16600960009054906101000a900473ffffffffffffffffffffffffffffffffffffffff16848054600181600116156101000203166002900480601f0160208091040260200160405190810160405280929190818152602001828054600181600116156101000203166002900480156115ab5780601f10611580576101008083540402835291602001916115ab565b820191906000526020600020905b81548152906001019060200180831161158e57829003601f168201915b50505050509450838054600181600116156101000203166002900480601f0160208091040260200160405190810160405280929190818152602001828054600181600116156101000203166002900480156116475780601f1061161c57610100808354040283529160200191611647565b820191906000526020600020905b81548152906001019060200180831161162a57829003601f168201915b50505050509350828054600181600116156101000203166002900480601f0160208091040260200160405190810160405280929190818152602001828054600181600116156101000203166002900480156116e35780601f106116b8576101008083540402835291602001916116e3565b820191906000526020600020905b8154815290600101906020018083116116c657829003601f168201915b50505050509250819150809050945094509450945094509091929394565b6060600080600880549050905060008090505b818110156119ab573373ffffffffffffffffffffffffffffffffffffffff16600760006008848154811061174457fe5b9060005260206000200154815260200190815260200160002060009054906101000a900473ffffffffffffffffffffffffffffffffffffffff1673ffffffffffffffffffffffffffffffffffffffff1614156119a057600a6040518061014001604052808981526020018881526020018781526020013373ffffffffffffffffffffffffffffffffffffffff16815260200160001515815260200160011515815260200160011515815260200160008152602001600081526020016000151581525090806001815401808255809150509060018203906000526020600020906008020160009091929091909150600082015181600001908051906020019061184d929190612191565b50602082015181600101908051906020019061186a929190612191565b506040820151816002015560608201518160030160006101000a81548173ffffffffffffffffffffffffffffffffffffffff021916908373ffffffffffffffffffffffffffffffffffffffff16021790555060808201518160030160146101000a81548160ff02191690831515021790555060a08201518160030160156101000a81548160ff02191690831515021790555060c08201518160030160166101000a81548160ff02191690831515021790555060e0820151816004015561010082015181600501556101208201518160070160006101000a81548160ff0219169083151502179055505050506001600a80549050036040518060400160405280600d81526020017f526571756573742041646465640000000000000000000000000000000000000081525090935093505050611a0d565b806001019050611714565b507fffffffffffffffffffffffffffffffffffffffffffffffffffffffffffffffff6040518060400160405280601481526020017f5265717565737420496e6170706c696361626c650000000000000000000000008152509080905092509250505b935093915050565b6000809054906101000a900473ffffffffffffffffffffffffffffffffffffffff1681565b60011515600160003373ffffffffffffffffffffffffffffffffffffffff1673ffffffffffffffffffffffffffffffffffffffff16815260200190815260200160002060009054906101000a900460ff16151514611a9757600080fd5b6000600a8381548110611aa657fe5b906000526020600020906008020190508060060160003373ffffffffffffffffffffffffffffffffffffffff1673ffffffffffffffffffffffffffffffffffffffff16815260200190815260200160002060009054906101000a900460ff1615611b0f57600080fd5b60018160060160003373ffffffffffffffffffffffffffffffffffffffff1673ffffffffffffffffffffffffffffffffffffffff16815260200190815260200160002060006101000a81548160ff02191690831515021790555080600401600081548092919060010191905055508115611b985780600501600081548092919060010191905055505b6000809054906101000a900473ffffffffffffffffffffffffffffffffffffffff1673ffffffffffffffffffffffffffffffffffffffff163373ffffffffffffffffffffffffffffffffffffffff161415611c0b5760018160070160006101000a81548160ff0219169083151502179055505b600115158160070160009054906101000a900460ff161515148015611c425750600a60025460070281611c3a57fe5b048160050154115b15611c865760008160030160156101000a81548160ff02191690831515021790555060018160030160146101000a81548160ff021916908315150217905550611ce2565b600a60025460030281611c9557fe5b04816005015482600401540310611ce15760008160030160156101000a81548160ff02191690831515021790555060008160030160146101000a81548160ff0219169083151502179055505b5b505050565b60011515600160003373ffffffffffffffffffffffffffffffffffffffff1673ffffffffffffffffffffffffffffffffffffffff16815260200190815260200160002060009054906101000a900460ff16151514611d4457600080fd5b60011515600160008373ffffffffffffffffffffffffffffffffffffffff1673ffffffffffffffffffffffffffffffffffffffff16815260200190815260200160002060009054906101000a900460ff1615151415611da257611e0c565b60018060008373ffffffffffffffffffffffffffffffffffffffff1673ffffffffffffffffffffffffffffffffffffffff16815260200190815260200160002060006101000a81548160ff0219169083151502179055506002600081548092919060010191905055505b50565b60008060009054906101000a900473ffffffffffffffffffffffffffffffffffffffff1673ffffffffffffffffffffffffffffffffffffffff163373ffffffffffffffffffffffffffffffffffffffff1614611e6a57600080fd5b6060849050600081511415611e7e57600080fd5b839050600081511415611e9057600080fd5b829050600081511415611ea257600080fd5b600960009054906101000a900473ffffffffffffffffffffffffffffffffffffffff1673ffffffffffffffffffffffffffffffffffffffff16630301b1d6868587336040518563ffffffff1660e01b8152600401808060200180602001806020018573ffffffffffffffffffffffffffffffffffffffff1673ffffffffffffffffffffffffffffffffffffffff168152602001848103845288818151815260200191508051906020019080838360005b83811015611f6d578082015181840152602081019050611f52565b50505050905090810190601f168015611f9a5780820380516001836020036101000a031916815260200191505b50848103835287818151815260200191508051906020019080838360005b83811015611fd3578082015181840152602081019050611fb8565b50505050905090810190601f1680156120005780820380516001836020036101000a031916815260200191505b50848103825286818151815260200191508051906020019080838360005b8381101561203957808201518184015260208101905061201e565b50505050905090810190601f1680156120665780820380516001836020036101000a031916815260200191505b50975050505050505050602060405180830381600087803b15801561208a57600080fd5b505af115801561209e573d6000803e3d6000fd5b505050506040513d60208110156120b457600080fd5b81019080805190602001909291905050509150509392505050565b6000806000600a84815481106120e157fe5b906000526020600020906008020190508060030160159054906101000a900460ff168160030160149054906101000a900460ff169250925050915091565b600081671bc16d674ec800000147111561213c5760019050612141565b600090505b919050565b8173ffffffffffffffffffffffffffffffffffffffff166108fc829081150290604051600060405180830381858888f1935050505015801561218c573d6000803e3d6000fd5b505050565b828054600181600116156101000203166002900490600052602060002090601f016020900481019282601f106121d257805160ff1916838001178555612200565b82800160010185558215612200579182015b828111156121ff5782518255916020019190600101906121e4565b5b50905061220d9190612211565b5090565b61223391905b8082111561222f576000816000905550600101612217565b5090565b9056fea265627a7a7231582057ef5b503442d5412c840aafa381b3b1290edeb905de2dc55b5729dcaf03865364736f6c63430005100032",
  "source": "pragma solidity ^0.5.16;\r\n\r\nimport \"./Official.sol\";\r\nimport \"./Project.sol\";\r\n\r\ncontract Central_Authority is Official{\r\n\r\n    struct Project_Request{\r\n        string Project_name;\r\n        string document_url;\r\n        string purpose;\r\n        address official_incharge;\r\n        address payable parent_project;\r\n        bool isComplete;\r\n        uint voters;//this will keep count of positive vote count only\r\n        mapping(address=>bool) voted_officials;\r\n    }\r\n\r\n    function createProject(Project_Request memory _request, uint _token) private returns (address payable) {\r\n        Project newProject = new Project(_request.Project_name,_request.document_url,_request.purpose,_request.official_incharge,address(this),_request.parent_project);\r\n        deployedProjectsAddresses[_token] = address(newProject);\r\n        return deployedProjectsAddresses[_token];\r\n    }\r\n\r\n    mapping(uint => Project_Request) requestedProjects;//mapping from token to project address \r\n    mapping(uint => address payable) public deployedProjectsAddresses; // may become costly otherwise, shouldnt overload blockchain\r\n    uint token;\r\n\r\n    constructor() public {\r\n        Project_Request memory request = Project_Request({\r\n            Project_name:\"Central_Authority\",\r\n            document_url:\"\",\r\n            purpose:'',\r\n            official_incharge:owner,\r\n            parent_project:address(this), // had to be a payable address\r\n            isComplete:true,\r\n            voters:0\r\n        });\r\n        createProject(request, 0);        \r\n    }\r\n    \r\n    function() external payable {}\r\n    \r\n    function addNewProjectRequest(string memory _Project_name,string memory _document_url,string memory _purpose, address _official_incharge) public returns (uint) {\r\n        //In this function we will make the struct of current request and add that to the list of requestedProjects[]\r\n        \r\n        Project_Request memory new_request = Project_Request({\r\n            Project_name:_Project_name,\r\n            document_url:_document_url,\r\n            purpose:_purpose,\r\n            official_incharge:_official_incharge,\r\n            parent_project:msg.sender,\r\n            isComplete:false,\r\n            voters:0\r\n        });\r\n\r\n        requestedProjects[token] = new_request;\r\n        token++;\r\n        return token-1;\r\n    }\r\n\r\n    //here index reassemble token\r\n    function voteForProject(uint _index,bool _decision) public officialOnly {\r\n        Project_Request storage request = requestedProjects[_index];\r\n        \r\n        require(!request.voted_officials[msg.sender]);//the person has not voted so far\r\n        \r\n        request.voted_officials[msg.sender]=true;\r\n        if(_decision)\r\n            request.voters++;\r\n    }\r\n    \r\n    function verifyPending_Projects(uint _token) public returns(bool, address payable){\r\n\r\n        require(_token>=1 && _token<token); // checking token validity\r\n    \r\n        Project_Request storage request = requestedProjects[_token];\r\n\r\n        require(request.parent_project == msg.sender);\r\n\r\n        address payable projectAddress;\r\n\r\n        if(request.voters >= total_officals && !request.isComplete) { //currently it requires all of the officials to vote in favour\r\n            \r\n            projectAddress = createProject(request, _token);\r\n            request.isComplete = true;\r\n            return (true, projectAddress);\r\n        }\r\n        \r\n        return (false, projectAddress);\r\n    }\r\n\r\n    function grantFundsToCentralProject(uint _amount) public ownerOnly {\r\n        deployedProjectsAddresses[0].transfer(_amount); \r\n        // call event;\r\n    }\r\n}",
  "sourcePath": "E:\\MAJOR PROJECT\\Blockchain\\contracts\\Central_Authority.sol",
  "compiler": {
    "name": "solc",
    "version": "0.5.16+commit.9c3226ce.Emscripten.clang"
  },
  "schemaVersion": "3.3.3",
  "updatedAt": "2021-04-20T09:26:01.568Z",
  "networkType": "ethereum",
  "devdoc": {
    "methods": {}
  },
  "userdoc": {
    "methods": {}
  }
}