{
  "contractName": "Central_Authority",
  "abi": [
    {
      "inputs": [],
      "payable": false,
      "stateMutability": "nonpayable",
      "type": "constructor"
    },
    {
      "payable": true,
      "stateMutability": "payable",
      "type": "fallback"
    },
    {
      "constant": false,
      "inputs": [
        {
          "internalType": "address",
          "name": "_add",
          "type": "address"
        }
      ],
      "name": "addOfficial",
      "outputs": [],
      "payable": false,
      "stateMutability": "nonpayable",
      "type": "function"
    },
    {
      "constant": true,
      "inputs": [],
      "name": "central",
      "outputs": [
        {
          "internalType": "contract Project",
          "name": "",
          "type": "address"
        }
      ],
      "payable": false,
      "stateMutability": "view",
      "type": "function"
    },
    {
      "constant": true,
      "inputs": [
        {
          "internalType": "uint256",
          "name": "",
          "type": "uint256"
        }
      ],
      "name": "deployedProjectsAddresses",
      "outputs": [
        {
          "internalType": "address",
          "name": "",
          "type": "address"
        }
      ],
      "payable": false,
      "stateMutability": "view",
      "type": "function"
    },
    {
      "constant": true,
      "inputs": [],
      "name": "getBalance",
      "outputs": [
        {
          "internalType": "uint256",
          "name": "",
          "type": "uint256"
        }
      ],
      "payable": false,
      "stateMutability": "view",
      "type": "function"
    },
    {
      "constant": true,
      "inputs": [],
      "name": "getContractAddress",
      "outputs": [
        {
          "internalType": "address",
          "name": "",
          "type": "address"
        }
      ],
      "payable": false,
      "stateMutability": "view",
      "type": "function"
    },
    {
      "constant": true,
      "inputs": [],
      "name": "owner",
      "outputs": [
        {
          "internalType": "address",
          "name": "",
          "type": "address"
        }
      ],
      "payable": false,
      "stateMutability": "view",
      "type": "function"
    },
    {
      "constant": false,
      "inputs": [
        {
          "internalType": "address",
          "name": "_add",
          "type": "address"
        }
      ],
      "name": "removeOfficial",
      "outputs": [],
      "payable": false,
      "stateMutability": "nonpayable",
      "type": "function"
    },
    {
      "constant": true,
      "inputs": [],
      "name": "total_officals",
      "outputs": [
        {
          "internalType": "uint256",
          "name": "",
          "type": "uint256"
        }
      ],
      "payable": false,
      "stateMutability": "view",
      "type": "function"
    },
    {
      "constant": false,
      "inputs": [
        {
          "internalType": "string",
          "name": "_Project_name",
          "type": "string"
        },
        {
          "internalType": "string",
          "name": "_document_url",
          "type": "string"
        },
        {
          "internalType": "string",
          "name": "_purpose",
          "type": "string"
        },
        {
          "internalType": "address",
          "name": "_official_incharge",
          "type": "address"
        }
      ],
      "name": "addNewProjectRequest",
      "outputs": [
        {
          "internalType": "uint256",
          "name": "",
          "type": "uint256"
        }
      ],
      "payable": false,
      "stateMutability": "nonpayable",
      "type": "function"
    },
    {
      "constant": false,
      "inputs": [
        {
          "internalType": "uint256",
          "name": "_index",
          "type": "uint256"
        },
        {
          "internalType": "bool",
          "name": "_decision",
          "type": "bool"
        }
      ],
      "name": "voteForProject",
      "outputs": [],
      "payable": false,
      "stateMutability": "nonpayable",
      "type": "function"
    },
    {
      "constant": false,
      "inputs": [
        {
          "internalType": "uint256",
          "name": "_token",
          "type": "uint256"
        }
      ],
      "name": "verifyPending_Projects",
      "outputs": [
        {
          "internalType": "contract Project",
          "name": "",
          "type": "address"
        }
      ],
      "payable": false,
      "stateMutability": "nonpayable",
      "type": "function"
    },
    {
      "constant": false,
      "inputs": [
        {
          "internalType": "uint256",
          "name": "_amount",
          "type": "uint256"
        }
      ],
      "name": "grantFundsToCentralProject",
      "outputs": [],
      "payable": false,
      "stateMutability": "nonpayable",
      "type": "function"
    }
  ],
  "bytecode": "0x60806040523480156200001157600080fd5b50336000806101000a81548173ffffffffffffffffffffffffffffffffffffffff021916908373ffffffffffffffffffffffffffffffffffffffff16021790555060018060008060009054906101000a900473ffffffffffffffffffffffffffffffffffffffff1673ffffffffffffffffffffffffffffffffffffffff1673ffffffffffffffffffffffffffffffffffffffff16815260200190815260200160002060006101000a81548160ff0219169083151502179055506001600281905550620000dc6200054a565b6040518060e001604052806040518060400160405280601181526020017f43656e7472616c5f417574686f7269747900000000000000000000000000000081525081526020016040518060200160405280600081525081526020016040518060200160405280600081525081526020016000809054906101000a900473ffffffffffffffffffffffffffffffffffffffff1673ffffffffffffffffffffffffffffffffffffffff1681526020013073ffffffffffffffffffffffffffffffffffffffff168152602001600115158152602001600081525090506001600781905550620001ce816200030d60201b60201c565b600360006101000a81548173ffffffffffffffffffffffffffffffffffffffff021916908373ffffffffffffffffffffffffffffffffffffffff1602179055506000809054906101000a900473ffffffffffffffffffffffffffffffffffffffff16306040516200023f90620005b5565b808373ffffffffffffffffffffffffffffffffffffffff1673ffffffffffffffffffffffffffffffffffffffff1681526020018273ffffffffffffffffffffffffffffffffffffffff1673ffffffffffffffffffffffffffffffffffffffff16815260200192505050604051809103906000f080158015620002c5573d6000803e3d6000fd5b50600460006101000a81548173ffffffffffffffffffffffffffffffffffffffff021916908373ffffffffffffffffffffffffffffffffffffffff16021790555050620005d1565b60008082600001518360200151846040015185606001513087608001516040516200033890620005c3565b808060200180602001806020018773ffffffffffffffffffffffffffffffffffffffff1673ffffffffffffffffffffffffffffffffffffffff1681526020018673ffffffffffffffffffffffffffffffffffffffff1673ffffffffffffffffffffffffffffffffffffffff1681526020018573ffffffffffffffffffffffffffffffffffffffff1673ffffffffffffffffffffffffffffffffffffffff16815260200184810384528a818151815260200191508051906020019080838360005b8381101562000415578082015181840152602081019050620003f8565b50505050905090810190601f168015620004435780820380516001836020036101000a031916815260200191505b50848103835289818151815260200191508051906020019080838360005b838110156200047e57808201518184015260208101905062000461565b50505050905090810190601f168015620004ac5780820380516001836020036101000a031916815260200191505b50848103825288818151815260200191508051906020019080838360005b83811015620004e7578082015181840152602081019050620004ca565b50505050905090810190601f168015620005155780820380516001836020036101000a031916815260200191505b509950505050505050505050604051809103906000f0801580156200053e573d6000803e3d6000fd5b50905080915050919050565b6040518060e00160405280606081526020016060815260200160608152602001600073ffffffffffffffffffffffffffffffffffffffff168152602001600073ffffffffffffffffffffffffffffffffffffffff168152602001600015158152602001600081525090565b611b0a806200422d83390190565b6127598062005d3783390190565b613c4c80620005e16000396000f3fe608060405260043610620000b65760003560e01c80634fea4954116200006d5780634fea4954146200046f578063511482f114620004c45780638da5cb5b1462000543578063ac840db0146200059d578063b7826af814620005f2578063c322c2f6146200064c57620000b6565b80630278d41d14620000b85780630301b1d61462000137578063091df85f146200036e57806312065fe0146200039c57806332a2c5d014620003ca5780633f0d66b41462000424575b005b348015620000c557600080fd5b50620000f560048036036020811015620000de57600080fd5b81019080803590602001909291905050506200068b565b604051808273ffffffffffffffffffffffffffffffffffffffff1673ffffffffffffffffffffffffffffffffffffffff16815260200191505060405180910390f35b3480156200014457600080fd5b5062000358600480360360808110156200015d57600080fd5b81019080803590602001906401000000008111156200017b57600080fd5b8201836020820111156200018e57600080fd5b80359060200191846001830284011164010000000083111715620001b157600080fd5b91908080601f016020809104026020016040519081016040528093929190818152602001838380828437600081840152601f19601f820116905080830192505050505050509192919290803590602001906401000000008111156200021557600080fd5b8201836020820111156200022857600080fd5b803590602001918460018302840111640100000000831117156200024b57600080fd5b91908080601f016020809104026020016040519081016040528093929190818152602001838380828437600081840152601f19601f82011690508083019250505050505050919291929080359060200190640100000000811115620002af57600080fd5b820183602082011115620002c257600080fd5b80359060200191846001830284011164010000000083111715620002e557600080fd5b91908080601f016020809104026020016040519081016040528093929190818152602001838380828437600081840152601f19601f820116905080830192505050505050509192919290803573ffffffffffffffffffffffffffffffffffffffff169060200190929190505050620006be565b6040518082815260200191505060405180910390f35b3480156200037b57600080fd5b506200038662000880565b6040518082815260200191505060405180910390f35b348015620003a957600080fd5b50620003b462000886565b6040518082815260200191505060405180910390f35b348015620003d757600080fd5b50620003e26200088e565b604051808273ffffffffffffffffffffffffffffffffffffffff1673ffffffffffffffffffffffffffffffffffffffff16815260200191505060405180910390f35b3480156200043157600080fd5b506200046d600480360360408110156200044a57600080fd5b810190808035906020019092919080351515906020019092919050505062000896565b005b3480156200047c57600080fd5b50620004c2600480360360208110156200049557600080fd5b81019080803573ffffffffffffffffffffffffffffffffffffffff169060200190929190505050620009e0565b005b348015620004d157600080fd5b506200050160048036036020811015620004ea57600080fd5b810190808035906020019092919050505062000b07565b604051808273ffffffffffffffffffffffffffffffffffffffff1673ffffffffffffffffffffffffffffffffffffffff16815260200191505060405180910390f35b3480156200055057600080fd5b506200055b62000f1c565b604051808273ffffffffffffffffffffffffffffffffffffffff1673ffffffffffffffffffffffffffffffffffffffff16815260200191505060405180910390f35b348015620005aa57600080fd5b50620005f060048036036020811015620005c357600080fd5b81019080803573ffffffffffffffffffffffffffffffffffffffff16906020019092919050505062000f41565b005b348015620005ff57600080fd5b506200060a6200106c565b604051808273ffffffffffffffffffffffffffffffffffffffff1673ffffffffffffffffffffffffffffffffffffffff16815260200191505060405180910390f35b3480156200065957600080fd5b5062000689600480360360208110156200067257600080fd5b810190808035906020019092919050505062001092565b005b60066020528060005260406000206000915054906101000a900473ffffffffffffffffffffffffffffffffffffffff1681565b6000620006ca62001396565b6040518060e001604052808781526020018681526020018581526020018473ffffffffffffffffffffffffffffffffffffffff1681526020013373ffffffffffffffffffffffffffffffffffffffff168152602001600015158152602001600081525090508060056000600754815260200190815260200160002060008201518160000190805190602001906200076392919062001401565b5060208201518160010190805190602001906200078292919062001401565b506040820151816002019080519060200190620007a192919062001401565b5060608201518160030160006101000a81548173ffffffffffffffffffffffffffffffffffffffff021916908373ffffffffffffffffffffffffffffffffffffffff16021790555060808201518160040160006101000a81548173ffffffffffffffffffffffffffffffffffffffff021916908373ffffffffffffffffffffffffffffffffffffffff16021790555060a08201518160040160146101000a81548160ff02191690831515021790555060c08201518160050155905050600760008154809291906001019190505550600160075403915050949350505050565b60025481565b600047905090565b600030905090565b60011515600160003373ffffffffffffffffffffffffffffffffffffffff1673ffffffffffffffffffffffffffffffffffffffff16815260200190815260200160002060009054906101000a900460ff16151514620008f457600080fd5b60006005600084815260200190815260200160002090508060060160003373ffffffffffffffffffffffffffffffffffffffff1673ffffffffffffffffffffffffffffffffffffffff16815260200190815260200160002060009054906101000a900460ff16156200096557600080fd5b60018160060160003373ffffffffffffffffffffffffffffffffffffffff1673ffffffffffffffffffffffffffffffffffffffff16815260200190815260200160002060006101000a81548160ff0219169083151502179055508115620009db5780600501600081548092919060010191905055505b505050565b60011515600160003373ffffffffffffffffffffffffffffffffffffffff1673ffffffffffffffffffffffffffffffffffffffff16815260200190815260200160002060009054906101000a900460ff1615151462000a3e57600080fd5b60011515600160008373ffffffffffffffffffffffffffffffffffffffff1673ffffffffffffffffffffffffffffffffffffffff16815260200190815260200160002060009054906101000a900460ff161515141562000b04576000600160008373ffffffffffffffffffffffffffffffffffffffff1673ffffffffffffffffffffffffffffffffffffffff16815260200190815260200160002060006101000a81548160ff021916908315150217905550600260008154809291906001900391905055505b50565b60006001821015801562000b1c575060075482105b62000b2657600080fd5b6000806005600085815260200190815260200160002090503373ffffffffffffffffffffffffffffffffffffffff168160040160009054906101000a900473ffffffffffffffffffffffffffffffffffffffff1673ffffffffffffffffffffffffffffffffffffffff161462000b9b57600080fd5b60025481600501541015801562000bc157508060040160149054906101000a900460ff16155b1562000f125762000ea0816040518060e0016040529081600082018054600181600116156101000203166002900480601f01602080910402602001604051908101604052809291908181526020018280546001816001161561010002031660029004801562000c745780601f1062000c485761010080835404028352916020019162000c74565b820191906000526020600020905b81548152906001019060200180831162000c5657829003601f168201915b50505050508152602001600182018054600181600116156101000203166002900480601f01602080910402602001604051908101604052809291908181526020018280546001816001161561010002031660029004801562000d1a5780601f1062000cee5761010080835404028352916020019162000d1a565b820191906000526020600020905b81548152906001019060200180831162000cfc57829003601f168201915b50505050508152602001600282018054600181600116156101000203166002900480601f01602080910402602001604051908101604052809291908181526020018280546001816001161561010002031660029004801562000dc05780601f1062000d945761010080835404028352916020019162000dc0565b820191906000526020600020905b81548152906001019060200180831162000da257829003601f168201915b505050505081526020016003820160009054906101000a900473ffffffffffffffffffffffffffffffffffffffff1673ffffffffffffffffffffffffffffffffffffffff1673ffffffffffffffffffffffffffffffffffffffff1681526020016004820160009054906101000a900473ffffffffffffffffffffffffffffffffffffffff1673ffffffffffffffffffffffffffffffffffffffff1673ffffffffffffffffffffffffffffffffffffffff1681526020016004820160149054906101000a900460ff1615151515815260200160058201548152505062001159565b915060018160040160146101000a81548160ff021916908315150217905550816006600086815260200190815260200160002060006101000a81548173ffffffffffffffffffffffffffffffffffffffff021916908373ffffffffffffffffffffffffffffffffffffffff1602179055505b8192505050919050565b6000809054906101000a900473ffffffffffffffffffffffffffffffffffffffff1681565b60011515600160003373ffffffffffffffffffffffffffffffffffffffff1673ffffffffffffffffffffffffffffffffffffffff16815260200190815260200160002060009054906101000a900460ff1615151462000f9f57600080fd5b60011515600160008373ffffffffffffffffffffffffffffffffffffffff1673ffffffffffffffffffffffffffffffffffffffff16815260200190815260200160002060009054906101000a900460ff161515141562000fff5762001069565b60018060008373ffffffffffffffffffffffffffffffffffffffff1673ffffffffffffffffffffffffffffffffffffffff16815260200190815260200160002060006101000a81548160ff0219169083151502179055506002600081548092919060010191905055505b50565b600360009054906101000a900473ffffffffffffffffffffffffffffffffffffffff1681565b6000809054906101000a900473ffffffffffffffffffffffffffffffffffffffff1673ffffffffffffffffffffffffffffffffffffffff163373ffffffffffffffffffffffffffffffffffffffff1614620010ec57600080fd5b600360009054906101000a900473ffffffffffffffffffffffffffffffffffffffff1673ffffffffffffffffffffffffffffffffffffffff166108fc829081150290604051600060405180830381858888f1935050505015801562001155573d6000803e3d6000fd5b5050565b6000808260000151836020015184604001518560600151308760800151604051620011849062001488565b808060200180602001806020018773ffffffffffffffffffffffffffffffffffffffff1673ffffffffffffffffffffffffffffffffffffffff1681526020018673ffffffffffffffffffffffffffffffffffffffff1673ffffffffffffffffffffffffffffffffffffffff1681526020018573ffffffffffffffffffffffffffffffffffffffff1673ffffffffffffffffffffffffffffffffffffffff16815260200184810384528a818151815260200191508051906020019080838360005b838110156200126157808201518184015260208101905062001244565b50505050905090810190601f1680156200128f5780820380516001836020036101000a031916815260200191505b50848103835289818151815260200191508051906020019080838360005b83811015620012ca578082015181840152602081019050620012ad565b50505050905090810190601f168015620012f85780820380516001836020036101000a031916815260200191505b50848103825288818151815260200191508051906020019080838360005b838110156200133357808201518184015260208101905062001316565b50505050905090810190601f168015620013615780820380516001836020036101000a031916815260200191505b509950505050505050505050604051809103906000f0801580156200138a573d6000803e3d6000fd5b50905080915050919050565b6040518060e00160405280606081526020016060815260200160608152602001600073ffffffffffffffffffffffffffffffffffffffff168152602001600073ffffffffffffffffffffffffffffffffffffffff168152602001600015158152602001600081525090565b828054600181600116156101000203166002900490600052602060002090601f016020900481019282601f106200144457805160ff191683800117855562001475565b8280016001018555821562001475579182015b828111156200147457825182559160200191906001019062001457565b5b50905062001484919062001496565b5090565b61275980620014bf83390190565b620014bb91905b80821115620014b75760008160009055506001016200149d565b5090565b9056fe60806040523480156200001157600080fd5b506040516200275938038062002759833981810160405260c08110156200003757600080fd5b81019080805160405193929190846401000000008211156200005857600080fd5b838201915060208201858111156200006f57600080fd5b82518660018202830111640100000000821117156200008d57600080fd5b8083526020830192505050908051906020019080838360005b83811015620000c3578082015181840152602081019050620000a6565b50505050905090810190601f168015620000f15780820380516001836020036101000a031916815260200191505b50604052602001805160405193929190846401000000008211156200011557600080fd5b838201915060208201858111156200012c57600080fd5b82518660018202830111640100000000821117156200014a57600080fd5b8083526020830192505050908051906020019080838360005b838110156200018057808201518184015260208101905062000163565b50505050905090810190601f168015620001ae5780820380516001836020036101000a031916815260200191505b5060405260200180516040519392919084640100000000821115620001d257600080fd5b83820191506020820185811115620001e957600080fd5b82518660018202830111640100000000821117156200020757600080fd5b8083526020830192505050908051906020019080838360005b838110156200023d57808201518184015260208101905062000220565b50505050905090810190601f1680156200026b5780820380516001836020036101000a031916815260200191505b50604052602001805190602001909291908051906020019092919080519060200190929190505050336000806101000a81548173ffffffffffffffffffffffffffffffffffffffff021916908373ffffffffffffffffffffffffffffffffffffffff16021790555060018060008060009054906101000a900473ffffffffffffffffffffffffffffffffffffffff1673ffffffffffffffffffffffffffffffffffffffff1673ffffffffffffffffffffffffffffffffffffffff16815260200190815260200160002060006101000a81548160ff0219169083151502179055506001600281905550826000806101000a81548173ffffffffffffffffffffffffffffffffffffffff021916908373ffffffffffffffffffffffffffffffffffffffff16021790555080600660006101000a81548173ffffffffffffffffffffffffffffffffffffffff021916908373ffffffffffffffffffffffffffffffffffffffff1602179055508560039080519060200190620003ec9291906200046c565b508460049080519060200190620004059291906200046c565b5083600590805190602001906200041e9291906200046c565b5081600960006101000a81548173ffffffffffffffffffffffffffffffffffffffff021916908373ffffffffffffffffffffffffffffffffffffffff1602179055505050505050506200051b565b828054600181600116156101000203166002900490600052602060002090601f016020900481019282601f10620004af57805160ff1916838001178555620004e0565b82800160010185558215620004e0579182015b82811115620004df578251825591602001919060010190620004c2565b5b509050620004ef9190620004f3565b5090565b6200051891905b8082111562000514576000816000905550600101620004fa565b5090565b90565b61222e806200052b6000396000f3fe6080604052600436106100f35760003560e01c80635b5287f91161008a578063a2b7a8c311610059578063a2b7a8c31461095b578063ac840db0146109a2578063de8f51d5146109f3578063e2a50f7714610bfd576100f3565b80635b5287f91461039757806367c897fe1461058057806380d038e31461071b5780638da5cb5b14610904576100f3565b806332a2c5d0116100c657806332a2c5d0146102245780634132327b1461027b5780634fea495414610292578063511482f1146102e3576100f3565b806303b2a739146100f5578063091df85f1461017057806312065fe01461019b57806321e19b49146101c6575b005b34801561010157600080fd5b5061012e6004803603602081101561011857600080fd5b8101908080359060200190929190505050610c5b565b604051808273ffffffffffffffffffffffffffffffffffffffff1673ffffffffffffffffffffffffffffffffffffffff16815260200191505060405180910390f35b34801561017c57600080fd5b50610185610c8e565b6040518082815260200191505060405180910390f35b3480156101a757600080fd5b506101b0610c94565b6040518082815260200191505060405180910390f35b3480156101d257600080fd5b506101ff600480360360208110156101e957600080fd5b8101908080359060200190929190505050610c9c565b6040518083151515158152602001821515151581526020019250505060405180910390f35b34801561023057600080fd5b50610239610d5f565b604051808273ffffffffffffffffffffffffffffffffffffffff1673ffffffffffffffffffffffffffffffffffffffff16815260200191505060405180910390f35b34801561028757600080fd5b50610290610d67565b005b34801561029e57600080fd5b506102e1600480360360208110156102b557600080fd5b81019080803573ffffffffffffffffffffffffffffffffffffffff169060200190929190505050610ee3565b005b3480156102ef57600080fd5b5061031c6004803603602081101561030657600080fd5b8101908080359060200190929190505050611008565b6040518080602001828103825283818151815260200191508051906020019080838360005b8381101561035c578082015181840152602081019050610341565b50505050905090810190601f1680156103895780820380516001836020036101000a031916815260200191505b509250505060405180910390f35b3480156103a357600080fd5b506104fe600480360360608110156103ba57600080fd5b81019080803590602001906401000000008111156103d757600080fd5b8201836020820111156103e957600080fd5b8035906020019184600183028401116401000000008311171561040b57600080fd5b91908080601f016020809104026020016040519081016040528093929190818152602001838380828437600081840152601f19601f8201169050808301925050505050505091929192908035906020019064010000000081111561046e57600080fd5b82018360208201111561048057600080fd5b803590602001918460018302840111640100000000831117156104a257600080fd5b91908080601f016020809104026020016040519081016040528093929190818152602001838380828437600081840152601f19601f820116905080830192505050505050509192919290803590602001909291905050506111f1565b6040518080602001838152602001828103825284818151815260200191508051906020019080838360005b83811015610544578082015181840152602081019050610529565b50505050905090810190601f1680156105715780820380516001836020036101000a031916815260200191505b50935050505060405180910390f35b34801561058c57600080fd5b506105956114af565b604051808060200180602001806020018573ffffffffffffffffffffffffffffffffffffffff1673ffffffffffffffffffffffffffffffffffffffff168152602001848103845288818151815260200191508051906020019080838360005b8381101561060f5780820151818401526020810190506105f4565b50505050905090810190601f16801561063c5780820380516001836020036101000a031916815260200191505b50848103835287818151815260200191508051906020019080838360005b8381101561067557808201518184015260208101905061065a565b50505050905090810190601f1680156106a25780820380516001836020036101000a031916815260200191505b50848103825286818151815260200191508051906020019080838360005b838110156106db5780820151818401526020810190506106c0565b50505050905090810190601f1680156107085780820380516001836020036101000a031916815260200191505b5097505050505050505060405180910390f35b34801561072757600080fd5b506108826004803603606081101561073e57600080fd5b810190808035906020019064010000000081111561075b57600080fd5b82018360208201111561076d57600080fd5b8035906020019184600183028401116401000000008311171561078f57600080fd5b91908080601f016020809104026020016040519081016040528093929190818152602001838380828437600081840152601f19601f820116905080830192505050505050509192919290803590602001906401000000008111156107f257600080fd5b82018360208201111561080457600080fd5b8035906020019184600183028401116401000000008311171561082657600080fd5b91908080601f016020809104026020016040519081016040528093929190818152602001838380828437600081840152601f19601f820116905080830192505050505050509192919290803590602001909291905050506116c4565b6040518080602001838152602001828103825284818151815260200191508051906020019080838360005b838110156108c85780820151818401526020810190506108ad565b50505050905090810190601f1680156108f55780820380516001836020036101000a031916815260200191505b50935050505060405180910390f35b34801561091057600080fd5b506109196119d8565b604051808273ffffffffffffffffffffffffffffffffffffffff1673ffffffffffffffffffffffffffffffffffffffff16815260200191505060405180910390f35b34801561096757600080fd5b506109a06004803603604081101561097e57600080fd5b81019080803590602001909291908035151590602001909291905050506119fd565b005b3480156109ae57600080fd5b506109f1600480360360208110156109c557600080fd5b81019080803573ffffffffffffffffffffffffffffffffffffffff169060200190929190505050611caa565b005b3480156109ff57600080fd5b50610be760048036036060811015610a1657600080fd5b8101908080359060200190640100000000811115610a3357600080fd5b820183602082011115610a4557600080fd5b80359060200191846001830284011164010000000083111715610a6757600080fd5b91908080601f016020809104026020016040519081016040528093929190818152602001838380828437600081840152601f19601f82011690508083019250505050505050919291929080359060200190640100000000811115610aca57600080fd5b820183602082011115610adc57600080fd5b80359060200191846001830284011164010000000083111715610afe57600080fd5b91908080601f016020809104026020016040519081016040528093929190818152602001838380828437600081840152601f19601f82011690508083019250505050505050919291929080359060200190640100000000811115610b6157600080fd5b820183602082011115610b7357600080fd5b80359060200191846001830284011164010000000083111715610b9557600080fd5b91908080601f016020809104026020016040519081016040528093929190818152602001838380828437600081840152601f19601f820116905080830192505050505050509192919290505050611dd2565b6040518082815260200191505060405180910390f35b348015610c0957600080fd5b50610c3660048036036020811015610c2057600080fd5b8101908080359060200190929190505050612092565b6040518083151515158152602001821515151581526020019250505060405180910390f35b60076020528060005260406000206000915054906101000a900473ffffffffffffffffffffffffffffffffffffffff1681565b60025481565b600047905090565b600080600660009054906101000a900473ffffffffffffffffffffffffffffffffffffffff1673ffffffffffffffffffffffffffffffffffffffff1663e2a50f77846040518263ffffffff1660e01b815260040180828152602001915050604080518083038186803b158015610d1157600080fd5b505afa158015610d25573d6000803e3d6000fd5b505050506040513d6040811015610d3b57600080fd5b81019080805190602001909291908051906020019092919050505091509150915091565b600030905090565b6000809054906101000a900473ffffffffffffffffffffffffffffffffffffffff1673ffffffffffffffffffffffffffffffffffffffff163373ffffffffffffffffffffffffffffffffffffffff1614610dc057600080fd5b6000671bc16d674ec800009050600080600a80549050905060008090505b81811015610edd576000600a8281548110610df557fe5b906000526020600020906008020190508060030160169054906101000a900460ff168015610e3157508060030160149054906101000a900460ff165b15610ed15784816002015410610e475784610e4d565b80600201545b9350610e58846120e2565b15610eca57610e8b8160030160009054906101000a900473ffffffffffffffffffffffffffffffffffffffff1685612109565b838160020154038160020181905550600081600201541415610ec55760008160030160166101000a81548160ff0219169083151502179055505b610ed0565b50610edd565b5b50806001019050610dde565b50505050565b60011515600160003373ffffffffffffffffffffffffffffffffffffffff1673ffffffffffffffffffffffffffffffffffffffff16815260200190815260200160002060009054906101000a900460ff16151514610f4057600080fd5b60011515600160008373ffffffffffffffffffffffffffffffffffffffff1673ffffffffffffffffffffffffffffffffffffffff16815260200190815260200160002060009054906101000a900460ff1615151415611005576000600160008373ffffffffffffffffffffffffffffffffffffffff1673ffffffffffffffffffffffffffffffffffffffff16815260200190815260200160002060006101000a81548160ff021916908315150217905550600260008154809291906001900391905055505b50565b60606000600960009054906101000a900473ffffffffffffffffffffffffffffffffffffffff1673ffffffffffffffffffffffffffffffffffffffff1663511482f1846040518263ffffffff1660e01b815260040180828152602001915050602060405180830381600087803b15801561108157600080fd5b505af1158015611095573d6000803e3d6000fd5b505050506040513d60208110156110ab57600080fd5b8101908080519060200190929190505050905060008073ffffffffffffffffffffffffffffffffffffffff168273ffffffffffffffffffffffffffffffffffffffff161415611133576040518060400160405280601481526020017f4e6f204e65772050726f6a656374206164646564000000000000000000000000815250925050506111ec565b816007600086815260200190815260200160002060006101000a81548173ffffffffffffffffffffffffffffffffffffffff021916908373ffffffffffffffffffffffffffffffffffffffff16021790555060088490806001815401808255809150509060018203906000526020600020016000909192909190915055506040518060400160405280601181526020017f4e65772050726f6a656374204164646564000000000000000000000000000000815250925050505b919050565b606060008060009054906101000a900473ffffffffffffffffffffffffffffffffffffffff1673ffffffffffffffffffffffffffffffffffffffff163373ffffffffffffffffffffffffffffffffffffffff161461124e57600080fd5b600660009054906101000a900473ffffffffffffffffffffffffffffffffffffffff1673ffffffffffffffffffffffffffffffffffffffff166380d038e38686866040518463ffffffff1660e01b8152600401808060200180602001848152602001838103835286818151815260200191508051906020019080838360005b838110156112e85780820151818401526020810190506112cd565b50505050905090810190601f1680156113155780820380516001836020036101000a031916815260200191505b50838103825285818151815260200191508051906020019080838360005b8381101561134e578082015181840152602081019050611333565b50505050905090810190601f16801561137b5780820380516001836020036101000a031916815260200191505b5095505050505050600060405180830381600087803b15801561139d57600080fd5b505af11580156113b1573d6000803e3d6000fd5b505050506040513d6000823e3d601f19601f8201168201806040525060408110156113db57600080fd5b81019080805160405193929190846401000000008211156113fb57600080fd5b8382019150602082018581111561141157600080fd5b825186600182028301116401000000008211171561142e57600080fd5b8083526020830192505050908051906020019080838360005b83811015611462578082015181840152602081019050611447565b50505050905090810190601f16801561148f5780820380516001836020036101000a031916815260200191505b506040526020018051906020019092919050505091509150935093915050565b60608060606000600360046005600660009054906101000a900473ffffffffffffffffffffffffffffffffffffffff16838054600181600116156101000203166002900480601f0160208091040260200160405190810160405280929190818152602001828054600181600116156101000203166002900480156115745780601f1061154957610100808354040283529160200191611574565b820191906000526020600020905b81548152906001019060200180831161155757829003601f168201915b50505050509350828054600181600116156101000203166002900480601f0160208091040260200160405190810160405280929190818152602001828054600181600116156101000203166002900480156116105780601f106115e557610100808354040283529160200191611610565b820191906000526020600020905b8154815290600101906020018083116115f357829003601f168201915b50505050509250818054600181600116156101000203166002900480601f0160208091040260200160405190810160405280929190818152602001828054600181600116156101000203166002900480156116ac5780601f10611681576101008083540402835291602001916116ac565b820191906000526020600020905b81548152906001019060200180831161168f57829003601f168201915b50505050509150809050935093509350935090919293565b6060600080600880549050905060008090505b8181101561196e573373ffffffffffffffffffffffffffffffffffffffff16600760006008848154811061170757fe5b9060005260206000200154815260200190815260200160002060009054906101000a900473ffffffffffffffffffffffffffffffffffffffff1673ffffffffffffffffffffffffffffffffffffffff16141561196357600a6040518061014001604052808981526020018881526020018781526020013373ffffffffffffffffffffffffffffffffffffffff168152602001600015158152602001600115158152602001600115158152602001600081526020016000815260200160001515815250908060018154018082558091505090600182039060005260206000209060080201600090919290919091506000820151816000019080519060200190611810929190612154565b50602082015181600101908051906020019061182d929190612154565b506040820151816002015560608201518160030160006101000a81548173ffffffffffffffffffffffffffffffffffffffff021916908373ffffffffffffffffffffffffffffffffffffffff16021790555060808201518160030160146101000a81548160ff02191690831515021790555060a08201518160030160156101000a81548160ff02191690831515021790555060c08201518160030160166101000a81548160ff02191690831515021790555060e0820151816004015561010082015181600501556101208201518160070160006101000a81548160ff0219169083151502179055505050506001600a80549050036040518060400160405280600d81526020017f5265717565737420416464656400000000000000000000000000000000000000815250909350935050506119d0565b8060010190506116d7565b507fffffffffffffffffffffffffffffffffffffffffffffffffffffffffffffffff6040518060400160405280601481526020017f5265717565737420496e6170706c696361626c650000000000000000000000008152509080905092509250505b935093915050565b6000809054906101000a900473ffffffffffffffffffffffffffffffffffffffff1681565b60011515600160003373ffffffffffffffffffffffffffffffffffffffff1673ffffffffffffffffffffffffffffffffffffffff16815260200190815260200160002060009054906101000a900460ff16151514611a5a57600080fd5b6000600a8381548110611a6957fe5b906000526020600020906008020190508060060160003373ffffffffffffffffffffffffffffffffffffffff1673ffffffffffffffffffffffffffffffffffffffff16815260200190815260200160002060009054906101000a900460ff1615611ad257600080fd5b60018160060160003373ffffffffffffffffffffffffffffffffffffffff1673ffffffffffffffffffffffffffffffffffffffff16815260200190815260200160002060006101000a81548160ff02191690831515021790555080600401600081548092919060010191905055508115611b5b5780600501600081548092919060010191905055505b6000809054906101000a900473ffffffffffffffffffffffffffffffffffffffff1673ffffffffffffffffffffffffffffffffffffffff163373ffffffffffffffffffffffffffffffffffffffff161415611bce5760018160070160006101000a81548160ff0219169083151502179055505b600115158160070160009054906101000a900460ff161515148015611c055750600a60025460070281611bfd57fe5b048160050154115b15611c495760008160030160156101000a81548160ff02191690831515021790555060018160030160146101000a81548160ff021916908315150217905550611ca5565b600a60025460030281611c5857fe5b04816005015482600401540310611ca45760008160030160156101000a81548160ff02191690831515021790555060008160030160146101000a81548160ff0219169083151502179055505b5b505050565b60011515600160003373ffffffffffffffffffffffffffffffffffffffff1673ffffffffffffffffffffffffffffffffffffffff16815260200190815260200160002060009054906101000a900460ff16151514611d0757600080fd5b60011515600160008373ffffffffffffffffffffffffffffffffffffffff1673ffffffffffffffffffffffffffffffffffffffff16815260200190815260200160002060009054906101000a900460ff1615151415611d6557611dcf565b60018060008373ffffffffffffffffffffffffffffffffffffffff1673ffffffffffffffffffffffffffffffffffffffff16815260200190815260200160002060006101000a81548160ff0219169083151502179055506002600081548092919060010191905055505b50565b60008060009054906101000a900473ffffffffffffffffffffffffffffffffffffffff1673ffffffffffffffffffffffffffffffffffffffff163373ffffffffffffffffffffffffffffffffffffffff1614611e2d57600080fd5b6060849050600081511415611e4157600080fd5b839050600081511415611e5357600080fd5b829050600081511415611e6557600080fd5b600960009054906101000a900473ffffffffffffffffffffffffffffffffffffffff1673ffffffffffffffffffffffffffffffffffffffff16630301b1d6868587336040518563ffffffff1660e01b8152600401808060200180602001806020018573ffffffffffffffffffffffffffffffffffffffff1673ffffffffffffffffffffffffffffffffffffffff168152602001848103845288818151815260200191508051906020019080838360005b83811015611f30578082015181840152602081019050611f15565b50505050905090810190601f168015611f5d5780820380516001836020036101000a031916815260200191505b50848103835287818151815260200191508051906020019080838360005b83811015611f96578082015181840152602081019050611f7b565b50505050905090810190601f168015611fc35780820380516001836020036101000a031916815260200191505b50848103825286818151815260200191508051906020019080838360005b83811015611ffc578082015181840152602081019050611fe1565b50505050905090810190601f1680156120295780820380516001836020036101000a031916815260200191505b50975050505050505050602060405180830381600087803b15801561204d57600080fd5b505af1158015612061573d6000803e3d6000fd5b505050506040513d602081101561207757600080fd5b81019080805190602001909291905050509150509392505050565b6000806000600a84815481106120a457fe5b906000526020600020906008020190508060030160159054906101000a900460ff168160030160149054906101000a900460ff169250925050915091565b600081671bc16d674ec80000014711156120ff5760019050612104565b600090505b919050565b8173ffffffffffffffffffffffffffffffffffffffff166108fc829081150290604051600060405180830381858888f1935050505015801561214f573d6000803e3d6000fd5b505050565b828054600181600116156101000203166002900490600052602060002090601f016020900481019282601f1061219557805160ff19168380011785556121c3565b828001600101855582156121c3579182015b828111156121c25782518255916020019190600101906121a7565b5b5090506121d091906121d4565b5090565b6121f691905b808211156121f25760008160009055506001016121da565b5090565b9056fea265627a7a72315820106dd89493f3631e7bf066ddc791789caacb72f816371e930e2c7eca1ded803764736f6c63430005100032a265627a7a723158204ba039894897b4fa69c0135a0880a6a5cf73212ab5a08533561f6e2d594a684f64736f6c63430005100032608060405234801561001057600080fd5b50604051611b0a380380611b0a8339818101604052604081101561003357600080fd5b810190808051906020019092919080519060200190929190505050336000806101000a81548173ffffffffffffffffffffffffffffffffffffffff021916908373ffffffffffffffffffffffffffffffffffffffff16021790555060018060008060009054906101000a900473ffffffffffffffffffffffffffffffffffffffff1673ffffffffffffffffffffffffffffffffffffffff1673ffffffffffffffffffffffffffffffffffffffff16815260200190815260200160002060006101000a81548160ff0219169083151502179055506001600281905550816000806101000a81548173ffffffffffffffffffffffffffffffffffffffff021916908373ffffffffffffffffffffffffffffffffffffffff1602179055506000600881905550600060058190555080600360006101000a81548173ffffffffffffffffffffffffffffffffffffffff021916908373ffffffffffffffffffffffffffffffffffffffff160217905550505061195a806101b06000396000f3fe60806040526004361061014b5760003560e01c80638d5cfc4c116100b6578063e01211dc1161006f578063e01211dc146106b9578063e0a999be1461079c578063e5f06fdf146107eb578063ea69fee414610802578063eb2900cf1461083d578063f8414e221461090a5761014b565b80638d5cfc4c146104f75780638da5cb5b1461053c578063a431ff8a14610593578063ac840db0146105ce578063b9b2735c1461061f578063c97bdef61461064a5761014b565b806332a2c5d01161010857806332a2c5d0146102a057806334c6b027146102f75780634fea4954146103325780635e1926a61461038357806368afed0d146103da578063761e348c146104055761014b565b806304dbdac11461014d578063091df85f146101925780630c5eb7b3146101bd57806312065fe0146102025780632912ba5f1461022d5780632feaee9514610237575b005b34801561015957600080fd5b506101906004803603604081101561017057600080fd5b810190808035906020019092919080359060200190929190505050610935565b005b34801561019e57600080fd5b506101a76109b1565b6040518082815260200191505060405180910390f35b3480156101c957600080fd5b50610200600480360360408110156101e057600080fd5b8101908080359060200190929190803590602001909291905050506109b7565b005b34801561020e57600080fd5b50610217610a33565b6040518082815260200191505060405180910390f35b610235610a3b565b005b34801561024357600080fd5b506102866004803603602081101561025a57600080fd5b81019080803573ffffffffffffffffffffffffffffffffffffffff169060200190929190505050610af8565b604051808215151515815260200191505060405180910390f35b3480156102ac57600080fd5b506102b5610b51565b604051808273ffffffffffffffffffffffffffffffffffffffff1673ffffffffffffffffffffffffffffffffffffffff16815260200191505060405180910390f35b34801561030357600080fd5b506103306004803603602081101561031a57600080fd5b8101908080359060200190929190505050610b59565b005b34801561033e57600080fd5b506103816004803603602081101561035557600080fd5b81019080803573ffffffffffffffffffffffffffffffffffffffff169060200190929190505050610be8565b005b34801561038f57600080fd5b50610398610d0d565b604051808273ffffffffffffffffffffffffffffffffffffffff1673ffffffffffffffffffffffffffffffffffffffff16815260200191505060405180910390f35b3480156103e657600080fd5b506103ef610d33565b6040518082815260200191505060405180910390f35b34801561041157600080fd5b506104f56004803603606081101561042857600080fd5b810190808035906020019064010000000081111561044557600080fd5b82018360208201111561045757600080fd5b8035906020019184600183028401116401000000008311171561047957600080fd5b91908080601f016020809104026020016040519081016040528093929190818152602001838380828437600081840152601f19601f820116905080830192505050505050509192919290803573ffffffffffffffffffffffffffffffffffffffff16906020019092919080359060200190929190505050610d3d565b005b34801561050357600080fd5b5061053a6004803603604081101561051a57600080fd5b810190808035906020019092919080359060200190929190505050610ebc565b005b34801561054857600080fd5b50610551610f38565b604051808273ffffffffffffffffffffffffffffffffffffffff1673ffffffffffffffffffffffffffffffffffffffff16815260200191505060405180910390f35b34801561059f57600080fd5b506105cc600480360360208110156105b657600080fd5b8101908080359060200190929190505050610f5d565b005b3480156105da57600080fd5b5061061d600480360360208110156105f157600080fd5b81019080803573ffffffffffffffffffffffffffffffffffffffff169060200190929190505050610fec565b005b34801561062b57600080fd5b50610634611114565b6040518082815260200191505060405180910390f35b34801561065657600080fd5b506106836004803603602081101561066d57600080fd5b81019080803590602001909291905050506112f3565b60405180868152602001858152602001848152602001838152602001821515151581526020019550505050505060405180910390f35b3480156106c557600080fd5b50610708600480360360208110156106dc57600080fd5b81019080803573ffffffffffffffffffffffffffffffffffffffff16906020019092919050505061138e565b604051808581526020018060200184151515158152602001838152602001828103825285818151815260200191508051906020019080838360005b8381101561075e578082015181840152602081019050610743565b50505050905090810190601f16801561078b5780820380516001836020036101000a031916815260200191505b509550505050505060405180910390f35b3480156107a857600080fd5b506107e9600480360360608110156107bf57600080fd5b81019080803590602001909291908035906020019092919080359060200190929190505050611558565b005b3480156107f757600080fd5b50610800611656565b005b34801561080e57600080fd5b5061083b6004803603602081101561082557600080fd5b810190808035906020019092919050505061175f565b005b34801561084957600080fd5b506108766004803603602081101561086057600080fd5b8101908080359060200190929190505050611824565b604051808581526020018060200184151515158152602001838152602001828103825285818151815260200191508051906020019080838360005b838110156108cc5780820151818401526020810190506108b1565b50505050905090810190601f1680156108f95780820380516001836020036101000a031916815260200191505b509550505050505060405180910390f35b34801561091657600080fd5b5061091f611876565b6040518082815260200191505060405180910390f35b60011515600160003373ffffffffffffffffffffffffffffffffffffffff1673ffffffffffffffffffffffffffffffffffffffff16815260200190815260200160002060009054906101000a900460ff1615151461099257600080fd5b8060046000848152602001908152602001600020600301819055505050565b60025481565b60011515600160003373ffffffffffffffffffffffffffffffffffffffff1673ffffffffffffffffffffffffffffffffffffffff16815260200190815260200160002060009054906101000a900460ff16151514610a1457600080fd5b8060046000848152602001908152602001600020600101819055505050565b600047905090565b60001515600660003373ffffffffffffffffffffffffffffffffffffffff1673ffffffffffffffffffffffffffffffffffffffff16815260200190815260200160002060020160009054906101000a900460ff16151514610a9b57600080fd5b6001600660003373ffffffffffffffffffffffffffffffffffffffff1673ffffffffffffffffffffffffffffffffffffffff16815260200190815260200160002060020160006101000a81548160ff021916908315150217905550565b6000600660008373ffffffffffffffffffffffffffffffffffffffff1673ffffffffffffffffffffffffffffffffffffffff16815260200190815260200160002060020160009054906101000a900460ff169050919050565b600030905090565b60011515600160003373ffffffffffffffffffffffffffffffffffffffff1673ffffffffffffffffffffffffffffffffffffffff16815260200190815260200160002060009054906101000a900460ff16151514610bb657600080fd5b60016004600083815260200190815260200160002060040160006101000a81548160ff02191690831515021790555050565b60011515600160003373ffffffffffffffffffffffffffffffffffffffff1673ffffffffffffffffffffffffffffffffffffffff16815260200190815260200160002060009054906101000a900460ff16151514610c4557600080fd5b60011515600160008373ffffffffffffffffffffffffffffffffffffffff1673ffffffffffffffffffffffffffffffffffffffff16815260200190815260200160002060009054906101000a900460ff1615151415610d0a576000600160008373ffffffffffffffffffffffffffffffffffffffff1673ffffffffffffffffffffffffffffffffffffffff16815260200190815260200160002060006101000a81548160ff021916908315150217905550600260008154809291906001900391905055505b50565b600360009054906101000a900473ffffffffffffffffffffffffffffffffffffffff1681565b6000600554905090565b60011515600160003373ffffffffffffffffffffffffffffffffffffffff1673ffffffffffffffffffffffffffffffffffffffff16815260200190815260200160002060009054906101000a900460ff16151514610d9a57600080fd5b6040518060800160405280600854815260200184815260200160001515815260200182815250600660008473ffffffffffffffffffffffffffffffffffffffff1673ffffffffffffffffffffffffffffffffffffffff168152602001908152602001600020600082015181600001556020820151816001019080519060200190610e25929190611880565b5060408201518160020160006101000a81548160ff021916908315150217905550606082015181600301559050508160076000600854815260200190815260200160002060006101000a81548173ffffffffffffffffffffffffffffffffffffffff021916908373ffffffffffffffffffffffffffffffffffffffff16021790555060086000815460010191905081905550505050565b60011515600160003373ffffffffffffffffffffffffffffffffffffffff1673ffffffffffffffffffffffffffffffffffffffff16815260200190815260200160002060009054906101000a900460ff16151514610f1957600080fd5b8060046000848152602001908152602001600020600201819055505050565b6000809054906101000a900473ffffffffffffffffffffffffffffffffffffffff1681565b60011515600160003373ffffffffffffffffffffffffffffffffffffffff1673ffffffffffffffffffffffffffffffffffffffff16815260200190815260200160002060009054906101000a900460ff16151514610fba57600080fd5b60006004600083815260200190815260200160002060040160006101000a81548160ff02191690831515021790555050565b60011515600160003373ffffffffffffffffffffffffffffffffffffffff1673ffffffffffffffffffffffffffffffffffffffff16815260200190815260200160002060009054906101000a900460ff1615151461104957600080fd5b60011515600160008373ffffffffffffffffffffffffffffffffffffffff1673ffffffffffffffffffffffffffffffffffffffff16815260200190815260200160002060009054906101000a900460ff16151514156110a757611111565b60018060008373ffffffffffffffffffffffffffffffffffffffff1673ffffffffffffffffffffffffffffffffffffffff16815260200190815260200160002060006101000a81548160ff0219169083151502179055506002600081548092919060010191905055505b50565b600060011515600660003373ffffffffffffffffffffffffffffffffffffffff1673ffffffffffffffffffffffffffffffffffffffff16815260200190815260200160002060020160009054906101000a900460ff161515141561117b57600090506112f0565b6000600660003373ffffffffffffffffffffffffffffffffffffffff1673ffffffffffffffffffffffffffffffffffffffff168152602001908152602001600020600301549050600080905060008090505b6005548110156112e957600115156004600083815260200190815260200160002060040160009054906101000a900460ff16151514156112de5782600460008381526020019081526020016000206001015410156112dd5782600460008381526020019081526020016000206002015410611286576064600460008381526020019081526020016000206001015484036004600084815260200190815260200160002060030154028161127c57fe5b04820191506112dc565b60646004600083815260200190815260200160002060010154600460008481526020019081526020016000206002015403600460008481526020019081526020016000206003015402816112d657fe5b04820191505b5b5b8060010190506111cd565b5080925050505b90565b6000806000806000600460008781526020019081526020016000206000015460046000888152602001908152602001600020600101546004600089815260200190815260200160002060020154600460008a815260200190815260200160002060030154600460008b815260200190815260200160002060040160009054906101000a900460ff169450945094509450945091939590929450565b60006060600080600660008673ffffffffffffffffffffffffffffffffffffffff1673ffffffffffffffffffffffffffffffffffffffff16815260200190815260200160002060000154600660008773ffffffffffffffffffffffffffffffffffffffff1673ffffffffffffffffffffffffffffffffffffffff168152602001908152602001600020600101600660008873ffffffffffffffffffffffffffffffffffffffff1673ffffffffffffffffffffffffffffffffffffffff16815260200190815260200160002060020160009054906101000a900460ff16600660008973ffffffffffffffffffffffffffffffffffffffff1673ffffffffffffffffffffffffffffffffffffffff16815260200190815260200160002060030154828054600181600116156101000203166002900480601f0160208091040260200160405190810160405280929190818152602001828054600181600116156101000203166002900480156115425780601f1061151757610100808354040283529160200191611542565b820191906000526020600020905b81548152906001019060200180831161152557829003601f168201915b5050505050925093509350935093509193509193565b60011515600160003373ffffffffffffffffffffffffffffffffffffffff1673ffffffffffffffffffffffffffffffffffffffff16815260200190815260200160002060009054906101000a900460ff161515146115b557600080fd5b6040518060a001604052806005548152602001848152602001838152602001828152602001600115158152506004600060055481526020019081526020016000206000820151816000015560208201518160010155604082015181600201556060820151816003015560808201518160040160006101000a81548160ff02191690831515021790555090505060056000815460010191905081905550505050565b60011515600160003373ffffffffffffffffffffffffffffffffffffffff1673ffffffffffffffffffffffffffffffffffffffff16815260200190815260200160002060009054906101000a900460ff161515146116b357600080fd5b60008090505b60085481101561175c576000600660006007600085815260200190815260200160002060009054906101000a900473ffffffffffffffffffffffffffffffffffffffff1673ffffffffffffffffffffffffffffffffffffffff1673ffffffffffffffffffffffffffffffffffffffff16815260200190815260200160002060020160006101000a81548160ff0219169083151502179055508060010190506116b9565b50565b6000809054906101000a900473ffffffffffffffffffffffffffffffffffffffff1673ffffffffffffffffffffffffffffffffffffffff163373ffffffffffffffffffffffffffffffffffffffff16146117b857600080fd5b600360009054906101000a900473ffffffffffffffffffffffffffffffffffffffff1673ffffffffffffffffffffffffffffffffffffffff166108fc829081150290604051600060405180830381858888f19350505050158015611820573d6000803e3d6000fd5b5050565b600060606000806118676007600087815260200190815260200160002060009054906101000a900473ffffffffffffffffffffffffffffffffffffffff1661138e565b93509350935093509193509193565b6000600854905090565b828054600181600116156101000203166002900490600052602060002090601f016020900481019282601f106118c157805160ff19168380011785556118ef565b828001600101855582156118ef579182015b828111156118ee5782518255916020019190600101906118d3565b5b5090506118fc9190611900565b5090565b61192291905b8082111561191e576000816000905550600101611906565b5090565b9056fea265627a7a72315820b69ca59aba388f163e061b6357d15a8f6523a51693e55adec4fd824a0ff1236964736f6c6343000510003260806040523480156200001157600080fd5b506040516200275938038062002759833981810160405260c08110156200003757600080fd5b81019080805160405193929190846401000000008211156200005857600080fd5b838201915060208201858111156200006f57600080fd5b82518660018202830111640100000000821117156200008d57600080fd5b8083526020830192505050908051906020019080838360005b83811015620000c3578082015181840152602081019050620000a6565b50505050905090810190601f168015620000f15780820380516001836020036101000a031916815260200191505b50604052602001805160405193929190846401000000008211156200011557600080fd5b838201915060208201858111156200012c57600080fd5b82518660018202830111640100000000821117156200014a57600080fd5b8083526020830192505050908051906020019080838360005b838110156200018057808201518184015260208101905062000163565b50505050905090810190601f168015620001ae5780820380516001836020036101000a031916815260200191505b5060405260200180516040519392919084640100000000821115620001d257600080fd5b83820191506020820185811115620001e957600080fd5b82518660018202830111640100000000821117156200020757600080fd5b8083526020830192505050908051906020019080838360005b838110156200023d57808201518184015260208101905062000220565b50505050905090810190601f1680156200026b5780820380516001836020036101000a031916815260200191505b50604052602001805190602001909291908051906020019092919080519060200190929190505050336000806101000a81548173ffffffffffffffffffffffffffffffffffffffff021916908373ffffffffffffffffffffffffffffffffffffffff16021790555060018060008060009054906101000a900473ffffffffffffffffffffffffffffffffffffffff1673ffffffffffffffffffffffffffffffffffffffff1673ffffffffffffffffffffffffffffffffffffffff16815260200190815260200160002060006101000a81548160ff0219169083151502179055506001600281905550826000806101000a81548173ffffffffffffffffffffffffffffffffffffffff021916908373ffffffffffffffffffffffffffffffffffffffff16021790555080600660006101000a81548173ffffffffffffffffffffffffffffffffffffffff021916908373ffffffffffffffffffffffffffffffffffffffff1602179055508560039080519060200190620003ec9291906200046c565b508460049080519060200190620004059291906200046c565b5083600590805190602001906200041e9291906200046c565b5081600960006101000a81548173ffffffffffffffffffffffffffffffffffffffff021916908373ffffffffffffffffffffffffffffffffffffffff1602179055505050505050506200051b565b828054600181600116156101000203166002900490600052602060002090601f016020900481019282601f10620004af57805160ff1916838001178555620004e0565b82800160010185558215620004e0579182015b82811115620004df578251825591602001919060010190620004c2565b5b509050620004ef9190620004f3565b5090565b6200051891905b8082111562000514576000816000905550600101620004fa565b5090565b90565b61222e806200052b6000396000f3fe6080604052600436106100f35760003560e01c80635b5287f91161008a578063a2b7a8c311610059578063a2b7a8c31461095b578063ac840db0146109a2578063de8f51d5146109f3578063e2a50f7714610bfd576100f3565b80635b5287f91461039757806367c897fe1461058057806380d038e31461071b5780638da5cb5b14610904576100f3565b806332a2c5d0116100c657806332a2c5d0146102245780634132327b1461027b5780634fea495414610292578063511482f1146102e3576100f3565b806303b2a739146100f5578063091df85f1461017057806312065fe01461019b57806321e19b49146101c6575b005b34801561010157600080fd5b5061012e6004803603602081101561011857600080fd5b8101908080359060200190929190505050610c5b565b604051808273ffffffffffffffffffffffffffffffffffffffff1673ffffffffffffffffffffffffffffffffffffffff16815260200191505060405180910390f35b34801561017c57600080fd5b50610185610c8e565b6040518082815260200191505060405180910390f35b3480156101a757600080fd5b506101b0610c94565b6040518082815260200191505060405180910390f35b3480156101d257600080fd5b506101ff600480360360208110156101e957600080fd5b8101908080359060200190929190505050610c9c565b6040518083151515158152602001821515151581526020019250505060405180910390f35b34801561023057600080fd5b50610239610d5f565b604051808273ffffffffffffffffffffffffffffffffffffffff1673ffffffffffffffffffffffffffffffffffffffff16815260200191505060405180910390f35b34801561028757600080fd5b50610290610d67565b005b34801561029e57600080fd5b506102e1600480360360208110156102b557600080fd5b81019080803573ffffffffffffffffffffffffffffffffffffffff169060200190929190505050610ee3565b005b3480156102ef57600080fd5b5061031c6004803603602081101561030657600080fd5b8101908080359060200190929190505050611008565b6040518080602001828103825283818151815260200191508051906020019080838360005b8381101561035c578082015181840152602081019050610341565b50505050905090810190601f1680156103895780820380516001836020036101000a031916815260200191505b509250505060405180910390f35b3480156103a357600080fd5b506104fe600480360360608110156103ba57600080fd5b81019080803590602001906401000000008111156103d757600080fd5b8201836020820111156103e957600080fd5b8035906020019184600183028401116401000000008311171561040b57600080fd5b91908080601f016020809104026020016040519081016040528093929190818152602001838380828437600081840152601f19601f8201169050808301925050505050505091929192908035906020019064010000000081111561046e57600080fd5b82018360208201111561048057600080fd5b803590602001918460018302840111640100000000831117156104a257600080fd5b91908080601f016020809104026020016040519081016040528093929190818152602001838380828437600081840152601f19601f820116905080830192505050505050509192919290803590602001909291905050506111f1565b6040518080602001838152602001828103825284818151815260200191508051906020019080838360005b83811015610544578082015181840152602081019050610529565b50505050905090810190601f1680156105715780820380516001836020036101000a031916815260200191505b50935050505060405180910390f35b34801561058c57600080fd5b506105956114af565b604051808060200180602001806020018573ffffffffffffffffffffffffffffffffffffffff1673ffffffffffffffffffffffffffffffffffffffff168152602001848103845288818151815260200191508051906020019080838360005b8381101561060f5780820151818401526020810190506105f4565b50505050905090810190601f16801561063c5780820380516001836020036101000a031916815260200191505b50848103835287818151815260200191508051906020019080838360005b8381101561067557808201518184015260208101905061065a565b50505050905090810190601f1680156106a25780820380516001836020036101000a031916815260200191505b50848103825286818151815260200191508051906020019080838360005b838110156106db5780820151818401526020810190506106c0565b50505050905090810190601f1680156107085780820380516001836020036101000a031916815260200191505b5097505050505050505060405180910390f35b34801561072757600080fd5b506108826004803603606081101561073e57600080fd5b810190808035906020019064010000000081111561075b57600080fd5b82018360208201111561076d57600080fd5b8035906020019184600183028401116401000000008311171561078f57600080fd5b91908080601f016020809104026020016040519081016040528093929190818152602001838380828437600081840152601f19601f820116905080830192505050505050509192919290803590602001906401000000008111156107f257600080fd5b82018360208201111561080457600080fd5b8035906020019184600183028401116401000000008311171561082657600080fd5b91908080601f016020809104026020016040519081016040528093929190818152602001838380828437600081840152601f19601f820116905080830192505050505050509192919290803590602001909291905050506116c4565b6040518080602001838152602001828103825284818151815260200191508051906020019080838360005b838110156108c85780820151818401526020810190506108ad565b50505050905090810190601f1680156108f55780820380516001836020036101000a031916815260200191505b50935050505060405180910390f35b34801561091057600080fd5b506109196119d8565b604051808273ffffffffffffffffffffffffffffffffffffffff1673ffffffffffffffffffffffffffffffffffffffff16815260200191505060405180910390f35b34801561096757600080fd5b506109a06004803603604081101561097e57600080fd5b81019080803590602001909291908035151590602001909291905050506119fd565b005b3480156109ae57600080fd5b506109f1600480360360208110156109c557600080fd5b81019080803573ffffffffffffffffffffffffffffffffffffffff169060200190929190505050611caa565b005b3480156109ff57600080fd5b50610be760048036036060811015610a1657600080fd5b8101908080359060200190640100000000811115610a3357600080fd5b820183602082011115610a4557600080fd5b80359060200191846001830284011164010000000083111715610a6757600080fd5b91908080601f016020809104026020016040519081016040528093929190818152602001838380828437600081840152601f19601f82011690508083019250505050505050919291929080359060200190640100000000811115610aca57600080fd5b820183602082011115610adc57600080fd5b80359060200191846001830284011164010000000083111715610afe57600080fd5b91908080601f016020809104026020016040519081016040528093929190818152602001838380828437600081840152601f19601f82011690508083019250505050505050919291929080359060200190640100000000811115610b6157600080fd5b820183602082011115610b7357600080fd5b80359060200191846001830284011164010000000083111715610b9557600080fd5b91908080601f016020809104026020016040519081016040528093929190818152602001838380828437600081840152601f19601f820116905080830192505050505050509192919290505050611dd2565b6040518082815260200191505060405180910390f35b348015610c0957600080fd5b50610c3660048036036020811015610c2057600080fd5b8101908080359060200190929190505050612092565b6040518083151515158152602001821515151581526020019250505060405180910390f35b60076020528060005260406000206000915054906101000a900473ffffffffffffffffffffffffffffffffffffffff1681565b60025481565b600047905090565b600080600660009054906101000a900473ffffffffffffffffffffffffffffffffffffffff1673ffffffffffffffffffffffffffffffffffffffff1663e2a50f77846040518263ffffffff1660e01b815260040180828152602001915050604080518083038186803b158015610d1157600080fd5b505afa158015610d25573d6000803e3d6000fd5b505050506040513d6040811015610d3b57600080fd5b81019080805190602001909291908051906020019092919050505091509150915091565b600030905090565b6000809054906101000a900473ffffffffffffffffffffffffffffffffffffffff1673ffffffffffffffffffffffffffffffffffffffff163373ffffffffffffffffffffffffffffffffffffffff1614610dc057600080fd5b6000671bc16d674ec800009050600080600a80549050905060008090505b81811015610edd576000600a8281548110610df557fe5b906000526020600020906008020190508060030160169054906101000a900460ff168015610e3157508060030160149054906101000a900460ff165b15610ed15784816002015410610e475784610e4d565b80600201545b9350610e58846120e2565b15610eca57610e8b8160030160009054906101000a900473ffffffffffffffffffffffffffffffffffffffff1685612109565b838160020154038160020181905550600081600201541415610ec55760008160030160166101000a81548160ff0219169083151502179055505b610ed0565b50610edd565b5b50806001019050610dde565b50505050565b60011515600160003373ffffffffffffffffffffffffffffffffffffffff1673ffffffffffffffffffffffffffffffffffffffff16815260200190815260200160002060009054906101000a900460ff16151514610f4057600080fd5b60011515600160008373ffffffffffffffffffffffffffffffffffffffff1673ffffffffffffffffffffffffffffffffffffffff16815260200190815260200160002060009054906101000a900460ff1615151415611005576000600160008373ffffffffffffffffffffffffffffffffffffffff1673ffffffffffffffffffffffffffffffffffffffff16815260200190815260200160002060006101000a81548160ff021916908315150217905550600260008154809291906001900391905055505b50565b60606000600960009054906101000a900473ffffffffffffffffffffffffffffffffffffffff1673ffffffffffffffffffffffffffffffffffffffff1663511482f1846040518263ffffffff1660e01b815260040180828152602001915050602060405180830381600087803b15801561108157600080fd5b505af1158015611095573d6000803e3d6000fd5b505050506040513d60208110156110ab57600080fd5b8101908080519060200190929190505050905060008073ffffffffffffffffffffffffffffffffffffffff168273ffffffffffffffffffffffffffffffffffffffff161415611133576040518060400160405280601481526020017f4e6f204e65772050726f6a656374206164646564000000000000000000000000815250925050506111ec565b816007600086815260200190815260200160002060006101000a81548173ffffffffffffffffffffffffffffffffffffffff021916908373ffffffffffffffffffffffffffffffffffffffff16021790555060088490806001815401808255809150509060018203906000526020600020016000909192909190915055506040518060400160405280601181526020017f4e65772050726f6a656374204164646564000000000000000000000000000000815250925050505b919050565b606060008060009054906101000a900473ffffffffffffffffffffffffffffffffffffffff1673ffffffffffffffffffffffffffffffffffffffff163373ffffffffffffffffffffffffffffffffffffffff161461124e57600080fd5b600660009054906101000a900473ffffffffffffffffffffffffffffffffffffffff1673ffffffffffffffffffffffffffffffffffffffff166380d038e38686866040518463ffffffff1660e01b8152600401808060200180602001848152602001838103835286818151815260200191508051906020019080838360005b838110156112e85780820151818401526020810190506112cd565b50505050905090810190601f1680156113155780820380516001836020036101000a031916815260200191505b50838103825285818151815260200191508051906020019080838360005b8381101561134e578082015181840152602081019050611333565b50505050905090810190601f16801561137b5780820380516001836020036101000a031916815260200191505b5095505050505050600060405180830381600087803b15801561139d57600080fd5b505af11580156113b1573d6000803e3d6000fd5b505050506040513d6000823e3d601f19601f8201168201806040525060408110156113db57600080fd5b81019080805160405193929190846401000000008211156113fb57600080fd5b8382019150602082018581111561141157600080fd5b825186600182028301116401000000008211171561142e57600080fd5b8083526020830192505050908051906020019080838360005b83811015611462578082015181840152602081019050611447565b50505050905090810190601f16801561148f5780820380516001836020036101000a031916815260200191505b506040526020018051906020019092919050505091509150935093915050565b60608060606000600360046005600660009054906101000a900473ffffffffffffffffffffffffffffffffffffffff16838054600181600116156101000203166002900480601f0160208091040260200160405190810160405280929190818152602001828054600181600116156101000203166002900480156115745780601f1061154957610100808354040283529160200191611574565b820191906000526020600020905b81548152906001019060200180831161155757829003601f168201915b50505050509350828054600181600116156101000203166002900480601f0160208091040260200160405190810160405280929190818152602001828054600181600116156101000203166002900480156116105780601f106115e557610100808354040283529160200191611610565b820191906000526020600020905b8154815290600101906020018083116115f357829003601f168201915b50505050509250818054600181600116156101000203166002900480601f0160208091040260200160405190810160405280929190818152602001828054600181600116156101000203166002900480156116ac5780601f10611681576101008083540402835291602001916116ac565b820191906000526020600020905b81548152906001019060200180831161168f57829003601f168201915b50505050509150809050935093509350935090919293565b6060600080600880549050905060008090505b8181101561196e573373ffffffffffffffffffffffffffffffffffffffff16600760006008848154811061170757fe5b9060005260206000200154815260200190815260200160002060009054906101000a900473ffffffffffffffffffffffffffffffffffffffff1673ffffffffffffffffffffffffffffffffffffffff16141561196357600a6040518061014001604052808981526020018881526020018781526020013373ffffffffffffffffffffffffffffffffffffffff168152602001600015158152602001600115158152602001600115158152602001600081526020016000815260200160001515815250908060018154018082558091505090600182039060005260206000209060080201600090919290919091506000820151816000019080519060200190611810929190612154565b50602082015181600101908051906020019061182d929190612154565b506040820151816002015560608201518160030160006101000a81548173ffffffffffffffffffffffffffffffffffffffff021916908373ffffffffffffffffffffffffffffffffffffffff16021790555060808201518160030160146101000a81548160ff02191690831515021790555060a08201518160030160156101000a81548160ff02191690831515021790555060c08201518160030160166101000a81548160ff02191690831515021790555060e0820151816004015561010082015181600501556101208201518160070160006101000a81548160ff0219169083151502179055505050506001600a80549050036040518060400160405280600d81526020017f5265717565737420416464656400000000000000000000000000000000000000815250909350935050506119d0565b8060010190506116d7565b507fffffffffffffffffffffffffffffffffffffffffffffffffffffffffffffffff6040518060400160405280601481526020017f5265717565737420496e6170706c696361626c650000000000000000000000008152509080905092509250505b935093915050565b6000809054906101000a900473ffffffffffffffffffffffffffffffffffffffff1681565b60011515600160003373ffffffffffffffffffffffffffffffffffffffff1673ffffffffffffffffffffffffffffffffffffffff16815260200190815260200160002060009054906101000a900460ff16151514611a5a57600080fd5b6000600a8381548110611a6957fe5b906000526020600020906008020190508060060160003373ffffffffffffffffffffffffffffffffffffffff1673ffffffffffffffffffffffffffffffffffffffff16815260200190815260200160002060009054906101000a900460ff1615611ad257600080fd5b60018160060160003373ffffffffffffffffffffffffffffffffffffffff1673ffffffffffffffffffffffffffffffffffffffff16815260200190815260200160002060006101000a81548160ff02191690831515021790555080600401600081548092919060010191905055508115611b5b5780600501600081548092919060010191905055505b6000809054906101000a900473ffffffffffffffffffffffffffffffffffffffff1673ffffffffffffffffffffffffffffffffffffffff163373ffffffffffffffffffffffffffffffffffffffff161415611bce5760018160070160006101000a81548160ff0219169083151502179055505b600115158160070160009054906101000a900460ff161515148015611c055750600a60025460070281611bfd57fe5b048160050154115b15611c495760008160030160156101000a81548160ff02191690831515021790555060018160030160146101000a81548160ff021916908315150217905550611ca5565b600a60025460030281611c5857fe5b04816005015482600401540310611ca45760008160030160156101000a81548160ff02191690831515021790555060008160030160146101000a81548160ff0219169083151502179055505b5b505050565b60011515600160003373ffffffffffffffffffffffffffffffffffffffff1673ffffffffffffffffffffffffffffffffffffffff16815260200190815260200160002060009054906101000a900460ff16151514611d0757600080fd5b60011515600160008373ffffffffffffffffffffffffffffffffffffffff1673ffffffffffffffffffffffffffffffffffffffff16815260200190815260200160002060009054906101000a900460ff1615151415611d6557611dcf565b60018060008373ffffffffffffffffffffffffffffffffffffffff1673ffffffffffffffffffffffffffffffffffffffff16815260200190815260200160002060006101000a81548160ff0219169083151502179055506002600081548092919060010191905055505b50565b60008060009054906101000a900473ffffffffffffffffffffffffffffffffffffffff1673ffffffffffffffffffffffffffffffffffffffff163373ffffffffffffffffffffffffffffffffffffffff1614611e2d57600080fd5b6060849050600081511415611e4157600080fd5b839050600081511415611e5357600080fd5b829050600081511415611e6557600080fd5b600960009054906101000a900473ffffffffffffffffffffffffffffffffffffffff1673ffffffffffffffffffffffffffffffffffffffff16630301b1d6868587336040518563ffffffff1660e01b8152600401808060200180602001806020018573ffffffffffffffffffffffffffffffffffffffff1673ffffffffffffffffffffffffffffffffffffffff168152602001848103845288818151815260200191508051906020019080838360005b83811015611f30578082015181840152602081019050611f15565b50505050905090810190601f168015611f5d5780820380516001836020036101000a031916815260200191505b50848103835287818151815260200191508051906020019080838360005b83811015611f96578082015181840152602081019050611f7b565b50505050905090810190601f168015611fc35780820380516001836020036101000a031916815260200191505b50848103825286818151815260200191508051906020019080838360005b83811015611ffc578082015181840152602081019050611fe1565b50505050905090810190601f1680156120295780820380516001836020036101000a031916815260200191505b50975050505050505050602060405180830381600087803b15801561204d57600080fd5b505af1158015612061573d6000803e3d6000fd5b505050506040513d602081101561207757600080fd5b81019080805190602001909291905050509150509392505050565b6000806000600a84815481106120a457fe5b906000526020600020906008020190508060030160159054906101000a900460ff168160030160149054906101000a900460ff169250925050915091565b600081671bc16d674ec80000014711156120ff5760019050612104565b600090505b919050565b8173ffffffffffffffffffffffffffffffffffffffff166108fc829081150290604051600060405180830381858888f1935050505015801561214f573d6000803e3d6000fd5b505050565b828054600181600116156101000203166002900490600052602060002090601f016020900481019282601f1061219557805160ff19168380011785556121c3565b828001600101855582156121c3579182015b828111156121c25782518255916020019190600101906121a7565b5b5090506121d091906121d4565b5090565b6121f691905b808211156121f25760008160009055506001016121da565b5090565b9056fea265627a7a72315820106dd89493f3631e7bf066ddc791789caacb72f816371e930e2c7eca1ded803764736f6c63430005100032",
  "source": "pragma solidity ^0.5.16;\r\n\r\nimport \"./Official.sol\";\r\nimport \"./Project.sol\";\r\nimport \"./TaxCollection.sol\";\r\n\r\ncontract Central_Authority is Official{\r\n\r\n    struct Project_Request{\r\n        string Project_name;\r\n        string document_url;\r\n        string purpose;\r\n        address official_incharge;\r\n        address payable parent_project;\r\n        bool isComplete;\r\n        uint voters;//this will keep count of positive vote count only\r\n        mapping(address=>bool) voted_officials;\r\n    }\r\n    \r\n    Project public central;\r\n\r\n    TaxCollection taxCollection;\r\n\r\n    function createProject(Project_Request memory _request) private returns (Project ) {\r\n        Project newProject = new Project(_request.Project_name,_request.document_url,_request.purpose,_request.official_incharge,address(this),_request.parent_project);\r\n        return newProject;\r\n    }\r\n\r\n    mapping(uint => Project_Request) requestedProjects;//mapping from token to project address \r\n    mapping(uint => address) public deployedProjectsAddresses; // may become costly otherwise, shouldnt overload blockchain\r\n    uint token;\r\n\r\n    constructor() public {\r\n        Project_Request memory request = Project_Request({\r\n            Project_name:\"Central_Authority\",\r\n            document_url:\"\",\r\n            purpose:'',\r\n            official_incharge:owner,\r\n            parent_project:address(this), // had to be a payable address\r\n            isComplete:true,\r\n            voters:0\r\n        });\r\n        token = 1;\r\n        central = createProject(request);\r\n        taxCollection = new TaxCollection(owner, address(this));\r\n    }\r\n    \r\n    function() external payable {}\r\n    \r\n    function addNewProjectRequest(string memory _Project_name,string memory _document_url,string memory _purpose, address _official_incharge) public returns (uint) {\r\n        //In this function we will make the struct of current request and add that to the list of requestedProjects[]\r\n        \r\n        Project_Request memory new_request = Project_Request({\r\n            Project_name:_Project_name,\r\n            document_url:_document_url,\r\n            purpose:_purpose,\r\n            official_incharge:_official_incharge,\r\n            parent_project:msg.sender,\r\n            isComplete:false,\r\n            voters:0\r\n        });\r\n\r\n        requestedProjects[token] = new_request;\r\n        token++;\r\n        return token-1;\r\n    }\r\n\r\n    //here index reassemble token\r\n    function voteForProject(uint _index,bool _decision) public officialOnly {\r\n        Project_Request storage request = requestedProjects[_index];\r\n        \r\n        require(!request.voted_officials[msg.sender]);//the person has not voted so far\r\n        \r\n        request.voted_officials[msg.sender]=true;\r\n        if(_decision)\r\n            request.voters++;\r\n    }\r\n    \r\n    function verifyPending_Projects(uint _token) public returns(Project){\r\n\r\n        require(_token>=1 && _token<token); // checking token validity\r\n        \r\n        Project newProject;\r\n        // uint n = requestedProjects.length;\r\n        Project_Request storage current_req = requestedProjects[_token];\r\n        //if value for some key doesn't exist the mapping will return the default value of that data type\r\n        //as I have custom mapping so need to following below method\r\n        // Project_Request memory cmp;\r\n        // require(current_req != cmp);//case for invalid token\r\n\r\n        require(current_req.parent_project == msg.sender);\r\n\r\n        if(current_req.voters >= total_officals && !current_req.isComplete){ //currently it requires all of the officials to vote in favour\r\n            \r\n            newProject = createProject(current_req);\r\n            \r\n            current_req.isComplete = true;\r\n\r\n            deployedProjectsAddresses[_token] = address(newProject);\r\n        }\r\n        \r\n        return newProject;\r\n    }\r\n\r\n    function grantFundsToCentralProject(uint _amount) public ownerOnly {\r\n        address(central).transfer(_amount); \r\n        // call event;\r\n    }\r\n}",
  "sourcePath": "E:\\MAJOR PROJECT\\Blockchain\\contracts\\Central_Authority.sol",
  "compiler": {
    "name": "solc",
    "version": "0.5.16+commit.9c3226ce.Emscripten.clang"
  },
  "schemaVersion": "3.3.3",
  "updatedAt": "2021-03-08T14:35:45.311Z",
  "devdoc": {
    "methods": {}
  },
  "userdoc": {
    "methods": {}
  }
}