{
  "contractName": "Central_Authority",
  "abi": [
    {
      "inputs": [],
      "payable": false,
      "stateMutability": "nonpayable",
      "type": "constructor"
    },
    {
      "payable": true,
      "stateMutability": "payable",
      "type": "fallback"
    },
    {
      "constant": false,
      "inputs": [
        {
          "internalType": "address",
          "name": "_add",
          "type": "address"
        }
      ],
      "name": "addOfficial",
      "outputs": [],
      "payable": false,
      "stateMutability": "nonpayable",
      "type": "function"
    },
    {
      "constant": true,
      "inputs": [],
      "name": "central",
      "outputs": [
        {
          "internalType": "contract Project",
          "name": "",
          "type": "address"
        }
      ],
      "payable": false,
      "stateMutability": "view",
      "type": "function"
    },
    {
      "constant": true,
      "inputs": [
        {
          "internalType": "uint256",
          "name": "",
          "type": "uint256"
        }
      ],
      "name": "deployedProjectsAddresses",
      "outputs": [
        {
          "internalType": "address",
          "name": "",
          "type": "address"
        }
      ],
      "payable": false,
      "stateMutability": "view",
      "type": "function"
    },
    {
      "constant": true,
      "inputs": [],
      "name": "getBalance",
      "outputs": [
        {
          "internalType": "uint256",
          "name": "",
          "type": "uint256"
        }
      ],
      "payable": false,
      "stateMutability": "view",
      "type": "function"
    },
    {
      "constant": false,
      "inputs": [
        {
          "internalType": "string",
          "name": "_Project_name",
          "type": "string"
        },
        {
          "internalType": "string",
          "name": "_document_url",
          "type": "string"
        },
        {
          "internalType": "string",
          "name": "_purpose",
          "type": "string"
        },
        {
          "internalType": "address",
          "name": "_official_incharge",
          "type": "address"
        }
      ],
      "name": "addNewProjectRequest",
      "outputs": [
        {
          "internalType": "uint256",
          "name": "",
          "type": "uint256"
        }
      ],
      "payable": false,
      "stateMutability": "nonpayable",
      "type": "function"
    },
    {
      "constant": false,
      "inputs": [
        {
          "internalType": "uint256",
          "name": "_index",
          "type": "uint256"
        },
        {
          "internalType": "bool",
          "name": "_decision",
          "type": "bool"
        }
      ],
      "name": "voteForProject",
      "outputs": [],
      "payable": false,
      "stateMutability": "nonpayable",
      "type": "function"
    },
    {
      "constant": false,
      "inputs": [
        {
          "internalType": "uint256",
          "name": "_token",
          "type": "uint256"
        }
      ],
      "name": "verifyPending_Projects",
      "outputs": [
        {
          "internalType": "contract Project",
          "name": "",
          "type": "address"
        }
      ],
      "payable": false,
      "stateMutability": "nonpayable",
      "type": "function"
    },
    {
      "constant": false,
      "inputs": [
        {
          "internalType": "uint256",
          "name": "_amount",
          "type": "uint256"
        }
      ],
      "name": "grantFundsToCentralProject",
      "outputs": [],
      "payable": false,
      "stateMutability": "nonpayable",
      "type": "function"
    }
  ],
  "bytecode": "0x60806040523480156200001157600080fd5b50336000806101000a81548173ffffffffffffffffffffffffffffffffffffffff021916908373ffffffffffffffffffffffffffffffffffffffff160217905550600060028190555060018060008060009054906101000a900473ffffffffffffffffffffffffffffffffffffffff1673ffffffffffffffffffffffffffffffffffffffff1673ffffffffffffffffffffffffffffffffffffffff16815260200190815260200160002060006101000a81548160ff021916908315150217905550600260008154809291906001019190505550620000ee6200055c565b6040518060e001604052806040518060400160405280601181526020017f43656e7472616c5f417574686f7269747900000000000000000000000000000081525081526020016040518060200160405280600081525081526020016040518060200160405280600081525081526020016000809054906101000a900473ffffffffffffffffffffffffffffffffffffffff1673ffffffffffffffffffffffffffffffffffffffff1681526020013073ffffffffffffffffffffffffffffffffffffffff168152602001600115158152602001600081525090506001600781905550620001e0816200031f60201b60201c565b600360006101000a81548173ffffffffffffffffffffffffffffffffffffffff021916908373ffffffffffffffffffffffffffffffffffffffff1602179055506000809054906101000a900473ffffffffffffffffffffffffffffffffffffffff16306040516200025190620005c7565b808373ffffffffffffffffffffffffffffffffffffffff1673ffffffffffffffffffffffffffffffffffffffff1681526020018273ffffffffffffffffffffffffffffffffffffffff1673ffffffffffffffffffffffffffffffffffffffff16815260200192505050604051809103906000f080158015620002d7573d6000803e3d6000fd5b50600460006101000a81548173ffffffffffffffffffffffffffffffffffffffff021916908373ffffffffffffffffffffffffffffffffffffffff16021790555050620005e3565b60008082600001518360200151846040015185606001513087608001516040516200034a90620005d5565b808060200180602001806020018773ffffffffffffffffffffffffffffffffffffffff1673ffffffffffffffffffffffffffffffffffffffff1681526020018673ffffffffffffffffffffffffffffffffffffffff1673ffffffffffffffffffffffffffffffffffffffff1681526020018573ffffffffffffffffffffffffffffffffffffffff1673ffffffffffffffffffffffffffffffffffffffff16815260200184810384528a818151815260200191508051906020019080838360005b83811015620004275780820151818401526020810190506200040a565b50505050905090810190601f168015620004555780820380516001836020036101000a031916815260200191505b50848103835289818151815260200191508051906020019080838360005b838110156200049057808201518184015260208101905062000473565b50505050905090810190601f168015620004be5780820380516001836020036101000a031916815260200191505b50848103825288818151815260200191508051906020019080838360005b83811015620004f9578082015181840152602081019050620004dc565b50505050905090810190601f168015620005275780820380516001836020036101000a031916815260200191505b509950505050505050505050604051809103906000f08015801562000550573d6000803e3d6000fd5b50905080915050919050565b6040518060e00160405280606081526020016060815260200160608152602001600073ffffffffffffffffffffffffffffffffffffffff168152602001600073ffffffffffffffffffffffffffffffffffffffff168152602001600015158152602001600081525090565b61122d806200384783390190565b6120838062004a7483390190565b61325480620005f36000396000f3fe608060405260043610620000865760003560e01c8063511482f11162000055578063511482f114620003b7578063ac840db01462000436578063b7826af8146200048b578063c322c2f614620004e55762000086565b80630278d41d14620000885780630301b1d6146200010757806312065fe0146200033e5780633f0d66b4146200036c575b005b3480156200009557600080fd5b50620000c560048036036020811015620000ae57600080fd5b810190808035906020019092919050505062000524565b604051808273ffffffffffffffffffffffffffffffffffffffff1673ffffffffffffffffffffffffffffffffffffffff16815260200191505060405180910390f35b3480156200011457600080fd5b5062000328600480360360808110156200012d57600080fd5b81019080803590602001906401000000008111156200014b57600080fd5b8201836020820111156200015e57600080fd5b803590602001918460018302840111640100000000831117156200018157600080fd5b91908080601f016020809104026020016040519081016040528093929190818152602001838380828437600081840152601f19601f82011690508083019250505050505050919291929080359060200190640100000000811115620001e557600080fd5b820183602082011115620001f857600080fd5b803590602001918460018302840111640100000000831117156200021b57600080fd5b91908080601f016020809104026020016040519081016040528093929190818152602001838380828437600081840152601f19601f820116905080830192505050505050509192919290803590602001906401000000008111156200027f57600080fd5b8201836020820111156200029257600080fd5b80359060200191846001830284011164010000000083111715620002b557600080fd5b91908080601f016020809104026020016040519081016040528093929190818152602001838380828437600081840152601f19601f820116905080830192505050505050509192919290803573ffffffffffffffffffffffffffffffffffffffff16906020019092919050505062000557565b6040518082815260200191505060405180910390f35b3480156200034b57600080fd5b506200035662000719565b6040518082815260200191505060405180910390f35b3480156200037957600080fd5b50620003b5600480360360408110156200039257600080fd5b810190808035906020019092919080351515906020019092919050505062000721565b005b348015620003c457600080fd5b50620003f460048036036020811015620003dd57600080fd5b81019080803590602001909291905050506200086b565b604051808273ffffffffffffffffffffffffffffffffffffffff1673ffffffffffffffffffffffffffffffffffffffff16815260200191505060405180910390f35b3480156200044357600080fd5b5062000489600480360360208110156200045c57600080fd5b81019080803573ffffffffffffffffffffffffffffffffffffffff16906020019092919050505062000c80565b005b3480156200049857600080fd5b50620004a362000d4a565b604051808273ffffffffffffffffffffffffffffffffffffffff1673ffffffffffffffffffffffffffffffffffffffff16815260200191505060405180910390f35b348015620004f257600080fd5b5062000522600480360360208110156200050b57600080fd5b810190808035906020019092919050505062000d70565b005b60066020528060005260406000206000915054906101000a900473ffffffffffffffffffffffffffffffffffffffff1681565b60006200056362001074565b6040518060e001604052808781526020018681526020018581526020018473ffffffffffffffffffffffffffffffffffffffff1681526020013373ffffffffffffffffffffffffffffffffffffffff16815260200160001515815260200160008152509050806005600060075481526020019081526020016000206000820151816000019080519060200190620005fc929190620010df565b5060208201518160010190805190602001906200061b929190620010df565b5060408201518160020190805190602001906200063a929190620010df565b5060608201518160030160006101000a81548173ffffffffffffffffffffffffffffffffffffffff021916908373ffffffffffffffffffffffffffffffffffffffff16021790555060808201518160040160006101000a81548173ffffffffffffffffffffffffffffffffffffffff021916908373ffffffffffffffffffffffffffffffffffffffff16021790555060a08201518160040160146101000a81548160ff02191690831515021790555060c08201518160050155905050600760008154809291906001019190505550600160075403915050949350505050565b600047905090565b60011515600160003373ffffffffffffffffffffffffffffffffffffffff1673ffffffffffffffffffffffffffffffffffffffff16815260200190815260200160002060009054906101000a900460ff161515146200077f57600080fd5b60006005600084815260200190815260200160002090508060060160003373ffffffffffffffffffffffffffffffffffffffff1673ffffffffffffffffffffffffffffffffffffffff16815260200190815260200160002060009054906101000a900460ff1615620007f057600080fd5b60018160060160003373ffffffffffffffffffffffffffffffffffffffff1673ffffffffffffffffffffffffffffffffffffffff16815260200190815260200160002060006101000a81548160ff0219169083151502179055508115620008665780600501600081548092919060010191905055505b505050565b60006001821015801562000880575060075482105b6200088a57600080fd5b6000806005600085815260200190815260200160002090503373ffffffffffffffffffffffffffffffffffffffff168160040160009054906101000a900473ffffffffffffffffffffffffffffffffffffffff1673ffffffffffffffffffffffffffffffffffffffff1614620008ff57600080fd5b6002548160050154101580156200092557508060040160149054906101000a900460ff16155b1562000c765762000c04816040518060e0016040529081600082018054600181600116156101000203166002900480601f016020809104026020016040519081016040528092919081815260200182805460018160011615610100020316600290048015620009d85780601f10620009ac57610100808354040283529160200191620009d8565b820191906000526020600020905b815481529060010190602001808311620009ba57829003601f168201915b50505050508152602001600182018054600181600116156101000203166002900480601f01602080910402602001604051908101604052809291908181526020018280546001816001161561010002031660029004801562000a7e5780601f1062000a525761010080835404028352916020019162000a7e565b820191906000526020600020905b81548152906001019060200180831162000a6057829003601f168201915b50505050508152602001600282018054600181600116156101000203166002900480601f01602080910402602001604051908101604052809291908181526020018280546001816001161561010002031660029004801562000b245780601f1062000af85761010080835404028352916020019162000b24565b820191906000526020600020905b81548152906001019060200180831162000b0657829003601f168201915b505050505081526020016003820160009054906101000a900473ffffffffffffffffffffffffffffffffffffffff1673ffffffffffffffffffffffffffffffffffffffff1673ffffffffffffffffffffffffffffffffffffffff1681526020016004820160009054906101000a900473ffffffffffffffffffffffffffffffffffffffff1673ffffffffffffffffffffffffffffffffffffffff1673ffffffffffffffffffffffffffffffffffffffff1681526020016004820160149054906101000a900460ff1615151515815260200160058201548152505062000e37565b915060018160040160146101000a81548160ff021916908315150217905550816006600086815260200190815260200160002060006101000a81548173ffffffffffffffffffffffffffffffffffffffff021916908373ffffffffffffffffffffffffffffffffffffffff1602179055505b8192505050919050565b60011515600160003373ffffffffffffffffffffffffffffffffffffffff1673ffffffffffffffffffffffffffffffffffffffff16815260200190815260200160002060009054906101000a900460ff1615151462000cde57600080fd5b60018060008373ffffffffffffffffffffffffffffffffffffffff1673ffffffffffffffffffffffffffffffffffffffff16815260200190815260200160002060006101000a81548160ff02191690831515021790555060026000815480929190600101919050555050565b600360009054906101000a900473ffffffffffffffffffffffffffffffffffffffff1681565b6000809054906101000a900473ffffffffffffffffffffffffffffffffffffffff1673ffffffffffffffffffffffffffffffffffffffff163373ffffffffffffffffffffffffffffffffffffffff161462000dca57600080fd5b600360009054906101000a900473ffffffffffffffffffffffffffffffffffffffff1673ffffffffffffffffffffffffffffffffffffffff166108fc829081150290604051600060405180830381858888f1935050505015801562000e33573d6000803e3d6000fd5b5050565b600080826000015183602001518460400151856060015130876080015160405162000e629062001166565b808060200180602001806020018773ffffffffffffffffffffffffffffffffffffffff1673ffffffffffffffffffffffffffffffffffffffff1681526020018673ffffffffffffffffffffffffffffffffffffffff1673ffffffffffffffffffffffffffffffffffffffff1681526020018573ffffffffffffffffffffffffffffffffffffffff1673ffffffffffffffffffffffffffffffffffffffff16815260200184810384528a818151815260200191508051906020019080838360005b8381101562000f3f57808201518184015260208101905062000f22565b50505050905090810190601f16801562000f6d5780820380516001836020036101000a031916815260200191505b50848103835289818151815260200191508051906020019080838360005b8381101562000fa857808201518184015260208101905062000f8b565b50505050905090810190601f16801562000fd65780820380516001836020036101000a031916815260200191505b50848103825288818151815260200191508051906020019080838360005b838110156200101157808201518184015260208101905062000ff4565b50505050905090810190601f1680156200103f5780820380516001836020036101000a031916815260200191505b509950505050505050505050604051809103906000f08015801562001068573d6000803e3d6000fd5b50905080915050919050565b6040518060e00160405280606081526020016060815260200160608152602001600073ffffffffffffffffffffffffffffffffffffffff168152602001600073ffffffffffffffffffffffffffffffffffffffff168152602001600015158152602001600081525090565b828054600181600116156101000203166002900490600052602060002090601f016020900481019282601f106200112257805160ff191683800117855562001153565b8280016001018555821562001153579182015b828111156200115257825182559160200191906001019062001135565b5b50905062001162919062001174565b5090565b612083806200119d83390190565b6200119991905b80821115620011955760008160009055506001016200117b565b5090565b9056fe60806040523480156200001157600080fd5b506040516200208338038062002083833981810160405260c08110156200003757600080fd5b81019080805160405193929190846401000000008211156200005857600080fd5b838201915060208201858111156200006f57600080fd5b82518660018202830111640100000000821117156200008d57600080fd5b8083526020830192505050908051906020019080838360005b83811015620000c3578082015181840152602081019050620000a6565b50505050905090810190601f168015620000f15780820380516001836020036101000a031916815260200191505b50604052602001805160405193929190846401000000008211156200011557600080fd5b838201915060208201858111156200012c57600080fd5b82518660018202830111640100000000821117156200014a57600080fd5b8083526020830192505050908051906020019080838360005b838110156200018057808201518184015260208101905062000163565b50505050905090810190601f168015620001ae5780820380516001836020036101000a031916815260200191505b5060405260200180516040519392919084640100000000821115620001d257600080fd5b83820191506020820185811115620001e957600080fd5b82518660018202830111640100000000821117156200020757600080fd5b8083526020830192505050908051906020019080838360005b838110156200023d57808201518184015260208101905062000220565b50505050905090810190601f1680156200026b5780820380516001836020036101000a031916815260200191505b50604052602001805190602001909291908051906020019092919080519060200190929190505050336000806101000a81548173ffffffffffffffffffffffffffffffffffffffff021916908373ffffffffffffffffffffffffffffffffffffffff160217905550600060028190555060018060008060009054906101000a900473ffffffffffffffffffffffffffffffffffffffff1673ffffffffffffffffffffffffffffffffffffffff1673ffffffffffffffffffffffffffffffffffffffff16815260200190815260200160002060006101000a81548160ff021916908315150217905550600260008154809291906001019190505550826000806101000a81548173ffffffffffffffffffffffffffffffffffffffff021916908373ffffffffffffffffffffffffffffffffffffffff16021790555080600660006101000a81548173ffffffffffffffffffffffffffffffffffffffff021916908373ffffffffffffffffffffffffffffffffffffffff1602179055508560039080519060200190620003fe9291906200047e565b508460049080519060200190620004179291906200047e565b508360059080519060200190620004309291906200047e565b5081600960006101000a81548173ffffffffffffffffffffffffffffffffffffffff021916908373ffffffffffffffffffffffffffffffffffffffff1602179055505050505050506200052d565b828054600181600116156101000203166002900490600052602060002090601f016020900481019282601f10620004c157805160ff1916838001178555620004f2565b82800160010185558215620004f2579182015b82811115620004f1578251825591602001919060010190620004d4565b5b50905062000501919062000505565b5090565b6200052a91905b80821115620005265760008160009055506001016200050c565b5090565b90565b611b46806200053d6000396000f3fe60806040526004361061009c5760003560e01c80635b5287f9116100645780635b5287f91461026d57806380d038e314610456578063a2b7a8c31461063f578063ac840db014610686578063de8f51d5146106d7578063e2a50f77146108e15761009c565b806303b2a7391461009e57806312065fe01461011957806321e19b49146101445780634132327b146101a2578063511482f1146101b9575b005b3480156100aa57600080fd5b506100d7600480360360208110156100c157600080fd5b810190808035906020019092919050505061093f565b604051808273ffffffffffffffffffffffffffffffffffffffff1673ffffffffffffffffffffffffffffffffffffffff16815260200191505060405180910390f35b34801561012557600080fd5b5061012e610972565b6040518082815260200191505060405180910390f35b34801561015057600080fd5b5061017d6004803603602081101561016757600080fd5b810190808035906020019092919050505061097a565b6040518083151515158152602001821515151581526020019250505060405180910390f35b3480156101ae57600080fd5b506101b7610a3d565b005b3480156101c557600080fd5b506101f2600480360360208110156101dc57600080fd5b8101908080359060200190929190505050610bb9565b6040518080602001828103825283818151815260200191508051906020019080838360005b83811015610232578082015181840152602081019050610217565b50505050905090810190601f16801561025f5780820380516001836020036101000a031916815260200191505b509250505060405180910390f35b34801561027957600080fd5b506103d46004803603606081101561029057600080fd5b81019080803590602001906401000000008111156102ad57600080fd5b8201836020820111156102bf57600080fd5b803590602001918460018302840111640100000000831117156102e157600080fd5b91908080601f016020809104026020016040519081016040528093929190818152602001838380828437600081840152601f19601f8201169050808301925050505050505091929192908035906020019064010000000081111561034457600080fd5b82018360208201111561035657600080fd5b8035906020019184600183028401116401000000008311171561037857600080fd5b91908080601f016020809104026020016040519081016040528093929190818152602001838380828437600081840152601f19601f82011690508083019250505050505050919291929080359060200190929190505050610da2565b6040518080602001838152602001828103825284818151815260200191508051906020019080838360005b8381101561041a5780820151818401526020810190506103ff565b50505050905090810190601f1680156104475780820380516001836020036101000a031916815260200191505b50935050505060405180910390f35b34801561046257600080fd5b506105bd6004803603606081101561047957600080fd5b810190808035906020019064010000000081111561049657600080fd5b8201836020820111156104a857600080fd5b803590602001918460018302840111640100000000831117156104ca57600080fd5b91908080601f016020809104026020016040519081016040528093929190818152602001838380828437600081840152601f19601f8201169050808301925050505050505091929192908035906020019064010000000081111561052d57600080fd5b82018360208201111561053f57600080fd5b8035906020019184600183028401116401000000008311171561056157600080fd5b91908080601f016020809104026020016040519081016040528093929190818152602001838380828437600081840152601f19601f82011690508083019250505050505050919291929080359060200190929190505050611060565b6040518080602001838152602001828103825284818151815260200191508051906020019080838360005b838110156106035780820151818401526020810190506105e8565b50505050905090810190601f1680156106305780820380516001836020036101000a031916815260200191505b50935050505060405180910390f35b34801561064b57600080fd5b506106846004803603604081101561066257600080fd5b8101908080359060200190929190803515159060200190929190505050611374565b005b34801561069257600080fd5b506106d5600480360360208110156106a957600080fd5b81019080803573ffffffffffffffffffffffffffffffffffffffff169060200190929190505050611621565b005b3480156106e357600080fd5b506108cb600480360360608110156106fa57600080fd5b810190808035906020019064010000000081111561071757600080fd5b82018360208201111561072957600080fd5b8035906020019184600183028401116401000000008311171561074b57600080fd5b91908080601f016020809104026020016040519081016040528093929190818152602001838380828437600081840152601f19601f820116905080830192505050505050509192919290803590602001906401000000008111156107ae57600080fd5b8201836020820111156107c057600080fd5b803590602001918460018302840111640100000000831117156107e257600080fd5b91908080601f016020809104026020016040519081016040528093929190818152602001838380828437600081840152601f19601f8201169050808301925050505050505091929192908035906020019064010000000081111561084557600080fd5b82018360208201111561085757600080fd5b8035906020019184600183028401116401000000008311171561087957600080fd5b91908080601f016020809104026020016040519081016040528093929190818152602001838380828437600081840152601f19601f8201169050808301925050505050505091929192905050506116ea565b6040518082815260200191505060405180910390f35b3480156108ed57600080fd5b5061091a6004803603602081101561090457600080fd5b81019080803590602001909291905050506119aa565b6040518083151515158152602001821515151581526020019250505060405180910390f35b60076020528060005260406000206000915054906101000a900473ffffffffffffffffffffffffffffffffffffffff1681565b600047905090565b600080600660009054906101000a900473ffffffffffffffffffffffffffffffffffffffff1673ffffffffffffffffffffffffffffffffffffffff1663e2a50f77846040518263ffffffff1660e01b815260040180828152602001915050604080518083038186803b1580156109ef57600080fd5b505afa158015610a03573d6000803e3d6000fd5b505050506040513d6040811015610a1957600080fd5b81019080805190602001909291908051906020019092919050505091509150915091565b6000809054906101000a900473ffffffffffffffffffffffffffffffffffffffff1673ffffffffffffffffffffffffffffffffffffffff163373ffffffffffffffffffffffffffffffffffffffff1614610a9657600080fd5b6000671bc16d674ec800009050600080600a80549050905060008090505b81811015610bb3576000600a8281548110610acb57fe5b906000526020600020906008020190508060030160169054906101000a900460ff168015610b0757508060030160149054906101000a900460ff165b15610ba75784816002015410610b1d5784610b23565b80600201545b9350610b2e846119fa565b15610ba057610b618160030160009054906101000a900473ffffffffffffffffffffffffffffffffffffffff1685611a21565b838160020154038160020181905550600081600201541415610b9b5760008160030160166101000a81548160ff0219169083151502179055505b610ba6565b50610bb3565b5b50806001019050610ab4565b50505050565b60606000600960009054906101000a900473ffffffffffffffffffffffffffffffffffffffff1673ffffffffffffffffffffffffffffffffffffffff1663511482f1846040518263ffffffff1660e01b815260040180828152602001915050602060405180830381600087803b158015610c3257600080fd5b505af1158015610c46573d6000803e3d6000fd5b505050506040513d6020811015610c5c57600080fd5b8101908080519060200190929190505050905060008073ffffffffffffffffffffffffffffffffffffffff168273ffffffffffffffffffffffffffffffffffffffff161415610ce4576040518060400160405280601481526020017f4e6f204e65772050726f6a65637420616464656400000000000000000000000081525092505050610d9d565b816007600086815260200190815260200160002060006101000a81548173ffffffffffffffffffffffffffffffffffffffff021916908373ffffffffffffffffffffffffffffffffffffffff16021790555060088490806001815401808255809150509060018203906000526020600020016000909192909190915055506040518060400160405280601181526020017f4e65772050726f6a656374204164646564000000000000000000000000000000815250925050505b919050565b606060008060009054906101000a900473ffffffffffffffffffffffffffffffffffffffff1673ffffffffffffffffffffffffffffffffffffffff163373ffffffffffffffffffffffffffffffffffffffff1614610dff57600080fd5b600660009054906101000a900473ffffffffffffffffffffffffffffffffffffffff1673ffffffffffffffffffffffffffffffffffffffff166380d038e38686866040518463ffffffff1660e01b8152600401808060200180602001848152602001838103835286818151815260200191508051906020019080838360005b83811015610e99578082015181840152602081019050610e7e565b50505050905090810190601f168015610ec65780820380516001836020036101000a031916815260200191505b50838103825285818151815260200191508051906020019080838360005b83811015610eff578082015181840152602081019050610ee4565b50505050905090810190601f168015610f2c5780820380516001836020036101000a031916815260200191505b5095505050505050600060405180830381600087803b158015610f4e57600080fd5b505af1158015610f62573d6000803e3d6000fd5b505050506040513d6000823e3d601f19601f820116820180604052506040811015610f8c57600080fd5b8101908080516040519392919084640100000000821115610fac57600080fd5b83820191506020820185811115610fc257600080fd5b8251866001820283011164010000000082111715610fdf57600080fd5b8083526020830192505050908051906020019080838360005b83811015611013578082015181840152602081019050610ff8565b50505050905090810190601f1680156110405780820380516001836020036101000a031916815260200191505b506040526020018051906020019092919050505091509150935093915050565b6060600080600880549050905060008090505b8181101561130a573373ffffffffffffffffffffffffffffffffffffffff1660076000600884815481106110a357fe5b9060005260206000200154815260200190815260200160002060009054906101000a900473ffffffffffffffffffffffffffffffffffffffff1673ffffffffffffffffffffffffffffffffffffffff1614156112ff57600a6040518061014001604052808981526020018881526020018781526020013373ffffffffffffffffffffffffffffffffffffffff1681526020016000151581526020016001151581526020016001151581526020016000815260200160008152602001600015158152509080600181540180825580915050906001820390600052602060002090600802016000909192909190915060008201518160000190805190602001906111ac929190611a6c565b5060208201518160010190805190602001906111c9929190611a6c565b506040820151816002015560608201518160030160006101000a81548173ffffffffffffffffffffffffffffffffffffffff021916908373ffffffffffffffffffffffffffffffffffffffff16021790555060808201518160030160146101000a81548160ff02191690831515021790555060a08201518160030160156101000a81548160ff02191690831515021790555060c08201518160030160166101000a81548160ff02191690831515021790555060e0820151816004015561010082015181600501556101208201518160070160006101000a81548160ff0219169083151502179055505050506001600a80549050036040518060400160405280600d81526020017f52657175657374204164646564000000000000000000000000000000000000008152509093509350505061136c565b806001019050611073565b507fffffffffffffffffffffffffffffffffffffffffffffffffffffffffffffffff6040518060400160405280601481526020017f5265717565737420496e6170706c696361626c650000000000000000000000008152509080905092509250505b935093915050565b60011515600160003373ffffffffffffffffffffffffffffffffffffffff1673ffffffffffffffffffffffffffffffffffffffff16815260200190815260200160002060009054906101000a900460ff161515146113d157600080fd5b6000600a83815481106113e057fe5b906000526020600020906008020190508060060160003373ffffffffffffffffffffffffffffffffffffffff1673ffffffffffffffffffffffffffffffffffffffff16815260200190815260200160002060009054906101000a900460ff161561144957600080fd5b60018160060160003373ffffffffffffffffffffffffffffffffffffffff1673ffffffffffffffffffffffffffffffffffffffff16815260200190815260200160002060006101000a81548160ff021916908315150217905550806004016000815480929190600101919050555081156114d25780600501600081548092919060010191905055505b6000809054906101000a900473ffffffffffffffffffffffffffffffffffffffff1673ffffffffffffffffffffffffffffffffffffffff163373ffffffffffffffffffffffffffffffffffffffff1614156115455760018160070160006101000a81548160ff0219169083151502179055505b600115158160070160009054906101000a900460ff16151514801561157c5750600a6002546007028161157457fe5b048160050154115b156115c05760008160030160156101000a81548160ff02191690831515021790555060018160030160146101000a81548160ff02191690831515021790555061161c565b600a600254600302816115cf57fe5b0481600501548260040154031061161b5760008160030160156101000a81548160ff02191690831515021790555060008160030160146101000a81548160ff0219169083151502179055505b5b505050565b60011515600160003373ffffffffffffffffffffffffffffffffffffffff1673ffffffffffffffffffffffffffffffffffffffff16815260200190815260200160002060009054906101000a900460ff1615151461167e57600080fd5b60018060008373ffffffffffffffffffffffffffffffffffffffff1673ffffffffffffffffffffffffffffffffffffffff16815260200190815260200160002060006101000a81548160ff02191690831515021790555060026000815480929190600101919050555050565b60008060009054906101000a900473ffffffffffffffffffffffffffffffffffffffff1673ffffffffffffffffffffffffffffffffffffffff163373ffffffffffffffffffffffffffffffffffffffff161461174557600080fd5b606084905060008151141561175957600080fd5b83905060008151141561176b57600080fd5b82905060008151141561177d57600080fd5b600960009054906101000a900473ffffffffffffffffffffffffffffffffffffffff1673ffffffffffffffffffffffffffffffffffffffff16630301b1d6868587336040518563ffffffff1660e01b8152600401808060200180602001806020018573ffffffffffffffffffffffffffffffffffffffff1673ffffffffffffffffffffffffffffffffffffffff168152602001848103845288818151815260200191508051906020019080838360005b8381101561184857808201518184015260208101905061182d565b50505050905090810190601f1680156118755780820380516001836020036101000a031916815260200191505b50848103835287818151815260200191508051906020019080838360005b838110156118ae578082015181840152602081019050611893565b50505050905090810190601f1680156118db5780820380516001836020036101000a031916815260200191505b50848103825286818151815260200191508051906020019080838360005b838110156119145780820151818401526020810190506118f9565b50505050905090810190601f1680156119415780820380516001836020036101000a031916815260200191505b50975050505050505050602060405180830381600087803b15801561196557600080fd5b505af1158015611979573d6000803e3d6000fd5b505050506040513d602081101561198f57600080fd5b81019080805190602001909291905050509150509392505050565b6000806000600a84815481106119bc57fe5b906000526020600020906008020190508060030160159054906101000a900460ff168160030160149054906101000a900460ff169250925050915091565b600081671bc16d674ec8000001471115611a175760019050611a1c565b600090505b919050565b8173ffffffffffffffffffffffffffffffffffffffff166108fc829081150290604051600060405180830381858888f19350505050158015611a67573d6000803e3d6000fd5b505050565b828054600181600116156101000203166002900490600052602060002090601f016020900481019282601f10611aad57805160ff1916838001178555611adb565b82800160010185558215611adb579182015b82811115611ada578251825591602001919060010190611abf565b5b509050611ae89190611aec565b5090565b611b0e91905b80821115611b0a576000816000905550600101611af2565b5090565b9056fea265627a7a72315820415f259eef1825ea5cf431fd054019a5065b23ccb96cd28cfd60eccae4be9e1f64736f6c63430005100032a265627a7a723158206b186d9199b02de2fb52ca5ce463a9d284ec37a57933d073f1ce1c0b1c9b6a2964736f6c63430005100032608060405234801561001057600080fd5b5060405161122d38038061122d8339818101604052604081101561003357600080fd5b810190808051906020019092919080519060200190929190505050336000806101000a81548173ffffffffffffffffffffffffffffffffffffffff021916908373ffffffffffffffffffffffffffffffffffffffff160217905550600060028190555060018060008060009054906101000a900473ffffffffffffffffffffffffffffffffffffffff1673ffffffffffffffffffffffffffffffffffffffff1673ffffffffffffffffffffffffffffffffffffffff16815260200190815260200160002060006101000a81548160ff021916908315150217905550600260008154809291906001019190505550816000806101000a81548173ffffffffffffffffffffffffffffffffffffffff021916908373ffffffffffffffffffffffffffffffffffffffff1602179055506000600881905550600060058190555080600360006101000a81548173ffffffffffffffffffffffffffffffffffffffff021916908373ffffffffffffffffffffffffffffffffffffffff160217905550505061106b806101c26000396000f3fe6080604052600436106100dd5760003560e01c80638d5cfc4c1161007f578063b9b2735c11610059578063b9b2735c146103ef578063e0a999be1461041a578063e5f06fdf14610469578063ea69fee414610480576100dd565b80638d5cfc4c1461031e578063a431ff8a14610363578063ac840db01461039e576100dd565b80631dc25c8a116100bb5780631dc25c8a146101945780632912ba5f146101e757806334c6b027146101f1578063761e348c1461022c576100dd565b806304dbdac1146100df5780630c5eb7b31461012457806312065fe014610169575b005b3480156100eb57600080fd5b506101226004803603604081101561010257600080fd5b8101908080359060200190929190803590602001909291905050506104bb565b005b34801561013057600080fd5b506101676004803603604081101561014757600080fd5b810190808035906020019092919080359060200190929190505050610537565b005b34801561017557600080fd5b5061017e6105b3565b6040518082815260200191505060405180910390f35b3480156101a057600080fd5b506101cd600480360360208110156101b757600080fd5b81019080803590602001909291905050506105bb565b604051808215151515815260200191505060405180910390f35b6101ef610647565b005b3480156101fd57600080fd5b5061022a6004803603602081101561021457600080fd5b8101908080359060200190929190505050610704565b005b34801561023857600080fd5b5061031c6004803603606081101561024f57600080fd5b810190808035906020019064010000000081111561026c57600080fd5b82018360208201111561027e57600080fd5b803590602001918460018302840111640100000000831117156102a057600080fd5b91908080601f016020809104026020016040519081016040528093929190818152602001838380828437600081840152601f19601f820116905080830192505050505050509192919290803573ffffffffffffffffffffffffffffffffffffffff16906020019092919080359060200190929190505050610793565b005b34801561032a57600080fd5b506103616004803603604081101561034157600080fd5b810190808035906020019092919080359060200190929190505050610912565b005b34801561036f57600080fd5b5061039c6004803603602081101561038657600080fd5b810190808035906020019092919050505061098e565b005b3480156103aa57600080fd5b506103ed600480360360208110156103c157600080fd5b81019080803573ffffffffffffffffffffffffffffffffffffffff169060200190929190505050610a1d565b005b3480156103fb57600080fd5b50610404610ae6565b6040518082815260200191505060405180910390f35b34801561042657600080fd5b506104676004803603606081101561043d57600080fd5b81019080803590602001909291908035906020019092919080359060200190929190505050610cc5565b005b34801561047557600080fd5b5061047e610dc3565b005b34801561048c57600080fd5b506104b9600480360360208110156104a357600080fd5b8101908080359060200190929190505050610ecc565b005b60011515600160003373ffffffffffffffffffffffffffffffffffffffff1673ffffffffffffffffffffffffffffffffffffffff16815260200190815260200160002060009054906101000a900460ff1615151461051857600080fd5b8060046000848152602001908152602001600020600301819055505050565b60011515600160003373ffffffffffffffffffffffffffffffffffffffff1673ffffffffffffffffffffffffffffffffffffffff16815260200190815260200160002060009054906101000a900460ff1615151461059457600080fd5b8060046000848152602001908152602001600020600101819055505050565b600047905090565b6000600660006007600085815260200190815260200160002060009054906101000a900473ffffffffffffffffffffffffffffffffffffffff1673ffffffffffffffffffffffffffffffffffffffff1673ffffffffffffffffffffffffffffffffffffffff16815260200190815260200160002060020160009054906101000a900460ff169050919050565b60001515600660003373ffffffffffffffffffffffffffffffffffffffff1673ffffffffffffffffffffffffffffffffffffffff16815260200190815260200160002060020160009054906101000a900460ff161515146106a757600080fd5b6001600660003373ffffffffffffffffffffffffffffffffffffffff1673ffffffffffffffffffffffffffffffffffffffff16815260200190815260200160002060020160006101000a81548160ff021916908315150217905550565b60011515600160003373ffffffffffffffffffffffffffffffffffffffff1673ffffffffffffffffffffffffffffffffffffffff16815260200190815260200160002060009054906101000a900460ff1615151461076157600080fd5b60016004600083815260200190815260200160002060040160006101000a81548160ff02191690831515021790555050565b60011515600160003373ffffffffffffffffffffffffffffffffffffffff1673ffffffffffffffffffffffffffffffffffffffff16815260200190815260200160002060009054906101000a900460ff161515146107f057600080fd5b6040518060800160405280600854815260200184815260200160001515815260200182815250600660008473ffffffffffffffffffffffffffffffffffffffff1673ffffffffffffffffffffffffffffffffffffffff16815260200190815260200160002060008201518160000155602082015181600101908051906020019061087b929190610f91565b5060408201518160020160006101000a81548160ff021916908315150217905550606082015181600301559050508160076000600854815260200190815260200160002060006101000a81548173ffffffffffffffffffffffffffffffffffffffff021916908373ffffffffffffffffffffffffffffffffffffffff16021790555060086000815460010191905081905550505050565b60011515600160003373ffffffffffffffffffffffffffffffffffffffff1673ffffffffffffffffffffffffffffffffffffffff16815260200190815260200160002060009054906101000a900460ff1615151461096f57600080fd5b8060046000848152602001908152602001600020600201819055505050565b60011515600160003373ffffffffffffffffffffffffffffffffffffffff1673ffffffffffffffffffffffffffffffffffffffff16815260200190815260200160002060009054906101000a900460ff161515146109eb57600080fd5b60006004600083815260200190815260200160002060040160006101000a81548160ff02191690831515021790555050565b60011515600160003373ffffffffffffffffffffffffffffffffffffffff1673ffffffffffffffffffffffffffffffffffffffff16815260200190815260200160002060009054906101000a900460ff16151514610a7a57600080fd5b60018060008373ffffffffffffffffffffffffffffffffffffffff1673ffffffffffffffffffffffffffffffffffffffff16815260200190815260200160002060006101000a81548160ff02191690831515021790555060026000815480929190600101919050555050565b600060011515600660003373ffffffffffffffffffffffffffffffffffffffff1673ffffffffffffffffffffffffffffffffffffffff16815260200190815260200160002060020160009054906101000a900460ff1615151415610b4d5760009050610cc2565b6000600660003373ffffffffffffffffffffffffffffffffffffffff1673ffffffffffffffffffffffffffffffffffffffff168152602001908152602001600020600301549050600080905060008090505b600554811015610cbb57600115156004600083815260200190815260200160002060040160009054906101000a900460ff1615151415610cb0578260046000838152602001908152602001600020600101541115610caf5782600460008381526020019081526020016000206002015411610c585760646004600083815260200190815260200160002060010154840360046000848152602001908152602001600020600301540281610c4e57fe5b0482019150610cae565b6064600460008381526020019081526020016000206001015460046000848152602001908152602001600020600201540360046000848152602001908152602001600020600301540281610ca857fe5b04820191505b5b5b806001019050610b9f565b5080925050505b90565b60011515600160003373ffffffffffffffffffffffffffffffffffffffff1673ffffffffffffffffffffffffffffffffffffffff16815260200190815260200160002060009054906101000a900460ff16151514610d2257600080fd5b6040518060a001604052806005548152602001848152602001838152602001828152602001600115158152506004600060055481526020019081526020016000206000820151816000015560208201518160010155604082015181600201556060820151816003015560808201518160040160006101000a81548160ff02191690831515021790555090505060056000815460010191905081905550505050565b60011515600160003373ffffffffffffffffffffffffffffffffffffffff1673ffffffffffffffffffffffffffffffffffffffff16815260200190815260200160002060009054906101000a900460ff16151514610e2057600080fd5b60008090505b600854811015610ec9576000600660006007600085815260200190815260200160002060009054906101000a900473ffffffffffffffffffffffffffffffffffffffff1673ffffffffffffffffffffffffffffffffffffffff1673ffffffffffffffffffffffffffffffffffffffff16815260200190815260200160002060020160006101000a81548160ff021916908315150217905550806001019050610e26565b50565b6000809054906101000a900473ffffffffffffffffffffffffffffffffffffffff1673ffffffffffffffffffffffffffffffffffffffff163373ffffffffffffffffffffffffffffffffffffffff1614610f2557600080fd5b600360009054906101000a900473ffffffffffffffffffffffffffffffffffffffff1673ffffffffffffffffffffffffffffffffffffffff166108fc829081150290604051600060405180830381858888f19350505050158015610f8d573d6000803e3d6000fd5b5050565b828054600181600116156101000203166002900490600052602060002090601f016020900481019282601f10610fd257805160ff1916838001178555611000565b82800160010185558215611000579182015b82811115610fff578251825591602001919060010190610fe4565b5b50905061100d9190611011565b5090565b61103391905b8082111561102f576000816000905550600101611017565b5090565b9056fea265627a7a7231582043d16de0ab0ae369d4630289990a043ea24a4c755e47ee65d48fa53e9549f10e64736f6c6343000510003260806040523480156200001157600080fd5b506040516200208338038062002083833981810160405260c08110156200003757600080fd5b81019080805160405193929190846401000000008211156200005857600080fd5b838201915060208201858111156200006f57600080fd5b82518660018202830111640100000000821117156200008d57600080fd5b8083526020830192505050908051906020019080838360005b83811015620000c3578082015181840152602081019050620000a6565b50505050905090810190601f168015620000f15780820380516001836020036101000a031916815260200191505b50604052602001805160405193929190846401000000008211156200011557600080fd5b838201915060208201858111156200012c57600080fd5b82518660018202830111640100000000821117156200014a57600080fd5b8083526020830192505050908051906020019080838360005b838110156200018057808201518184015260208101905062000163565b50505050905090810190601f168015620001ae5780820380516001836020036101000a031916815260200191505b5060405260200180516040519392919084640100000000821115620001d257600080fd5b83820191506020820185811115620001e957600080fd5b82518660018202830111640100000000821117156200020757600080fd5b8083526020830192505050908051906020019080838360005b838110156200023d57808201518184015260208101905062000220565b50505050905090810190601f1680156200026b5780820380516001836020036101000a031916815260200191505b50604052602001805190602001909291908051906020019092919080519060200190929190505050336000806101000a81548173ffffffffffffffffffffffffffffffffffffffff021916908373ffffffffffffffffffffffffffffffffffffffff160217905550600060028190555060018060008060009054906101000a900473ffffffffffffffffffffffffffffffffffffffff1673ffffffffffffffffffffffffffffffffffffffff1673ffffffffffffffffffffffffffffffffffffffff16815260200190815260200160002060006101000a81548160ff021916908315150217905550600260008154809291906001019190505550826000806101000a81548173ffffffffffffffffffffffffffffffffffffffff021916908373ffffffffffffffffffffffffffffffffffffffff16021790555080600660006101000a81548173ffffffffffffffffffffffffffffffffffffffff021916908373ffffffffffffffffffffffffffffffffffffffff1602179055508560039080519060200190620003fe9291906200047e565b508460049080519060200190620004179291906200047e565b508360059080519060200190620004309291906200047e565b5081600960006101000a81548173ffffffffffffffffffffffffffffffffffffffff021916908373ffffffffffffffffffffffffffffffffffffffff1602179055505050505050506200052d565b828054600181600116156101000203166002900490600052602060002090601f016020900481019282601f10620004c157805160ff1916838001178555620004f2565b82800160010185558215620004f2579182015b82811115620004f1578251825591602001919060010190620004d4565b5b50905062000501919062000505565b5090565b6200052a91905b80821115620005265760008160009055506001016200050c565b5090565b90565b611b46806200053d6000396000f3fe60806040526004361061009c5760003560e01c80635b5287f9116100645780635b5287f91461026d57806380d038e314610456578063a2b7a8c31461063f578063ac840db014610686578063de8f51d5146106d7578063e2a50f77146108e15761009c565b806303b2a7391461009e57806312065fe01461011957806321e19b49146101445780634132327b146101a2578063511482f1146101b9575b005b3480156100aa57600080fd5b506100d7600480360360208110156100c157600080fd5b810190808035906020019092919050505061093f565b604051808273ffffffffffffffffffffffffffffffffffffffff1673ffffffffffffffffffffffffffffffffffffffff16815260200191505060405180910390f35b34801561012557600080fd5b5061012e610972565b6040518082815260200191505060405180910390f35b34801561015057600080fd5b5061017d6004803603602081101561016757600080fd5b810190808035906020019092919050505061097a565b6040518083151515158152602001821515151581526020019250505060405180910390f35b3480156101ae57600080fd5b506101b7610a3d565b005b3480156101c557600080fd5b506101f2600480360360208110156101dc57600080fd5b8101908080359060200190929190505050610bb9565b6040518080602001828103825283818151815260200191508051906020019080838360005b83811015610232578082015181840152602081019050610217565b50505050905090810190601f16801561025f5780820380516001836020036101000a031916815260200191505b509250505060405180910390f35b34801561027957600080fd5b506103d46004803603606081101561029057600080fd5b81019080803590602001906401000000008111156102ad57600080fd5b8201836020820111156102bf57600080fd5b803590602001918460018302840111640100000000831117156102e157600080fd5b91908080601f016020809104026020016040519081016040528093929190818152602001838380828437600081840152601f19601f8201169050808301925050505050505091929192908035906020019064010000000081111561034457600080fd5b82018360208201111561035657600080fd5b8035906020019184600183028401116401000000008311171561037857600080fd5b91908080601f016020809104026020016040519081016040528093929190818152602001838380828437600081840152601f19601f82011690508083019250505050505050919291929080359060200190929190505050610da2565b6040518080602001838152602001828103825284818151815260200191508051906020019080838360005b8381101561041a5780820151818401526020810190506103ff565b50505050905090810190601f1680156104475780820380516001836020036101000a031916815260200191505b50935050505060405180910390f35b34801561046257600080fd5b506105bd6004803603606081101561047957600080fd5b810190808035906020019064010000000081111561049657600080fd5b8201836020820111156104a857600080fd5b803590602001918460018302840111640100000000831117156104ca57600080fd5b91908080601f016020809104026020016040519081016040528093929190818152602001838380828437600081840152601f19601f8201169050808301925050505050505091929192908035906020019064010000000081111561052d57600080fd5b82018360208201111561053f57600080fd5b8035906020019184600183028401116401000000008311171561056157600080fd5b91908080601f016020809104026020016040519081016040528093929190818152602001838380828437600081840152601f19601f82011690508083019250505050505050919291929080359060200190929190505050611060565b6040518080602001838152602001828103825284818151815260200191508051906020019080838360005b838110156106035780820151818401526020810190506105e8565b50505050905090810190601f1680156106305780820380516001836020036101000a031916815260200191505b50935050505060405180910390f35b34801561064b57600080fd5b506106846004803603604081101561066257600080fd5b8101908080359060200190929190803515159060200190929190505050611374565b005b34801561069257600080fd5b506106d5600480360360208110156106a957600080fd5b81019080803573ffffffffffffffffffffffffffffffffffffffff169060200190929190505050611621565b005b3480156106e357600080fd5b506108cb600480360360608110156106fa57600080fd5b810190808035906020019064010000000081111561071757600080fd5b82018360208201111561072957600080fd5b8035906020019184600183028401116401000000008311171561074b57600080fd5b91908080601f016020809104026020016040519081016040528093929190818152602001838380828437600081840152601f19601f820116905080830192505050505050509192919290803590602001906401000000008111156107ae57600080fd5b8201836020820111156107c057600080fd5b803590602001918460018302840111640100000000831117156107e257600080fd5b91908080601f016020809104026020016040519081016040528093929190818152602001838380828437600081840152601f19601f8201169050808301925050505050505091929192908035906020019064010000000081111561084557600080fd5b82018360208201111561085757600080fd5b8035906020019184600183028401116401000000008311171561087957600080fd5b91908080601f016020809104026020016040519081016040528093929190818152602001838380828437600081840152601f19601f8201169050808301925050505050505091929192905050506116ea565b6040518082815260200191505060405180910390f35b3480156108ed57600080fd5b5061091a6004803603602081101561090457600080fd5b81019080803590602001909291905050506119aa565b6040518083151515158152602001821515151581526020019250505060405180910390f35b60076020528060005260406000206000915054906101000a900473ffffffffffffffffffffffffffffffffffffffff1681565b600047905090565b600080600660009054906101000a900473ffffffffffffffffffffffffffffffffffffffff1673ffffffffffffffffffffffffffffffffffffffff1663e2a50f77846040518263ffffffff1660e01b815260040180828152602001915050604080518083038186803b1580156109ef57600080fd5b505afa158015610a03573d6000803e3d6000fd5b505050506040513d6040811015610a1957600080fd5b81019080805190602001909291908051906020019092919050505091509150915091565b6000809054906101000a900473ffffffffffffffffffffffffffffffffffffffff1673ffffffffffffffffffffffffffffffffffffffff163373ffffffffffffffffffffffffffffffffffffffff1614610a9657600080fd5b6000671bc16d674ec800009050600080600a80549050905060008090505b81811015610bb3576000600a8281548110610acb57fe5b906000526020600020906008020190508060030160169054906101000a900460ff168015610b0757508060030160149054906101000a900460ff165b15610ba75784816002015410610b1d5784610b23565b80600201545b9350610b2e846119fa565b15610ba057610b618160030160009054906101000a900473ffffffffffffffffffffffffffffffffffffffff1685611a21565b838160020154038160020181905550600081600201541415610b9b5760008160030160166101000a81548160ff0219169083151502179055505b610ba6565b50610bb3565b5b50806001019050610ab4565b50505050565b60606000600960009054906101000a900473ffffffffffffffffffffffffffffffffffffffff1673ffffffffffffffffffffffffffffffffffffffff1663511482f1846040518263ffffffff1660e01b815260040180828152602001915050602060405180830381600087803b158015610c3257600080fd5b505af1158015610c46573d6000803e3d6000fd5b505050506040513d6020811015610c5c57600080fd5b8101908080519060200190929190505050905060008073ffffffffffffffffffffffffffffffffffffffff168273ffffffffffffffffffffffffffffffffffffffff161415610ce4576040518060400160405280601481526020017f4e6f204e65772050726f6a65637420616464656400000000000000000000000081525092505050610d9d565b816007600086815260200190815260200160002060006101000a81548173ffffffffffffffffffffffffffffffffffffffff021916908373ffffffffffffffffffffffffffffffffffffffff16021790555060088490806001815401808255809150509060018203906000526020600020016000909192909190915055506040518060400160405280601181526020017f4e65772050726f6a656374204164646564000000000000000000000000000000815250925050505b919050565b606060008060009054906101000a900473ffffffffffffffffffffffffffffffffffffffff1673ffffffffffffffffffffffffffffffffffffffff163373ffffffffffffffffffffffffffffffffffffffff1614610dff57600080fd5b600660009054906101000a900473ffffffffffffffffffffffffffffffffffffffff1673ffffffffffffffffffffffffffffffffffffffff166380d038e38686866040518463ffffffff1660e01b8152600401808060200180602001848152602001838103835286818151815260200191508051906020019080838360005b83811015610e99578082015181840152602081019050610e7e565b50505050905090810190601f168015610ec65780820380516001836020036101000a031916815260200191505b50838103825285818151815260200191508051906020019080838360005b83811015610eff578082015181840152602081019050610ee4565b50505050905090810190601f168015610f2c5780820380516001836020036101000a031916815260200191505b5095505050505050600060405180830381600087803b158015610f4e57600080fd5b505af1158015610f62573d6000803e3d6000fd5b505050506040513d6000823e3d601f19601f820116820180604052506040811015610f8c57600080fd5b8101908080516040519392919084640100000000821115610fac57600080fd5b83820191506020820185811115610fc257600080fd5b8251866001820283011164010000000082111715610fdf57600080fd5b8083526020830192505050908051906020019080838360005b83811015611013578082015181840152602081019050610ff8565b50505050905090810190601f1680156110405780820380516001836020036101000a031916815260200191505b506040526020018051906020019092919050505091509150935093915050565b6060600080600880549050905060008090505b8181101561130a573373ffffffffffffffffffffffffffffffffffffffff1660076000600884815481106110a357fe5b9060005260206000200154815260200190815260200160002060009054906101000a900473ffffffffffffffffffffffffffffffffffffffff1673ffffffffffffffffffffffffffffffffffffffff1614156112ff57600a6040518061014001604052808981526020018881526020018781526020013373ffffffffffffffffffffffffffffffffffffffff1681526020016000151581526020016001151581526020016001151581526020016000815260200160008152602001600015158152509080600181540180825580915050906001820390600052602060002090600802016000909192909190915060008201518160000190805190602001906111ac929190611a6c565b5060208201518160010190805190602001906111c9929190611a6c565b506040820151816002015560608201518160030160006101000a81548173ffffffffffffffffffffffffffffffffffffffff021916908373ffffffffffffffffffffffffffffffffffffffff16021790555060808201518160030160146101000a81548160ff02191690831515021790555060a08201518160030160156101000a81548160ff02191690831515021790555060c08201518160030160166101000a81548160ff02191690831515021790555060e0820151816004015561010082015181600501556101208201518160070160006101000a81548160ff0219169083151502179055505050506001600a80549050036040518060400160405280600d81526020017f52657175657374204164646564000000000000000000000000000000000000008152509093509350505061136c565b806001019050611073565b507fffffffffffffffffffffffffffffffffffffffffffffffffffffffffffffffff6040518060400160405280601481526020017f5265717565737420496e6170706c696361626c650000000000000000000000008152509080905092509250505b935093915050565b60011515600160003373ffffffffffffffffffffffffffffffffffffffff1673ffffffffffffffffffffffffffffffffffffffff16815260200190815260200160002060009054906101000a900460ff161515146113d157600080fd5b6000600a83815481106113e057fe5b906000526020600020906008020190508060060160003373ffffffffffffffffffffffffffffffffffffffff1673ffffffffffffffffffffffffffffffffffffffff16815260200190815260200160002060009054906101000a900460ff161561144957600080fd5b60018160060160003373ffffffffffffffffffffffffffffffffffffffff1673ffffffffffffffffffffffffffffffffffffffff16815260200190815260200160002060006101000a81548160ff021916908315150217905550806004016000815480929190600101919050555081156114d25780600501600081548092919060010191905055505b6000809054906101000a900473ffffffffffffffffffffffffffffffffffffffff1673ffffffffffffffffffffffffffffffffffffffff163373ffffffffffffffffffffffffffffffffffffffff1614156115455760018160070160006101000a81548160ff0219169083151502179055505b600115158160070160009054906101000a900460ff16151514801561157c5750600a6002546007028161157457fe5b048160050154115b156115c05760008160030160156101000a81548160ff02191690831515021790555060018160030160146101000a81548160ff02191690831515021790555061161c565b600a600254600302816115cf57fe5b0481600501548260040154031061161b5760008160030160156101000a81548160ff02191690831515021790555060008160030160146101000a81548160ff0219169083151502179055505b5b505050565b60011515600160003373ffffffffffffffffffffffffffffffffffffffff1673ffffffffffffffffffffffffffffffffffffffff16815260200190815260200160002060009054906101000a900460ff1615151461167e57600080fd5b60018060008373ffffffffffffffffffffffffffffffffffffffff1673ffffffffffffffffffffffffffffffffffffffff16815260200190815260200160002060006101000a81548160ff02191690831515021790555060026000815480929190600101919050555050565b60008060009054906101000a900473ffffffffffffffffffffffffffffffffffffffff1673ffffffffffffffffffffffffffffffffffffffff163373ffffffffffffffffffffffffffffffffffffffff161461174557600080fd5b606084905060008151141561175957600080fd5b83905060008151141561176b57600080fd5b82905060008151141561177d57600080fd5b600960009054906101000a900473ffffffffffffffffffffffffffffffffffffffff1673ffffffffffffffffffffffffffffffffffffffff16630301b1d6868587336040518563ffffffff1660e01b8152600401808060200180602001806020018573ffffffffffffffffffffffffffffffffffffffff1673ffffffffffffffffffffffffffffffffffffffff168152602001848103845288818151815260200191508051906020019080838360005b8381101561184857808201518184015260208101905061182d565b50505050905090810190601f1680156118755780820380516001836020036101000a031916815260200191505b50848103835287818151815260200191508051906020019080838360005b838110156118ae578082015181840152602081019050611893565b50505050905090810190601f1680156118db5780820380516001836020036101000a031916815260200191505b50848103825286818151815260200191508051906020019080838360005b838110156119145780820151818401526020810190506118f9565b50505050905090810190601f1680156119415780820380516001836020036101000a031916815260200191505b50975050505050505050602060405180830381600087803b15801561196557600080fd5b505af1158015611979573d6000803e3d6000fd5b505050506040513d602081101561198f57600080fd5b81019080805190602001909291905050509150509392505050565b6000806000600a84815481106119bc57fe5b906000526020600020906008020190508060030160159054906101000a900460ff168160030160149054906101000a900460ff169250925050915091565b600081671bc16d674ec8000001471115611a175760019050611a1c565b600090505b919050565b8173ffffffffffffffffffffffffffffffffffffffff166108fc829081150290604051600060405180830381858888f19350505050158015611a67573d6000803e3d6000fd5b505050565b828054600181600116156101000203166002900490600052602060002090601f016020900481019282601f10611aad57805160ff1916838001178555611adb565b82800160010185558215611adb579182015b82811115611ada578251825591602001919060010190611abf565b5b509050611ae89190611aec565b5090565b611b0e91905b80821115611b0a576000816000905550600101611af2565b5090565b9056fea265627a7a72315820415f259eef1825ea5cf431fd054019a5065b23ccb96cd28cfd60eccae4be9e1f64736f6c63430005100032",
  "source": "pragma solidity ^0.5.16;\r\n\r\nimport \"./Official.sol\";\r\nimport \"./Project.sol\";\r\nimport \"./TaxCollection.sol\";\r\n\r\ncontract Central_Authority is Official{\r\n\r\n    struct Project_Request{\r\n        string Project_name;\r\n        string document_url;\r\n        string purpose;\r\n        address official_incharge;\r\n        address payable parent_project;\r\n        bool isComplete;\r\n        uint voters;//this will keep count of positive vote count only\r\n        mapping(address=>bool) voted_officials;\r\n    }\r\n    \r\n    Project public central;\r\n\r\n    TaxCollection taxCollection;\r\n\r\n    function createProject(Project_Request memory _request) private returns (Project ) {\r\n        Project newProject = new Project(_request.Project_name,_request.document_url,_request.purpose,_request.official_incharge,this,_request.parent_project);\r\n        return newProject;\r\n    }\r\n\r\n    mapping(uint => Project_Request) requestedProjects;//mapping from token to project address \r\n    mapping(uint => address) public deployedProjectsAddresses; // may become costly otherwise, shouldnt overload blockchain\r\n    uint token;\r\n\r\n    constructor() public {\r\n        Project_Request memory request = Project_Request({\r\n            Project_name:\"Central_Authority\",\r\n            document_url:\"\",\r\n            purpose:'',\r\n            official_incharge:owner,\r\n            parent_project:address(this), // had to be a payable address\r\n            isComplete:true,\r\n            voters:0\r\n        });\r\n        token = 1;\r\n        central = createProject(request);\r\n        taxCollection = new TaxCollection(owner, address(this));\r\n    }\r\n    \r\n    function() external payable {}\r\n    \r\n    function addNewProjectRequest(string memory _Project_name,string memory _document_url,string memory _purpose, address _official_incharge) public returns (uint) {\r\n        //In this function we will make the struct of current request and add that to the list of requestedProjects[]\r\n        \r\n        Project_Request memory new_request = Project_Request({\r\n            Project_name:_Project_name,\r\n            document_url:_document_url,\r\n            purpose:_purpose,\r\n            official_incharge:_official_incharge,\r\n            parent_project:msg.sender,\r\n            isComplete:false,\r\n            voters:0\r\n        });\r\n\r\n        requestedProjects[token] = new_request;\r\n        token++;\r\n        return token-1;\r\n    }\r\n\r\n    //here index reassemble token\r\n    function voteForProject(uint _index,bool _decision) public officialOnly {\r\n        Project_Request storage request = requestedProjects[_index];\r\n        \r\n        require(!request.voted_officials[msg.sender]);//the person has not voted so far\r\n        \r\n        request.voted_officials[msg.sender]=true;\r\n        if(_decision)\r\n            request.voters++;\r\n    }\r\n    \r\n    function verifyPending_Projects(uint _token) public returns(Project){\r\n\r\n        require(_token>=1 && _token<token); // checking token validity\r\n        \r\n        Project newProject;\r\n        // uint n = requestedProjects.length;\r\n        Project_Request storage current_req = requestedProjects[_token];\r\n        //if value for some key doesn't exist the mapping will return the default value of that data type\r\n        //as I have custom mapping so need to following below method\r\n        // Project_Request memory cmp;\r\n        // require(current_req != cmp);//case for invalid token\r\n\r\n        require(current_req.parent_project == msg.sender);\r\n\r\n        if(current_req.voters >= total_officals && !current_req.isComplete){ //currently it requires all of the officials to vote in favour\r\n            \r\n            newProject = createProject(current_req);\r\n            \r\n            current_req.isComplete = true;\r\n\r\n            deployedProjectsAddresses[_token] = address(newProject);\r\n        }\r\n        \r\n        return newProject;\r\n    }\r\n\r\n    function grantFundsToCentralProject(uint _amount) public ownerOnly {\r\n        address(central).transfer(_amount); \r\n        // call event;\r\n    }\r\n}",
  "sourcePath": "E:\\MAJOR PROJECT\\Blockchain\\contracts\\Central_Authority.sol",
  "compiler": {
    "name": "solc",
    "version": "0.5.16+commit.9c3226ce.Emscripten.clang"
  },
  "schemaVersion": "3.3.3",
  "updatedAt": "2021-03-07T23:11:53.486Z",
  "networkType": "ethereum",
  "devdoc": {
    "methods": {}
  },
  "userdoc": {
    "methods": {}
  }
}