{
  "contractName": "Official",
  "abi": [
    {
      "inputs": [],
      "payable": false,
      "stateMutability": "nonpayable",
      "type": "constructor"
    },
    {
      "constant": false,
      "inputs": [
        {
          "internalType": "address",
          "name": "_add",
          "type": "address"
        }
      ],
      "name": "addOfficial",
      "outputs": [],
      "payable": false,
      "stateMutability": "nonpayable",
      "type": "function"
    },
    {
      "constant": true,
      "inputs": [],
      "name": "getBalance",
      "outputs": [
        {
          "internalType": "uint256",
          "name": "",
          "type": "uint256"
        }
      ],
      "payable": false,
      "stateMutability": "view",
      "type": "function"
    }
  ],
  "bytecode": "0x608060405234801561001057600080fd5b50336000806101000a81548173ffffffffffffffffffffffffffffffffffffffff021916908373ffffffffffffffffffffffffffffffffffffffff160217905550600060028190555060018060008060009054906101000a900473ffffffffffffffffffffffffffffffffffffffff1673ffffffffffffffffffffffffffffffffffffffff1673ffffffffffffffffffffffffffffffffffffffff16815260200190815260200160002060006101000a81548160ff0219169083151502179055506002600081548092919060010191905055506101a3806100f26000396000f3fe608060405234801561001057600080fd5b50600436106100365760003560e01c806312065fe01461003b578063ac840db014610059575b600080fd5b61004361009d565b6040518082815260200191505060405180910390f35b61009b6004803603602081101561006f57600080fd5b81019080803573ffffffffffffffffffffffffffffffffffffffff1690602001909291905050506100a5565b005b600047905090565b60011515600160003373ffffffffffffffffffffffffffffffffffffffff1673ffffffffffffffffffffffffffffffffffffffff16815260200190815260200160002060009054906101000a900460ff1615151461010257600080fd5b60018060008373ffffffffffffffffffffffffffffffffffffffff1673ffffffffffffffffffffffffffffffffffffffff16815260200190815260200160002060006101000a81548160ff0219169083151502179055506002600081548092919060010191905055505056fea265627a7a723158208a680a125bbd80912d9e6f6fc1475ed943d0da6672effd2c27296e73a567ac4b64736f6c63430005100032",
  "source": "pragma solidity ^0.5.16;\r\n\r\ncontract Official {\r\n\r\n    address owner;\r\n    \r\n    mapping(address => bool) officials;\r\n    uint total_officals;\r\n\r\n    modifier officialOnly {\r\n        require(officials[msg.sender]==true);\r\n        _;\r\n    }\r\n\r\n    modifier ownerOnly {\r\n        require(msg.sender==owner);\r\n        _;\r\n    }\r\n\r\n    constructor() public {\r\n        owner=msg.sender;\r\n        total_officals=0;\r\n        officials[owner]=true;\r\n        total_officals++;\r\n    }\r\n\r\n    function addOfficial(address _add) public officialOnly{\r\n        officials[_add]=true;\r\n        total_officals++;\r\n    }\r\n\r\n    function getBalance() public view returns (uint) {\r\n        return address(this).balance;\r\n    }\r\n}",
  "sourcePath": "E:\\MAJOR PROJECT\\Blockchain\\contracts\\Official.sol",
  "compiler": {
    "name": "solc",
    "version": "0.5.16+commit.9c3226ce.Emscripten.clang"
  },
  "schemaVersion": "3.3.3",
  "updatedAt": "2021-03-07T23:11:48.007Z",
  "devdoc": {
    "methods": {}
  },
  "userdoc": {
    "methods": {}
  }
}