{
  "contractName": "TaxCollection",
  "abi": [
    {
      "inputs": [
        {
          "internalType": "address",
          "name": "_owner",
          "type": "address"
        },
        {
          "internalType": "address payable",
          "name": "_centralAuthorityAddress",
          "type": "address"
        }
      ],
      "payable": false,
      "stateMutability": "nonpayable",
      "type": "constructor"
    },
    {
      "payable": true,
      "stateMutability": "payable",
      "type": "fallback"
    },
    {
      "constant": false,
      "inputs": [
        {
          "internalType": "address",
          "name": "_add",
          "type": "address"
        }
      ],
      "name": "addOfficial",
      "outputs": [],
      "payable": false,
      "stateMutability": "nonpayable",
      "type": "function"
    },
    {
      "constant": true,
      "inputs": [],
      "name": "getBalance",
      "outputs": [
        {
          "internalType": "uint256",
          "name": "",
          "type": "uint256"
        }
      ],
      "payable": false,
      "stateMutability": "view",
      "type": "function"
    },
    {
      "constant": false,
      "inputs": [
        {
          "internalType": "string",
          "name": "_name",
          "type": "string"
        },
        {
          "internalType": "address",
          "name": "_address",
          "type": "address"
        },
        {
          "internalType": "uint256",
          "name": "_annualIncome",
          "type": "uint256"
        }
      ],
      "name": "addTaxPayer",
      "outputs": [],
      "payable": false,
      "stateMutability": "nonpayable",
      "type": "function"
    },
    {
      "constant": false,
      "inputs": [
        {
          "internalType": "uint256",
          "name": "_lowerLimit",
          "type": "uint256"
        },
        {
          "internalType": "uint256",
          "name": "_upperLimit",
          "type": "uint256"
        },
        {
          "internalType": "uint256",
          "name": "_percentage",
          "type": "uint256"
        }
      ],
      "name": "addTaxBracket",
      "outputs": [],
      "payable": false,
      "stateMutability": "nonpayable",
      "type": "function"
    },
    {
      "constant": false,
      "inputs": [
        {
          "internalType": "uint256",
          "name": "_code",
          "type": "uint256"
        },
        {
          "internalType": "uint256",
          "name": "_newLimit",
          "type": "uint256"
        }
      ],
      "name": "updateLowerLimitOfBracket",
      "outputs": [],
      "payable": false,
      "stateMutability": "nonpayable",
      "type": "function"
    },
    {
      "constant": false,
      "inputs": [
        {
          "internalType": "uint256",
          "name": "_code",
          "type": "uint256"
        },
        {
          "internalType": "uint256",
          "name": "_newLimit",
          "type": "uint256"
        }
      ],
      "name": "updateUpperLimitOfBracket",
      "outputs": [],
      "payable": false,
      "stateMutability": "nonpayable",
      "type": "function"
    },
    {
      "constant": false,
      "inputs": [
        {
          "internalType": "uint256",
          "name": "_code",
          "type": "uint256"
        },
        {
          "internalType": "uint256",
          "name": "_newPercentage",
          "type": "uint256"
        }
      ],
      "name": "updateTaxPercentageOfBracket",
      "outputs": [],
      "payable": false,
      "stateMutability": "nonpayable",
      "type": "function"
    },
    {
      "constant": false,
      "inputs": [
        {
          "internalType": "uint256",
          "name": "_code",
          "type": "uint256"
        }
      ],
      "name": "disableTaxBracket",
      "outputs": [],
      "payable": false,
      "stateMutability": "nonpayable",
      "type": "function"
    },
    {
      "constant": false,
      "inputs": [
        {
          "internalType": "uint256",
          "name": "_code",
          "type": "uint256"
        }
      ],
      "name": "enableTaxBracket",
      "outputs": [],
      "payable": false,
      "stateMutability": "nonpayable",
      "type": "function"
    },
    {
      "constant": true,
      "inputs": [],
      "name": "calculateTax",
      "outputs": [
        {
          "internalType": "uint256",
          "name": "",
          "type": "uint256"
        }
      ],
      "payable": false,
      "stateMutability": "view",
      "type": "function"
    },
    {
      "constant": false,
      "inputs": [],
      "name": "payTax",
      "outputs": [],
      "payable": true,
      "stateMutability": "payable",
      "type": "function"
    },
    {
      "constant": false,
      "inputs": [],
      "name": "resetTaxPayments",
      "outputs": [],
      "payable": false,
      "stateMutability": "nonpayable",
      "type": "function"
    },
    {
      "constant": true,
      "inputs": [
        {
          "internalType": "uint256",
          "name": "_id",
          "type": "uint256"
        }
      ],
      "name": "hasPaidTax",
      "outputs": [
        {
          "internalType": "bool",
          "name": "",
          "type": "bool"
        }
      ],
      "payable": false,
      "stateMutability": "view",
      "type": "function"
    },
    {
      "constant": false,
      "inputs": [
        {
          "internalType": "uint256",
          "name": "_amount",
          "type": "uint256"
        }
      ],
      "name": "grantFundsToCentralAuthority",
      "outputs": [],
      "payable": false,
      "stateMutability": "nonpayable",
      "type": "function"
    }
  ],
  "bytecode": "0x608060405234801561001057600080fd5b5060405161122d38038061122d8339818101604052604081101561003357600080fd5b810190808051906020019092919080519060200190929190505050336000806101000a81548173ffffffffffffffffffffffffffffffffffffffff021916908373ffffffffffffffffffffffffffffffffffffffff160217905550600060028190555060018060008060009054906101000a900473ffffffffffffffffffffffffffffffffffffffff1673ffffffffffffffffffffffffffffffffffffffff1673ffffffffffffffffffffffffffffffffffffffff16815260200190815260200160002060006101000a81548160ff021916908315150217905550600260008154809291906001019190505550816000806101000a81548173ffffffffffffffffffffffffffffffffffffffff021916908373ffffffffffffffffffffffffffffffffffffffff1602179055506000600881905550600060058190555080600360006101000a81548173ffffffffffffffffffffffffffffffffffffffff021916908373ffffffffffffffffffffffffffffffffffffffff160217905550505061106b806101c26000396000f3fe6080604052600436106100dd5760003560e01c80638d5cfc4c1161007f578063b9b2735c11610059578063b9b2735c146103ef578063e0a999be1461041a578063e5f06fdf14610469578063ea69fee414610480576100dd565b80638d5cfc4c1461031e578063a431ff8a14610363578063ac840db01461039e576100dd565b80631dc25c8a116100bb5780631dc25c8a146101945780632912ba5f146101e757806334c6b027146101f1578063761e348c1461022c576100dd565b806304dbdac1146100df5780630c5eb7b31461012457806312065fe014610169575b005b3480156100eb57600080fd5b506101226004803603604081101561010257600080fd5b8101908080359060200190929190803590602001909291905050506104bb565b005b34801561013057600080fd5b506101676004803603604081101561014757600080fd5b810190808035906020019092919080359060200190929190505050610537565b005b34801561017557600080fd5b5061017e6105b3565b6040518082815260200191505060405180910390f35b3480156101a057600080fd5b506101cd600480360360208110156101b757600080fd5b81019080803590602001909291905050506105bb565b604051808215151515815260200191505060405180910390f35b6101ef610647565b005b3480156101fd57600080fd5b5061022a6004803603602081101561021457600080fd5b8101908080359060200190929190505050610704565b005b34801561023857600080fd5b5061031c6004803603606081101561024f57600080fd5b810190808035906020019064010000000081111561026c57600080fd5b82018360208201111561027e57600080fd5b803590602001918460018302840111640100000000831117156102a057600080fd5b91908080601f016020809104026020016040519081016040528093929190818152602001838380828437600081840152601f19601f820116905080830192505050505050509192919290803573ffffffffffffffffffffffffffffffffffffffff16906020019092919080359060200190929190505050610793565b005b34801561032a57600080fd5b506103616004803603604081101561034157600080fd5b810190808035906020019092919080359060200190929190505050610912565b005b34801561036f57600080fd5b5061039c6004803603602081101561038657600080fd5b810190808035906020019092919050505061098e565b005b3480156103aa57600080fd5b506103ed600480360360208110156103c157600080fd5b81019080803573ffffffffffffffffffffffffffffffffffffffff169060200190929190505050610a1d565b005b3480156103fb57600080fd5b50610404610ae6565b6040518082815260200191505060405180910390f35b34801561042657600080fd5b506104676004803603606081101561043d57600080fd5b81019080803590602001909291908035906020019092919080359060200190929190505050610cc5565b005b34801561047557600080fd5b5061047e610dc3565b005b34801561048c57600080fd5b506104b9600480360360208110156104a357600080fd5b8101908080359060200190929190505050610ecc565b005b60011515600160003373ffffffffffffffffffffffffffffffffffffffff1673ffffffffffffffffffffffffffffffffffffffff16815260200190815260200160002060009054906101000a900460ff1615151461051857600080fd5b8060046000848152602001908152602001600020600301819055505050565b60011515600160003373ffffffffffffffffffffffffffffffffffffffff1673ffffffffffffffffffffffffffffffffffffffff16815260200190815260200160002060009054906101000a900460ff1615151461059457600080fd5b8060046000848152602001908152602001600020600101819055505050565b600047905090565b6000600660006007600085815260200190815260200160002060009054906101000a900473ffffffffffffffffffffffffffffffffffffffff1673ffffffffffffffffffffffffffffffffffffffff1673ffffffffffffffffffffffffffffffffffffffff16815260200190815260200160002060020160009054906101000a900460ff169050919050565b60001515600660003373ffffffffffffffffffffffffffffffffffffffff1673ffffffffffffffffffffffffffffffffffffffff16815260200190815260200160002060020160009054906101000a900460ff161515146106a757600080fd5b6001600660003373ffffffffffffffffffffffffffffffffffffffff1673ffffffffffffffffffffffffffffffffffffffff16815260200190815260200160002060020160006101000a81548160ff021916908315150217905550565b60011515600160003373ffffffffffffffffffffffffffffffffffffffff1673ffffffffffffffffffffffffffffffffffffffff16815260200190815260200160002060009054906101000a900460ff1615151461076157600080fd5b60016004600083815260200190815260200160002060040160006101000a81548160ff02191690831515021790555050565b60011515600160003373ffffffffffffffffffffffffffffffffffffffff1673ffffffffffffffffffffffffffffffffffffffff16815260200190815260200160002060009054906101000a900460ff161515146107f057600080fd5b6040518060800160405280600854815260200184815260200160001515815260200182815250600660008473ffffffffffffffffffffffffffffffffffffffff1673ffffffffffffffffffffffffffffffffffffffff16815260200190815260200160002060008201518160000155602082015181600101908051906020019061087b929190610f91565b5060408201518160020160006101000a81548160ff021916908315150217905550606082015181600301559050508160076000600854815260200190815260200160002060006101000a81548173ffffffffffffffffffffffffffffffffffffffff021916908373ffffffffffffffffffffffffffffffffffffffff16021790555060086000815460010191905081905550505050565b60011515600160003373ffffffffffffffffffffffffffffffffffffffff1673ffffffffffffffffffffffffffffffffffffffff16815260200190815260200160002060009054906101000a900460ff1615151461096f57600080fd5b8060046000848152602001908152602001600020600201819055505050565b60011515600160003373ffffffffffffffffffffffffffffffffffffffff1673ffffffffffffffffffffffffffffffffffffffff16815260200190815260200160002060009054906101000a900460ff161515146109eb57600080fd5b60006004600083815260200190815260200160002060040160006101000a81548160ff02191690831515021790555050565b60011515600160003373ffffffffffffffffffffffffffffffffffffffff1673ffffffffffffffffffffffffffffffffffffffff16815260200190815260200160002060009054906101000a900460ff16151514610a7a57600080fd5b60018060008373ffffffffffffffffffffffffffffffffffffffff1673ffffffffffffffffffffffffffffffffffffffff16815260200190815260200160002060006101000a81548160ff02191690831515021790555060026000815480929190600101919050555050565b600060011515600660003373ffffffffffffffffffffffffffffffffffffffff1673ffffffffffffffffffffffffffffffffffffffff16815260200190815260200160002060020160009054906101000a900460ff1615151415610b4d5760009050610cc2565b6000600660003373ffffffffffffffffffffffffffffffffffffffff1673ffffffffffffffffffffffffffffffffffffffff168152602001908152602001600020600301549050600080905060008090505b600554811015610cbb57600115156004600083815260200190815260200160002060040160009054906101000a900460ff1615151415610cb0578260046000838152602001908152602001600020600101541115610caf5782600460008381526020019081526020016000206002015411610c585760646004600083815260200190815260200160002060010154840360046000848152602001908152602001600020600301540281610c4e57fe5b0482019150610cae565b6064600460008381526020019081526020016000206001015460046000848152602001908152602001600020600201540360046000848152602001908152602001600020600301540281610ca857fe5b04820191505b5b5b806001019050610b9f565b5080925050505b90565b60011515600160003373ffffffffffffffffffffffffffffffffffffffff1673ffffffffffffffffffffffffffffffffffffffff16815260200190815260200160002060009054906101000a900460ff16151514610d2257600080fd5b6040518060a001604052806005548152602001848152602001838152602001828152602001600115158152506004600060055481526020019081526020016000206000820151816000015560208201518160010155604082015181600201556060820151816003015560808201518160040160006101000a81548160ff02191690831515021790555090505060056000815460010191905081905550505050565b60011515600160003373ffffffffffffffffffffffffffffffffffffffff1673ffffffffffffffffffffffffffffffffffffffff16815260200190815260200160002060009054906101000a900460ff16151514610e2057600080fd5b60008090505b600854811015610ec9576000600660006007600085815260200190815260200160002060009054906101000a900473ffffffffffffffffffffffffffffffffffffffff1673ffffffffffffffffffffffffffffffffffffffff1673ffffffffffffffffffffffffffffffffffffffff16815260200190815260200160002060020160006101000a81548160ff021916908315150217905550806001019050610e26565b50565b6000809054906101000a900473ffffffffffffffffffffffffffffffffffffffff1673ffffffffffffffffffffffffffffffffffffffff163373ffffffffffffffffffffffffffffffffffffffff1614610f2557600080fd5b600360009054906101000a900473ffffffffffffffffffffffffffffffffffffffff1673ffffffffffffffffffffffffffffffffffffffff166108fc829081150290604051600060405180830381858888f19350505050158015610f8d573d6000803e3d6000fd5b5050565b828054600181600116156101000203166002900490600052602060002090601f016020900481019282601f10610fd257805160ff1916838001178555611000565b82800160010185558215611000579182015b82811115610fff578251825591602001919060010190610fe4565b5b50905061100d9190611011565b5090565b61103391905b8082111561102f576000816000905550600101611017565b5090565b9056fea265627a7a7231582043d16de0ab0ae369d4630289990a043ea24a4c755e47ee65d48fa53e9549f10e64736f6c63430005100032",
  "source": "pragma solidity ^0.5.16;\r\n\r\nimport \"./Official.sol\";\r\n\r\ncontract TaxCollection is Official{\r\n\r\n    address payable centralAuthorityAddress;\r\n\r\n    struct TaxBracket {\r\n        uint code;\r\n        uint lowerLimit;\r\n        uint upperLimit;\r\n        uint percentage;\r\n        bool validity;\r\n    }\r\n\r\n    mapping(uint => TaxBracket) taxBrackets;\r\n    uint bracketCount;\r\n\r\n    struct TaxPayer {\r\n        uint id;\r\n        string name;\r\n        bool taxPaid;\r\n        uint annualIncome;\r\n    }\r\n\r\n    mapping(address => TaxPayer) taxPayers;\r\n    mapping(uint => address) taxPayersAddresses;\r\n    uint taxPayerCount;\r\n\r\n    modifier taxNotPaid {\r\n        require(taxPayers[msg.sender].taxPaid==false);\r\n        _;\r\n    }\r\n\r\n    constructor(address _owner, address payable _centralAuthorityAddress) public {\r\n        owner=_owner;\r\n        taxPayerCount=0;\r\n        bracketCount=0;\r\n        centralAuthorityAddress=_centralAuthorityAddress;\r\n    }\r\n\r\n    function() payable external {}\r\n\r\n    function addTaxPayer(string memory _name, address _address, uint _annualIncome) public officialOnly {\r\n        taxPayers[_address]=TaxPayer(taxPayerCount, _name, false, _annualIncome);\r\n        taxPayersAddresses[taxPayerCount]=_address;\r\n        ++taxPayerCount;\r\n    }\r\n\r\n    function addTaxBracket(uint _lowerLimit, uint _upperLimit, uint _percentage) public officialOnly {\r\n        taxBrackets[bracketCount]=TaxBracket(bracketCount, _lowerLimit, _upperLimit, _percentage, true);\r\n        ++bracketCount;\r\n    }\r\n\r\n    function updateLowerLimitOfBracket(uint _code, uint _newLimit) public officialOnly {\r\n        taxBrackets[_code].lowerLimit=_newLimit;\r\n    }\r\n\r\n    function updateUpperLimitOfBracket(uint _code, uint _newLimit) public officialOnly {\r\n        taxBrackets[_code].upperLimit=_newLimit;\r\n    }\r\n\r\n    function updateTaxPercentageOfBracket(uint _code, uint _newPercentage) public officialOnly {\r\n        taxBrackets[_code].percentage=_newPercentage;\r\n    }\r\n\r\n    function disableTaxBracket(uint _code) public officialOnly {\r\n        taxBrackets[_code].validity=false;\r\n    }\r\n\r\n    function enableTaxBracket(uint _code) public officialOnly {\r\n        taxBrackets[_code].validity=true;\r\n    }\r\n\r\n    function calculateTax() public view returns (uint) {\r\n        if(taxPayers[msg.sender].taxPaid==true)\r\n            return 0;\r\n        uint _income=taxPayers[msg.sender].annualIncome;\r\n        uint _tax=0;\r\n        for(uint _i=0; _i<bracketCount; ++_i) {\r\n            if(taxBrackets[_i].validity==true) {\r\n                if(taxBrackets[_i].lowerLimit>_income) { // gotta do this as taxBrackets is stored as a mapping and it may not be in sorted order; find some way to sort the mapping in solidity efficiently\r\n                    if(taxBrackets[_i].upperLimit<=_income) {\r\n                        _tax+=taxBrackets[_i].percentage*(_income-taxBrackets[_i].lowerLimit)/100;\r\n                    }\r\n                    else {\r\n                        _tax+=taxBrackets[_i].percentage*(taxBrackets[_i].upperLimit-taxBrackets[_i].lowerLimit)/100;\r\n                    }\r\n                }\r\n                \r\n            }\r\n        }\r\n        return _tax;\r\n    }\r\n\r\n    function payTax() public taxNotPaid payable {\r\n        taxPayers[msg.sender].taxPaid=true;\r\n        // call event;\r\n    }\r\n\r\n    function resetTaxPayments() public officialOnly { // will be scheduled somehow to yearly reset Tax Cycle\r\n        for(uint _i=0; _i<taxPayerCount; ++_i) {\r\n            taxPayers[taxPayersAddresses[_i]].taxPaid=false;\r\n        }\r\n    }\r\n\r\n    function hasPaidTax(uint _id) public view returns (bool) { // solidity cannot return arrays of complex structures, to get a list we have to call for each individual\r\n        return taxPayers[taxPayersAddresses[_id]].taxPaid;\r\n    }\r\n\r\n    function grantFundsToCentralAuthority(uint _amount) public ownerOnly {\r\n        centralAuthorityAddress.transfer(_amount); \r\n        // call event;\r\n    }\r\n\r\n}",
  "sourcePath": "E:\\MAJOR PROJECT\\Blockchain\\contracts\\TaxCollection.sol",
  "compiler": {
    "name": "solc",
    "version": "0.5.16+commit.9c3226ce.Emscripten.clang"
  },
  "schemaVersion": "3.3.3",
  "updatedAt": "2021-03-07T23:11:48.030Z",
  "devdoc": {
    "methods": {}
  },
  "userdoc": {
    "methods": {}
  }
}