{
  "contractName": "TaxCollection",
  "abi": [
    {
      "inputs": [
        {
          "internalType": "address payable",
          "name": "_address",
          "type": "address"
        }
      ],
      "payable": false,
      "stateMutability": "nonpayable",
      "type": "constructor"
    },
    {
      "payable": true,
      "stateMutability": "payable",
      "type": "fallback"
    },
    {
      "constant": false,
      "inputs": [
        {
          "internalType": "address",
          "name": "_add",
          "type": "address"
        }
      ],
      "name": "addOfficial",
      "outputs": [],
      "payable": false,
      "stateMutability": "nonpayable",
      "type": "function"
    },
    {
      "constant": true,
      "inputs": [],
      "name": "centralAuthorityAddress",
      "outputs": [
        {
          "internalType": "address payable",
          "name": "",
          "type": "address"
        }
      ],
      "payable": false,
      "stateMutability": "view",
      "type": "function"
    },
    {
      "constant": true,
      "inputs": [],
      "name": "getBalance",
      "outputs": [
        {
          "internalType": "uint256",
          "name": "",
          "type": "uint256"
        }
      ],
      "payable": false,
      "stateMutability": "view",
      "type": "function"
    },
    {
      "constant": true,
      "inputs": [],
      "name": "getContractAddress",
      "outputs": [
        {
          "internalType": "address",
          "name": "",
          "type": "address"
        }
      ],
      "payable": false,
      "stateMutability": "view",
      "type": "function"
    },
    {
      "constant": true,
      "inputs": [],
      "name": "owner",
      "outputs": [
        {
          "internalType": "address",
          "name": "",
          "type": "address"
        }
      ],
      "payable": false,
      "stateMutability": "view",
      "type": "function"
    },
    {
      "constant": false,
      "inputs": [
        {
          "internalType": "address",
          "name": "_add",
          "type": "address"
        }
      ],
      "name": "removeOfficial",
      "outputs": [],
      "payable": false,
      "stateMutability": "nonpayable",
      "type": "function"
    },
    {
      "constant": true,
      "inputs": [],
      "name": "total_officals",
      "outputs": [
        {
          "internalType": "uint256",
          "name": "",
          "type": "uint256"
        }
      ],
      "payable": false,
      "stateMutability": "view",
      "type": "function"
    },
    {
      "constant": false,
      "inputs": [
        {
          "internalType": "string",
          "name": "_name",
          "type": "string"
        },
        {
          "internalType": "address",
          "name": "_address",
          "type": "address"
        },
        {
          "internalType": "uint256",
          "name": "_annualIncome",
          "type": "uint256"
        }
      ],
      "name": "addTaxPayer",
      "outputs": [],
      "payable": false,
      "stateMutability": "nonpayable",
      "type": "function"
    },
    {
      "constant": false,
      "inputs": [
        {
          "internalType": "uint256",
          "name": "_lowerLimit",
          "type": "uint256"
        },
        {
          "internalType": "uint256",
          "name": "_upperLimit",
          "type": "uint256"
        },
        {
          "internalType": "uint256",
          "name": "_percentage",
          "type": "uint256"
        }
      ],
      "name": "addTaxBracket",
      "outputs": [],
      "payable": false,
      "stateMutability": "nonpayable",
      "type": "function"
    },
    {
      "constant": false,
      "inputs": [
        {
          "internalType": "uint256",
          "name": "_code",
          "type": "uint256"
        },
        {
          "internalType": "uint256",
          "name": "_newLimit",
          "type": "uint256"
        }
      ],
      "name": "updateLowerLimitOfBracket",
      "outputs": [],
      "payable": false,
      "stateMutability": "nonpayable",
      "type": "function"
    },
    {
      "constant": false,
      "inputs": [
        {
          "internalType": "uint256",
          "name": "_code",
          "type": "uint256"
        },
        {
          "internalType": "uint256",
          "name": "_newLimit",
          "type": "uint256"
        }
      ],
      "name": "updateUpperLimitOfBracket",
      "outputs": [],
      "payable": false,
      "stateMutability": "nonpayable",
      "type": "function"
    },
    {
      "constant": false,
      "inputs": [
        {
          "internalType": "uint256",
          "name": "_code",
          "type": "uint256"
        },
        {
          "internalType": "uint256",
          "name": "_newPercentage",
          "type": "uint256"
        }
      ],
      "name": "updateTaxPercentageOfBracket",
      "outputs": [],
      "payable": false,
      "stateMutability": "nonpayable",
      "type": "function"
    },
    {
      "constant": false,
      "inputs": [
        {
          "internalType": "uint256",
          "name": "_code",
          "type": "uint256"
        }
      ],
      "name": "disableTaxBracket",
      "outputs": [],
      "payable": false,
      "stateMutability": "nonpayable",
      "type": "function"
    },
    {
      "constant": false,
      "inputs": [
        {
          "internalType": "uint256",
          "name": "_code",
          "type": "uint256"
        }
      ],
      "name": "enableTaxBracket",
      "outputs": [],
      "payable": false,
      "stateMutability": "nonpayable",
      "type": "function"
    },
    {
      "constant": true,
      "inputs": [],
      "name": "calculateTax",
      "outputs": [
        {
          "internalType": "uint256",
          "name": "",
          "type": "uint256"
        }
      ],
      "payable": false,
      "stateMutability": "view",
      "type": "function"
    },
    {
      "constant": false,
      "inputs": [],
      "name": "payTax",
      "outputs": [],
      "payable": true,
      "stateMutability": "payable",
      "type": "function"
    },
    {
      "constant": false,
      "inputs": [],
      "name": "resetTaxPayments",
      "outputs": [],
      "payable": false,
      "stateMutability": "nonpayable",
      "type": "function"
    },
    {
      "constant": true,
      "inputs": [
        {
          "internalType": "address",
          "name": "_address",
          "type": "address"
        }
      ],
      "name": "hasPaidTax",
      "outputs": [
        {
          "internalType": "bool",
          "name": "",
          "type": "bool"
        }
      ],
      "payable": false,
      "stateMutability": "view",
      "type": "function"
    },
    {
      "constant": false,
      "inputs": [
        {
          "internalType": "uint256",
          "name": "_amount",
          "type": "uint256"
        }
      ],
      "name": "grantFundsToCentralAuthority",
      "outputs": [],
      "payable": false,
      "stateMutability": "nonpayable",
      "type": "function"
    },
    {
      "constant": true,
      "inputs": [
        {
          "internalType": "uint256",
          "name": "_code",
          "type": "uint256"
        }
      ],
      "name": "getTaxBracket",
      "outputs": [
        {
          "internalType": "uint256",
          "name": "",
          "type": "uint256"
        },
        {
          "internalType": "uint256",
          "name": "",
          "type": "uint256"
        },
        {
          "internalType": "uint256",
          "name": "",
          "type": "uint256"
        },
        {
          "internalType": "uint256",
          "name": "",
          "type": "uint256"
        },
        {
          "internalType": "bool",
          "name": "",
          "type": "bool"
        }
      ],
      "payable": false,
      "stateMutability": "view",
      "type": "function"
    },
    {
      "constant": true,
      "inputs": [],
      "name": "getTotalTaxBrackets",
      "outputs": [
        {
          "internalType": "uint256",
          "name": "",
          "type": "uint256"
        }
      ],
      "payable": false,
      "stateMutability": "view",
      "type": "function"
    },
    {
      "constant": true,
      "inputs": [
        {
          "internalType": "address",
          "name": "_address",
          "type": "address"
        }
      ],
      "name": "getTaxPayerWithAddress",
      "outputs": [
        {
          "internalType": "uint256",
          "name": "",
          "type": "uint256"
        },
        {
          "internalType": "string",
          "name": "",
          "type": "string"
        },
        {
          "internalType": "bool",
          "name": "",
          "type": "bool"
        },
        {
          "internalType": "uint256",
          "name": "",
          "type": "uint256"
        }
      ],
      "payable": false,
      "stateMutability": "view",
      "type": "function"
    },
    {
      "constant": true,
      "inputs": [
        {
          "internalType": "uint256",
          "name": "_id",
          "type": "uint256"
        }
      ],
      "name": "getTaxPayerWithID",
      "outputs": [
        {
          "internalType": "uint256",
          "name": "",
          "type": "uint256"
        },
        {
          "internalType": "string",
          "name": "",
          "type": "string"
        },
        {
          "internalType": "bool",
          "name": "",
          "type": "bool"
        },
        {
          "internalType": "uint256",
          "name": "",
          "type": "uint256"
        }
      ],
      "payable": false,
      "stateMutability": "view",
      "type": "function"
    },
    {
      "constant": true,
      "inputs": [],
      "name": "getTotalTaxPayers",
      "outputs": [
        {
          "internalType": "uint256",
          "name": "",
          "type": "uint256"
        }
      ],
      "payable": false,
      "stateMutability": "view",
      "type": "function"
    }
  ],
  "bytecode": "0x608060405234801561001057600080fd5b50604051611aff380380611aff8339818101604052602081101561003357600080fd5b8101908080519060200190929190505050336000806101000a81548173ffffffffffffffffffffffffffffffffffffffff021916908373ffffffffffffffffffffffffffffffffffffffff16021790555060018060008060009054906101000a900473ffffffffffffffffffffffffffffffffffffffff1673ffffffffffffffffffffffffffffffffffffffff1673ffffffffffffffffffffffffffffffffffffffff16815260200190815260200160002060006101000a81548160ff0219169083151502179055506001600281905550336000806101000a81548173ffffffffffffffffffffffffffffffffffffffff021916908373ffffffffffffffffffffffffffffffffffffffff1602179055506000600881905550600060058190555080600360006101000a81548173ffffffffffffffffffffffffffffffffffffffff021916908373ffffffffffffffffffffffffffffffffffffffff1602179055505061195a806101a56000396000f3fe60806040526004361061014b5760003560e01c80638d5cfc4c116100b6578063e01211dc1161006f578063e01211dc146106b9578063e0a999be1461079c578063e5f06fdf146107eb578063ea69fee414610802578063eb2900cf1461083d578063f8414e221461090a5761014b565b80638d5cfc4c146104f75780638da5cb5b1461053c578063a431ff8a14610593578063ac840db0146105ce578063b9b2735c1461061f578063c97bdef61461064a5761014b565b806332a2c5d01161010857806332a2c5d0146102a057806334c6b027146102f75780634fea4954146103325780635e1926a61461038357806368afed0d146103da578063761e348c146104055761014b565b806304dbdac11461014d578063091df85f146101925780630c5eb7b3146101bd57806312065fe0146102025780632912ba5f1461022d5780632feaee9514610237575b005b34801561015957600080fd5b506101906004803603604081101561017057600080fd5b810190808035906020019092919080359060200190929190505050610935565b005b34801561019e57600080fd5b506101a76109b1565b6040518082815260200191505060405180910390f35b3480156101c957600080fd5b50610200600480360360408110156101e057600080fd5b8101908080359060200190929190803590602001909291905050506109b7565b005b34801561020e57600080fd5b50610217610a33565b6040518082815260200191505060405180910390f35b610235610a3b565b005b34801561024357600080fd5b506102866004803603602081101561025a57600080fd5b81019080803573ffffffffffffffffffffffffffffffffffffffff169060200190929190505050610af8565b604051808215151515815260200191505060405180910390f35b3480156102ac57600080fd5b506102b5610b51565b604051808273ffffffffffffffffffffffffffffffffffffffff1673ffffffffffffffffffffffffffffffffffffffff16815260200191505060405180910390f35b34801561030357600080fd5b506103306004803603602081101561031a57600080fd5b8101908080359060200190929190505050610b59565b005b34801561033e57600080fd5b506103816004803603602081101561035557600080fd5b81019080803573ffffffffffffffffffffffffffffffffffffffff169060200190929190505050610be8565b005b34801561038f57600080fd5b50610398610d0d565b604051808273ffffffffffffffffffffffffffffffffffffffff1673ffffffffffffffffffffffffffffffffffffffff16815260200191505060405180910390f35b3480156103e657600080fd5b506103ef610d33565b6040518082815260200191505060405180910390f35b34801561041157600080fd5b506104f56004803603606081101561042857600080fd5b810190808035906020019064010000000081111561044557600080fd5b82018360208201111561045757600080fd5b8035906020019184600183028401116401000000008311171561047957600080fd5b91908080601f016020809104026020016040519081016040528093929190818152602001838380828437600081840152601f19601f820116905080830192505050505050509192919290803573ffffffffffffffffffffffffffffffffffffffff16906020019092919080359060200190929190505050610d3d565b005b34801561050357600080fd5b5061053a6004803603604081101561051a57600080fd5b810190808035906020019092919080359060200190929190505050610ebc565b005b34801561054857600080fd5b50610551610f38565b604051808273ffffffffffffffffffffffffffffffffffffffff1673ffffffffffffffffffffffffffffffffffffffff16815260200191505060405180910390f35b34801561059f57600080fd5b506105cc600480360360208110156105b657600080fd5b8101908080359060200190929190505050610f5d565b005b3480156105da57600080fd5b5061061d600480360360208110156105f157600080fd5b81019080803573ffffffffffffffffffffffffffffffffffffffff169060200190929190505050610fec565b005b34801561062b57600080fd5b50610634611114565b6040518082815260200191505060405180910390f35b34801561065657600080fd5b506106836004803603602081101561066d57600080fd5b81019080803590602001909291905050506112f3565b60405180868152602001858152602001848152602001838152602001821515151581526020019550505050505060405180910390f35b3480156106c557600080fd5b50610708600480360360208110156106dc57600080fd5b81019080803573ffffffffffffffffffffffffffffffffffffffff16906020019092919050505061138e565b604051808581526020018060200184151515158152602001838152602001828103825285818151815260200191508051906020019080838360005b8381101561075e578082015181840152602081019050610743565b50505050905090810190601f16801561078b5780820380516001836020036101000a031916815260200191505b509550505050505060405180910390f35b3480156107a857600080fd5b506107e9600480360360608110156107bf57600080fd5b81019080803590602001909291908035906020019092919080359060200190929190505050611558565b005b3480156107f757600080fd5b50610800611656565b005b34801561080e57600080fd5b5061083b6004803603602081101561082557600080fd5b810190808035906020019092919050505061175f565b005b34801561084957600080fd5b506108766004803603602081101561086057600080fd5b8101908080359060200190929190505050611824565b604051808581526020018060200184151515158152602001838152602001828103825285818151815260200191508051906020019080838360005b838110156108cc5780820151818401526020810190506108b1565b50505050905090810190601f1680156108f95780820380516001836020036101000a031916815260200191505b509550505050505060405180910390f35b34801561091657600080fd5b5061091f611876565b6040518082815260200191505060405180910390f35b60011515600160003373ffffffffffffffffffffffffffffffffffffffff1673ffffffffffffffffffffffffffffffffffffffff16815260200190815260200160002060009054906101000a900460ff1615151461099257600080fd5b8060046000848152602001908152602001600020600301819055505050565b60025481565b60011515600160003373ffffffffffffffffffffffffffffffffffffffff1673ffffffffffffffffffffffffffffffffffffffff16815260200190815260200160002060009054906101000a900460ff16151514610a1457600080fd5b8060046000848152602001908152602001600020600101819055505050565b600047905090565b60001515600660003373ffffffffffffffffffffffffffffffffffffffff1673ffffffffffffffffffffffffffffffffffffffff16815260200190815260200160002060020160009054906101000a900460ff16151514610a9b57600080fd5b6001600660003373ffffffffffffffffffffffffffffffffffffffff1673ffffffffffffffffffffffffffffffffffffffff16815260200190815260200160002060020160006101000a81548160ff021916908315150217905550565b6000600660008373ffffffffffffffffffffffffffffffffffffffff1673ffffffffffffffffffffffffffffffffffffffff16815260200190815260200160002060020160009054906101000a900460ff169050919050565b600030905090565b60011515600160003373ffffffffffffffffffffffffffffffffffffffff1673ffffffffffffffffffffffffffffffffffffffff16815260200190815260200160002060009054906101000a900460ff16151514610bb657600080fd5b60016004600083815260200190815260200160002060040160006101000a81548160ff02191690831515021790555050565b60011515600160003373ffffffffffffffffffffffffffffffffffffffff1673ffffffffffffffffffffffffffffffffffffffff16815260200190815260200160002060009054906101000a900460ff16151514610c4557600080fd5b60011515600160008373ffffffffffffffffffffffffffffffffffffffff1673ffffffffffffffffffffffffffffffffffffffff16815260200190815260200160002060009054906101000a900460ff1615151415610d0a576000600160008373ffffffffffffffffffffffffffffffffffffffff1673ffffffffffffffffffffffffffffffffffffffff16815260200190815260200160002060006101000a81548160ff021916908315150217905550600260008154809291906001900391905055505b50565b600360009054906101000a900473ffffffffffffffffffffffffffffffffffffffff1681565b6000600554905090565b60011515600160003373ffffffffffffffffffffffffffffffffffffffff1673ffffffffffffffffffffffffffffffffffffffff16815260200190815260200160002060009054906101000a900460ff16151514610d9a57600080fd5b6040518060800160405280600854815260200184815260200160001515815260200182815250600660008473ffffffffffffffffffffffffffffffffffffffff1673ffffffffffffffffffffffffffffffffffffffff168152602001908152602001600020600082015181600001556020820151816001019080519060200190610e25929190611880565b5060408201518160020160006101000a81548160ff021916908315150217905550606082015181600301559050508160076000600854815260200190815260200160002060006101000a81548173ffffffffffffffffffffffffffffffffffffffff021916908373ffffffffffffffffffffffffffffffffffffffff16021790555060086000815460010191905081905550505050565b60011515600160003373ffffffffffffffffffffffffffffffffffffffff1673ffffffffffffffffffffffffffffffffffffffff16815260200190815260200160002060009054906101000a900460ff16151514610f1957600080fd5b8060046000848152602001908152602001600020600201819055505050565b6000809054906101000a900473ffffffffffffffffffffffffffffffffffffffff1681565b60011515600160003373ffffffffffffffffffffffffffffffffffffffff1673ffffffffffffffffffffffffffffffffffffffff16815260200190815260200160002060009054906101000a900460ff16151514610fba57600080fd5b60006004600083815260200190815260200160002060040160006101000a81548160ff02191690831515021790555050565b60011515600160003373ffffffffffffffffffffffffffffffffffffffff1673ffffffffffffffffffffffffffffffffffffffff16815260200190815260200160002060009054906101000a900460ff1615151461104957600080fd5b60011515600160008373ffffffffffffffffffffffffffffffffffffffff1673ffffffffffffffffffffffffffffffffffffffff16815260200190815260200160002060009054906101000a900460ff16151514156110a757611111565b60018060008373ffffffffffffffffffffffffffffffffffffffff1673ffffffffffffffffffffffffffffffffffffffff16815260200190815260200160002060006101000a81548160ff0219169083151502179055506002600081548092919060010191905055505b50565b600060011515600660003373ffffffffffffffffffffffffffffffffffffffff1673ffffffffffffffffffffffffffffffffffffffff16815260200190815260200160002060020160009054906101000a900460ff161515141561117b57600090506112f0565b6000600660003373ffffffffffffffffffffffffffffffffffffffff1673ffffffffffffffffffffffffffffffffffffffff168152602001908152602001600020600301549050600080905060008090505b6005548110156112e957600115156004600083815260200190815260200160002060040160009054906101000a900460ff16151514156112de5782600460008381526020019081526020016000206001015410156112dd5782600460008381526020019081526020016000206002015410611286576064600460008381526020019081526020016000206001015484036004600084815260200190815260200160002060030154028161127c57fe5b04820191506112dc565b60646004600083815260200190815260200160002060010154600460008481526020019081526020016000206002015403600460008481526020019081526020016000206003015402816112d657fe5b04820191505b5b5b8060010190506111cd565b5080925050505b90565b6000806000806000600460008781526020019081526020016000206000015460046000888152602001908152602001600020600101546004600089815260200190815260200160002060020154600460008a815260200190815260200160002060030154600460008b815260200190815260200160002060040160009054906101000a900460ff169450945094509450945091939590929450565b60006060600080600660008673ffffffffffffffffffffffffffffffffffffffff1673ffffffffffffffffffffffffffffffffffffffff16815260200190815260200160002060000154600660008773ffffffffffffffffffffffffffffffffffffffff1673ffffffffffffffffffffffffffffffffffffffff168152602001908152602001600020600101600660008873ffffffffffffffffffffffffffffffffffffffff1673ffffffffffffffffffffffffffffffffffffffff16815260200190815260200160002060020160009054906101000a900460ff16600660008973ffffffffffffffffffffffffffffffffffffffff1673ffffffffffffffffffffffffffffffffffffffff16815260200190815260200160002060030154828054600181600116156101000203166002900480601f0160208091040260200160405190810160405280929190818152602001828054600181600116156101000203166002900480156115425780601f1061151757610100808354040283529160200191611542565b820191906000526020600020905b81548152906001019060200180831161152557829003601f168201915b5050505050925093509350935093509193509193565b60011515600160003373ffffffffffffffffffffffffffffffffffffffff1673ffffffffffffffffffffffffffffffffffffffff16815260200190815260200160002060009054906101000a900460ff161515146115b557600080fd5b6040518060a001604052806005548152602001848152602001838152602001828152602001600115158152506004600060055481526020019081526020016000206000820151816000015560208201518160010155604082015181600201556060820151816003015560808201518160040160006101000a81548160ff02191690831515021790555090505060056000815460010191905081905550505050565b60011515600160003373ffffffffffffffffffffffffffffffffffffffff1673ffffffffffffffffffffffffffffffffffffffff16815260200190815260200160002060009054906101000a900460ff161515146116b357600080fd5b60008090505b60085481101561175c576000600660006007600085815260200190815260200160002060009054906101000a900473ffffffffffffffffffffffffffffffffffffffff1673ffffffffffffffffffffffffffffffffffffffff1673ffffffffffffffffffffffffffffffffffffffff16815260200190815260200160002060020160006101000a81548160ff0219169083151502179055508060010190506116b9565b50565b6000809054906101000a900473ffffffffffffffffffffffffffffffffffffffff1673ffffffffffffffffffffffffffffffffffffffff163373ffffffffffffffffffffffffffffffffffffffff16146117b857600080fd5b600360009054906101000a900473ffffffffffffffffffffffffffffffffffffffff1673ffffffffffffffffffffffffffffffffffffffff166108fc829081150290604051600060405180830381858888f19350505050158015611820573d6000803e3d6000fd5b5050565b600060606000806118676007600087815260200190815260200160002060009054906101000a900473ffffffffffffffffffffffffffffffffffffffff1661138e565b93509350935093509193509193565b6000600854905090565b828054600181600116156101000203166002900490600052602060002090601f016020900481019282601f106118c157805160ff19168380011785556118ef565b828001600101855582156118ef579182015b828111156118ee5782518255916020019190600101906118d3565b5b5090506118fc9190611900565b5090565b61192291905b8082111561191e576000816000905550600101611906565b5090565b9056fea265627a7a7231582095d8a0606166d58889b0d2e5361754413e9f8d205d6dda8b38cae2cded9824be64736f6c63430005100032",
  "source": "pragma solidity ^0.5.16;\r\n\r\nimport \"./Official.sol\";\r\n\r\ncontract TaxCollection is Official{\r\n\r\n    address payable public centralAuthorityAddress;\r\n\r\n    struct TaxBracket {\r\n        uint code;\r\n        uint lowerLimit;\r\n        uint upperLimit;\r\n        uint percentage;\r\n        bool validity;\r\n    }\r\n\r\n    mapping(uint => TaxBracket) taxBrackets;\r\n    uint bracketCount;\r\n\r\n    struct TaxPayer {\r\n        uint id;\r\n        string name;\r\n        bool taxPaid;\r\n        uint annualIncome;\r\n    }\r\n\r\n    mapping(address => TaxPayer) taxPayers;\r\n    mapping(uint => address) taxPayersAddresses;\r\n    uint taxPayerCount;\r\n\r\n    modifier taxNotPaid {\r\n        require(taxPayers[msg.sender].taxPaid==false);\r\n        _;\r\n    }\r\n\r\n    constructor(address payable _address) public {\r\n        owner=msg.sender;\r\n        taxPayerCount=0;\r\n        bracketCount=0;\r\n        centralAuthorityAddress=_address;\r\n    }\r\n\r\n    function() payable external {}\r\n\r\n    function addTaxPayer(string memory _name, address _address, uint _annualIncome) public officialOnly {\r\n        taxPayers[_address]=TaxPayer(taxPayerCount, _name, false, _annualIncome);\r\n        taxPayersAddresses[taxPayerCount]=_address;\r\n        ++taxPayerCount;\r\n    }\r\n\r\n    function addTaxBracket(uint _lowerLimit, uint _upperLimit, uint _percentage) public officialOnly {\r\n        taxBrackets[bracketCount]=TaxBracket(bracketCount, _lowerLimit, _upperLimit, _percentage, true);\r\n        ++bracketCount;\r\n    }\r\n\r\n    function updateLowerLimitOfBracket(uint _code, uint _newLimit) public officialOnly {\r\n        taxBrackets[_code].lowerLimit=_newLimit;\r\n    }\r\n\r\n    function updateUpperLimitOfBracket(uint _code, uint _newLimit) public officialOnly {\r\n        taxBrackets[_code].upperLimit=_newLimit;\r\n    }\r\n\r\n    function updateTaxPercentageOfBracket(uint _code, uint _newPercentage) public officialOnly {\r\n        taxBrackets[_code].percentage=_newPercentage;\r\n    }\r\n\r\n    function disableTaxBracket(uint _code) public officialOnly {\r\n        taxBrackets[_code].validity=false;\r\n    }\r\n\r\n    function enableTaxBracket(uint _code) public officialOnly {\r\n        taxBrackets[_code].validity=true;\r\n    }\r\n\r\n    function calculateTax() public view returns (uint) {\r\n        if(taxPayers[msg.sender].taxPaid==true)\r\n            return 0;\r\n        uint _income=taxPayers[msg.sender].annualIncome;\r\n        uint _tax=0;\r\n        for(uint _i=0; _i<bracketCount; ++_i) {\r\n            if(taxBrackets[_i].validity==true) {\r\n                if(taxBrackets[_i].lowerLimit<_income) { // gotta do this as taxBrackets is stored as a mapping and it may not be in sorted order; find some way to sort the mapping in solidity efficiently\r\n                    if(taxBrackets[_i].upperLimit>=_income) {\r\n                        _tax+=taxBrackets[_i].percentage*(_income-taxBrackets[_i].lowerLimit)/100;\r\n                    }\r\n                    else {\r\n                        _tax+=taxBrackets[_i].percentage*(taxBrackets[_i].upperLimit-taxBrackets[_i].lowerLimit)/100;\r\n                    }\r\n                }\r\n            }\r\n        }\r\n        return _tax;\r\n    }\r\n\r\n    function payTax() public taxNotPaid payable {\r\n        taxPayers[msg.sender].taxPaid=true;\r\n        // call event;\r\n    }\r\n\r\n    function resetTaxPayments() public officialOnly { // will be scheduled somehow to yearly reset Tax Cycle\r\n        for(uint _i=0; _i<taxPayerCount; ++_i) {\r\n            taxPayers[taxPayersAddresses[_i]].taxPaid=false;\r\n        }\r\n    }\r\n\r\n    function hasPaidTax(address _address) public view returns (bool) { // solidity cannot return arrays of complex structures, to get a list we have to call for each individual\r\n        return taxPayers[_address].taxPaid;\r\n    }\r\n\r\n    function grantFundsToCentralAuthority(uint _amount) public ownerOnly {\r\n        centralAuthorityAddress.transfer(_amount); \r\n        // call event;\r\n    }\r\n\r\n    function getTaxBracket(uint _code) public view returns (uint, uint, uint, uint, bool) {\r\n        return (taxBrackets[_code].code, taxBrackets[_code].lowerLimit, taxBrackets[_code].upperLimit, taxBrackets[_code].percentage, taxBrackets[_code].validity);\r\n    }\r\n\r\n    function getTotalTaxBrackets() public view returns (uint) {\r\n        return bracketCount;\r\n    }\r\n\r\n    function getTaxPayerWithAddress(address _address) public view returns (uint, string memory, bool, uint) {\r\n        return (taxPayers[_address].id, taxPayers[_address].name, taxPayers[_address].taxPaid, taxPayers[_address].annualIncome);\r\n    }\r\n\r\n    function getTaxPayerWithID(uint _id) public view returns (uint, string memory, bool, uint) {\r\n        return getTaxPayerWithAddress(taxPayersAddresses[_id]);\r\n    }\r\n\r\n    function getTotalTaxPayers() public view returns (uint) {\r\n        return taxPayerCount;\r\n    }\r\n}",
  "sourcePath": "E:/MAJOR PROJECT/Blockchain/contracts/TaxCollection.sol",
  "compiler": {
    "name": "solc",
    "version": "0.5.16+commit.9c3226ce.Emscripten.clang"
  },
  "schemaVersion": "3.3.3",
  "updatedAt": "2021-04-20T09:26:01.576Z",
  "networkType": "ethereum",
  "devdoc": {
    "methods": {}
  },
  "userdoc": {
    "methods": {}
  }
}